:020000040800F2
:100000000080012075040008590400085B04000802
:100010005D0400085F04000861040008000000009F
:100020000000000000000000000000006304000861
:100030006504000800000000670400086904000867
:10004000C5040008C5040008C5040008C50400086C
:10005000C5040008C5040008C5040008C50400085C
:10006000C5040008C5040008C5040008C50400084C
:10007000C5040008C5040008C5040008C50400083C
:10008000C5040008C5040008C5040008C50400082C
:10009000C5040008C5040008C5040008C50400081C
:1000A000C5040008C5040008C5040008C50400080C
:1000B000C5040008C5040008C5040008C5040008FC
:1000C000C5040008C5040008C5040008C5040008EC
:1000D000C5040008C5040008C5040008C5040008DC
:1000E000C5040008C5040008C5040008C5040008CC
:1000F000C5040008C5040008C5040008C5040008BC
:10010000C5040008C5040008C5040008C5040008AB
:10011000C5040008C5040008C5040008C50400089B
:10012000C5040008C5040008C5040008C50400088B
:10013000C5040008C5040008C5040008C50400087B
:10014000C5040008C5040008C5040008C50400086B
:10015000C5040008C5040008C5040008C50400085B
:10016000C5040008C5040008C5040008C50400084B
:10017000C5040008C5040008C5040008000000000C
:08018000C5040008C5040008D5
:1001880010B5054C237833B9044B13B10448AFF3C9
:1001980000800123237010BD3C04002000000000F3
:1001A8007014000808B5034B1BB103490348AFF3AB
:1001B800008008BD00000000400400207014000802
:1001C80070B58AB00024059406940794089409949D
:1001D800334BDA6C42F00402DA64DA6C02F004029F
:1001E8000192019ADA6C42F08002DA64DA6C02F069
:1001F80080020292029ADA6C42F00102DA64DA6C46
:1002080002F001020392039ADA6C42F00202DA6405
:10021800DB6C03F002030493049B224620214FF079
:10022800904000F001FB01224FF4A0614FF0904094
:1002380000F0FAFA1B4D01222021284600F0F4FABA
:100248004FF4005305934FF404130693079405A93C
:10025800154800F0E3F90C2305930223069307944D
:10026800032308930723099305A94FF0904000F052
:10027800D5F94FF4A46305930126069607940894CC
:1002880005A94FF0904000F0C9F920230593069680
:100298000794089405A9284600F0C0F90AB070BD73
:1002A80000100240000400480008004872B6FEE74B
:1002B80008B50F480F4B03604FF482734360002367
:1002C80083604FF4E062C260036143614FF40072DF
:1002D80082610822C2610362436283620721C162AC
:1002E8000363426300F06AFF00B908BDFFF7DEFF51
:1002F800580400200038004000B597B0442200217F
:1003080005A800F0EFFF00230093019302930393E5
:1003180004934FF4007000F095FA20BB0223059374
:100328004FF480720892102209920F9310930122C1
:1003380011920A221292072213921493159305A878
:1003480000F06AFB88B90F2300930323019300236D
:100358000293039304930421684600F06BFE30B9BE
:1003680017B05DF804FBFFF7A1FFFFF79FFFFFF74A
:100378009DFF08B500F0CCF8FFF7BEFFFFF720FFA0
:10038800FFF796FFFEE7000082B00A4B1A6E42F0B4
:1003980001021A661A6E02F001020092009A9A6D22
:1003A80042F080529A659B6D03F080530193019B44
:1003B80002B070470010024070B588B00023039364
:1003C800049305930693079302681E4B9A4201D043
:1003D80008B070BD03F5EC339A6D42F480429A651B
:1003E8009A6D02F480420092009ADA6C42F004029C
:1003F800DA64DA6C02F004020192019ADA6C42F0D3
:100408000202DA64DB6C03F002030293029B0C2302
:1004180003930226049603250695052407940DEBFD
:100428000301094800F0FAF84FF480630393049637
:10043800002305930695079403A9044800F0EEF8F5
:10044800C6E700BF00380040000800480004004824
:10045800FEE7FEE7FEE7FEE7FEE7704770477047F6
:1004680008B500F06BF808BD70470000DFF834D01D
:10047800FFF7FAFF0C480D490D4A002302E0D45853
:10048800C4500433C4188C42F9D30A4A0A4C0023D6
:1004980001E013600432A242FBD300F0FFFEFFF735
:1004A80068FFFEE700800120000000203C040020D7
:1004B800D81400083C040020C4040020FEE7000013
:1004C800104B1B780BB90120704710B504464FF448
:1004D8007A70B0FBF3F30C4A1068B0FBF3F000F04D
:1004E80089F868B90F2C01D901200AE000222146B9
:1004F8004FF0FF3000F046F8044B1C60002000E08D
:10050800012010BD04000020000000200800002089
:1005180010B5094A136843F480731360032000F090
:100528001FF80020FFF7CCFF10B10124204610BDB2
:100538000446FFF729FFF9E700200240034B1B7828
:10054800034A11680B441360704700BF0400002081
:10055800BC040020014B1868704700BFBC04002091
:10056800074AD36823F4E0631B041B0C000200F461
:10057800E060034343F0BF6343F40033D360704744
:1005880000ED00E000B5194BDB68C3F30223C3F1AB
:10059800070CBCF1040F28BF4FF0040C03F1040E44
:1005A800BEF1060F18D9033B4FF0FF3E0EFA0CFCC4
:1005B80021EA0C0199400EFA03F322EA03031943D6
:1005C80000280BDB0901C9B200F1604000F5614069
:1005D80080F800135DF804FB0023E5E700F00F0046
:1005E8000901C9B2024B1954F4E700BF00ED00E05D
:1005F80014ED00E00138B0F1807F0BD24FF0E0231A
:100608005861054AF02182F82310002098610722DA
:100618001A6170470120704700ED00E070B582B0A4
:1006280000236EE085685E000324B44025EA0405D3
:10063800CC68B4402C438460456825EA0C054C68B6
:10064800C4F300149C402C4344606DE0C56A25EA5D
:100658000C0CC4F3C0049C4044EA0C04C46269E076
:10066800DD08083550F8256003F007044FEA840CCC
:100678000F2404FA0CF426EA040E0C6904FA0CF4AC
:1006880044EA0E0440F825406CE0062400E000240B
:1006980004FA0EF42C430CF1020C5F4D45F82C4083
:1006A8005E4CA568D44325EA0206D1F804C01CF4C0
:1006B800801F01D042EA0506584DAE60ED6804EA95
:1006C8000506D1F804C01CF4001F01D042EA050653
:1006D800524DEE606D6804EA0506D1F804C01CF4BA
:1006E800003F01D042EA05064C4D6E602D682C4053
:1006F8004E6816F4803F01D042EA0504474A146068
:1007080001330A6832FA03F400F083804FF0010CD9
:100718000CFA03FC1CEA0202F2D04C6804F0030451
:10072800013C012C7FF67EAF4C6804F0030EBEF14D
:10073800030F8BD04C6804F00304032C0CD0C4685E
:100748005D004FF0030C0CFA05FC24EA0C0C8C68D5
:10075800AC4044EA0C04C4604C6804F00304022C66
:100768003FF47EAF04684FEA430E4FF0030C0CFAD7
:100778000EFC24EA0C0C4C6804F0030404FA0EF492
:1007880044EA0C0404604C6814F4403FB8D0244C8C
:10079800256E45F001052566246E04F001040194D8
:1007A800019C4FEA930C0CF102051B4C54F82550A0
:1007B80003F003044FEA840E0F2404FA0EF425EA2A
:1007C8000405B0F1904F3FF462AF164CA04216D02A
:1007D80004F58064A04214D004F58064A04212D0CD
:1007E80004F58064A04210D004F58064A0420ED0C5
:1007F80004F58064A0423FF448AF072448E7012489
:1008080046E7022444E7032442E7042440E705249A
:100818003EE702B070BD00BF000001400004014087
:1008280000100240000400480AB1816170478162EB
:1008380070470000024B186800F4C060704700BFA2
:1008480000700040B0F5007F0FD01F4B1B6803F409
:10085800C063B3F5806F34D01B4A136823F4C063B8
:1008680043F48063136000207047174B1B6803F440
:10087800C063B3F5007F20D0134A136823F4C06324
:1008880043F400731360114B1B68322202FB03F31D
:100898000F4AA2FB03239B0C013300E0013B0A4AE9
:1008A800526912F4806F01D0002BF7D1064B5B69B7
:1008B80013F4806F03D10020704700207047032095
:1008C80070470020704700BF007000400000002003
:1008D80083DE1B4330B583B00446204B9B6D13F079
:1008E800805F0BD0FFF7A6FFB0F5007F17D0802CF4
:1008F8001FD82DD0702C2DD000211BE0174DAB6DCB
:1009080043F08053AB65AB6D03F080530193019BBB
:10091800FFF790FFAB6D23F08053AB65E4E7802CC5
:1009280003D9A02C03D9022104E0002102E001210F
:1009380000E003210A4A136823F007030B431360FE
:10094800136803F007038B4206D1002003B030BDC3
:100958000221EFE70121EDE70120F7E7001002404F
:1009680000200240284A9368D26802F0030213F07C
:100978000C030AD00C2B06D0042B1FD0082B20D038
:100988000020024610E0012AF6D11F4A126812F030
:10099800080F0CD11C4AD2F89420C2F303221B4939
:1009A80051F8222043B100200C2B0DD07047164A75
:1009B8001268C2F30312F2E71046F5E71448002262
:1009C800F2E714480022EFE70F4BDB6803F003035C
:1009D800022B16D0032B00D10E4A0B49C868C0F36E
:1009E8000210431CC868C0F3062002FB00F0B0FBED
:1009F800F3F0CB68C3F3416301335B00B0FBF3F062
:100A0800D4E7034AE9E700BF001002409814000841
:100A18000024F40000127A00002800F0F182F0B5FA
:100A280083B00446964B9D6805F00C05DE6806F019
:100A38000306036813F0100F5AD0E5B10C2D18D037
:100A4800A369002B00F0BB808D4A136843F00103B3
:100A58001360FFF77FFD0746894B1B6813F0020FF1
:100A680040F09A80FFF776FDC01B0228F4D90320D6
:100A7800D1E2012EE4D1824B1B6813F0020F03D0A0
:100A8800A369002B00F0BE82206A7D4B1B6813F01F
:100A9800080F5BD07A4B1B6803F0F00398425CD8D0
:100AA800774B1A6842F008021A601A6822F0F002BE
:100AB800216A0A431A605A6822F47F42E16942EACD
:100AC80001225A60002D60D0FFF74CFF6C4B9B68E9
:100AD800C3F303136B4AD35C03F01F03D8406A4B7C
:100AE80018606A4B1868FFF7EBFC002840F0938207
:100AF800236813F0010F00F08180082D75D00C2DAC
:100B080071D06368B3F5803F00F09780B3F5A02FEC
:100B180000F099805A4B1A6822F480321A601A68D9
:100B280022F480221A606368002B00F09980FFF796
:100B380011FD0746524B1B6813F4003F5ED1FFF7C7
:100B480009FDC01B6428F5D9032064E24C4BD3F897
:100B580094301B0903F0F003A0E7FFF7BBFE002861
:100B680040F05282464B1A6842F008021A601A682E
:100B780022F0F002216A0A431A605A6822F47F427E
:100B8800E16942EA01225A609EE7206AFFF7A2FE65
:100B9800002899D001203EE2394B1A6842F0080239
:100BA8001A601A6822F0F002216A0A431A605A6829
:100BB80022F47F42E16942EA01225A6098E7304A0A
:100BC800136823F001031360FFF7C4FC07462C4B9E
:100BD8001B6813F0020F8BD0FFF7BCFCC01B022868
:100BE800F5D9032017E2032E8BD1254B1B6813F48C
:100BF800003F03D06368002B00F00882236813F0DD
:100C0800020F58D0042D45D00C2D41D0E368002B9D
:100C180077D01B4A136843F480731360FFF79AFC7C
:100C28000646174B1B6813F4806F61D1FFF792FCDF
:100C3800801B0228F5D90320EDE1114A136843F41B
:100C4800803313606FE703F18043A3F53C331A68E0
:100C580042F480221A601A6842F480321A6062E70D
:100C6800FFF778FC0746064B1B6813F4003FC5D016
:100C7800FFF770FCC01B6428F5D90320CBE100BF47
:100C8800001002408814000800000020080000201E
:100C9800022EBBD1A34B1B6813F4806F03D0E3680B
:100CA800002B00F0B5819F4A536823F0F85321695F
:100CB80043EA01635360236813F0080F4CD063695B
:100CC8009BB3984AD2F8943043F00103C2F89430A9
:100CD800FFF740FC0646934BD3F8943013F0020F0D
:100CE8003AD1FFF737FC801B0228F4D9032092E1A0
:100CF8008C4A536823F0F853216943EA016353602F
:100D0800D9E7884A136823F480731360FFF722FC3D
:100D18000646844B1B6813F4806FCCD0FFF71AFC8F
:100D2800801B0228F5D9032075E17E4AD2F8943059
:100D380023F00103C2F89430FFF70CFC0646794B08
:100D4800D3F8943013F0020F06D0FFF703FC801B92
:100D58000228F4D903205EE1236813F0040F7AD047
:100D6800704B9B6D13F0805F36D16E4B9A6D42F0DD
:100D780080529A659B6D03F080530193019B012675
:100D8800694B1B6813F4807F28D0A368012B39D0E6
:100D9800052B3FD0634BD3F8902022F00102C3F813
:100DA8009020D3F8902022F00402C3F89020A36882
:100DB800002B3DD0FFF7CEFB07465A4BD3F89030B7
:100DC80013F0020F46D1FFF7C5FBC01B41F2883371
:100DD8009842F2D903201EE10026D1E7524A13684F
:100DE80043F480731360FFF7B5FB07464E4B1B684F
:100DF80013F4807FC9D1FFF7ADFBC01B0228F5D9DA
:100E0800032008E1474AD2F8903043F00103C2F8C2
:100E18009030CCE7434BD3F8902042F00402C3F85B
:100E28009020D3F8902042F00102C3F89020BEE74A
:100E3800FFF790FB07463B4BD3F8903013F0020FB7
:100E480008D0FFF787FBC01B41F288339842F2D9DC
:100E58000320E0E0EEB9A36A002B00F0DB80022B50
:100E68001DD00C2D00F0DD802E4A136823F080730E
:100E78001360FFF76FFB04462A4B1B6813F0007FD3
:100E880000F0B780FFF766FB001B0228F4D90320A7
:100E9800C1E0244A936D23F080539365DBE7214B2F
:100EA800DB6803F00301E26A91420FD00C2D00F0D9
:100EB800B4801C4B1B6813F0806F40F0B080194B56
:100EC8001B6813F0805F31D00120A4E003F07002AA
:100ED800216B0139B2EB011FE8D103F4FE42616BCB
:100EE800B2EB012FE2D103F40031A26B073A18BF2D
:100EF80001229142DAD103F4C001E26B5208013AAF
:100F0800B1EB425FD2D103F0C063226C5208013AC0
:100F1800B3EB426FCAD1034B1B6813F0007F4ED06E
:100F2800002078E000100240007000403E4A13683C
:100F380023F080731360FFF70DFB05463A4B1B68DF
:100F480013F0007F06D0FFF705FB401B0228F5D9F8
:100F5800032060E0344AD36834491940E36A206BBF
:100F6800013843EA0013606B43EA0023E06B400852
:100F7800013843EA4053206C4008013843EA406393
:100F8800A06B000943EA40430B43D360136843F066
:100F980080731360D36843F08073D360FFF7DAFA85
:100FA8000446214B1B6813F0007F06D1FFF7D2FAE5
:100FB800001B0228F5D903202DE000202BE01A4B56
:100FC8001A6842F080721A60DA6842F08072DA6059
:100FD800FFF7C0FA0446144B1B6813F0007F06D1D4
:100FE800FFF7B8FA031B022BF5D9032013E0002002
:100FF80011E00D4AD1680E4B0B40D36000200AE087
:1010080001207047012006E0012004E0012002E0F1
:10101800012000E0002003B0F0BD0120FBE7012023
:10102800F9E70120F7E700BF001002408C809DF926
:10103800FCFFEEFE002800F0AF8070B50D460446B8
:10104800594B1B6803F007038B420BD2564A1368AF
:1010580023F007030B431360136803F007038B4265
:1010680040F09C80236813F0020F0CD0A2684F4B0D
:101078009B6803F0F0039A4205D94C498B6823F02A
:10108800F0031A438A60236813F0010F39D06368AC
:10109800032B09D0022B26D063BB444A126812F0F6
:1010A800020F06D1012076E0404A126812F0007F54
:1010B80076D03E498A6822F0030213438B60FFF71B
:1010C80049FA0646394B9B6803F00C036268B3EB98
:1010D800820F16D0FFF73EFA801B41F28833984200
:1010E800F0D9032057E0314A126812F4003FE0D1EA
:1010F800012050E02D4A126812F4806FD9D10120E6
:1011080049E0236813F0020F0CD0A268274B9B68B4
:1011180003F0F0039A4205D224498B6823F0F003C8
:101128001A438A60204B1B6803F00703AB420AD9B5
:101138001D4A136823F007032B431360136803F059
:101148000703AB422ED1236813F0040F06D0174AC9
:10115800936823F4E063E1680B439360236813F01A
:10116800080F07D0114A936823F46053216943EAB2
:10117800C1039360FFF7F6FB0C4B9B68C3F30313A3
:101188000B4AD35C03F01F03D8400A4B18600A4B84
:101198001868FFF795F970BD012070470120FAE73C
:1011A8000120F8E70120F6E7002002400010024085
:1011B80088140008000000200800002000286AD0D9
:1011C80010B50446436A33B94368B3F5827F05D046
:1011D8000023C36102E00023036143610023A3628B
:1011E80094F85D30002B4DD0022384F85D302268DE
:1011F800136823F040031360E368B3F5E06F47D941
:101208000022B3F5706F04D0B3F5E06F01D000236E
:10121800A362636803F48273A16801F404410B4379
:10122800216901F002010B43616901F001010B43DF
:10123800A16901F400710B43E16901F038010B4326
:10124800216A01F080010B43A16A01F40051206872
:101258000B430360638B03F00403616A01F0100120
:101268000B43616B01F008010B43E16801F4706105
:101278000B43216813434B6000202066012384F848
:101288005D3010BD84F85C302046FFF795F8ABE779
:101298004FF48052B5E701207047000070B50D4E3D
:1012A8000D4D761BB61006D0002455F8043B0134CA
:1012B8009847A642F9D1094E094D761B00F0D4F89B
:1012C800B61006D0002455F8043B01349847A642CE
:1012D800F9D170BDCC140008CC140008D41400084F
:1012E800CC140008830730B548D0541E002A3FD0DC
:1012F800CAB2034601E0013C3AD303F8012B9D072B
:10130800F9D1032C2DD9CDB245EA05250F2C45EA94
:10131800054536D9A4F1100222F00F0C03F1200E76
:10132800E6444FEA121C03F1100242E9045542E96F
:10133800025510327245F8D10CF1010214F00C0F6D
:1013480003EB021204F00F0C13D0ACF1040323F0EA
:1013580003030433134442F8045B9342FBD10CF0BB
:1013680003042CB1CAB21C4403F8012B9C42FBD1E4
:1013780030BD64461346002CF4D1F9E70346144601
:10138800BFE71A46A446E0E7024B13B1024800F053
:1013980005B8704700000000B1130008002301469B
:1013A8001A46184600F01AB838B5084B084D5B1BAA
:1013B8009C1007D0043B1D44013C55F8043998475C
:1013C800002CF9D1BDE8384000F054B8D814000812
:1013D800D4140008704700BF704700BF2DE9F047DC
:1013E800DFF87CA00646DAF8000098460F469146DA
:1013F800FFF7F0FF1B4B1B68D3F8484124B365681F
:101408001F2D26DC5EB96B1C0235DAF8000063601C
:1014180044F82570FFF7E0FF0020BDE8F08704EBF3
:1014280085010123C1F88890D4F88821AB401A437C
:10143800022EC4F88821C1F80881E4D1D4F88C219F
:101448001343C4F88C31DEE703F5A674C3F84841AA
:10145800D5E7DAF80000FFF7BFFF4FF0FF30DCE711
:1014680038040020C8140008F8B500BFF8BC08BC50
:101478009E467047F8B500BFF8BC08BC9E4670474A
:10148800000000000000000001020304060708092C
:10149800A0860100400D0300801A060000350C00EC
:1014A80040420F0080841E0000093D0000127A00AF
:1014B8000024F40000366E010048E801006CDC02EC
:0414C80010000020F0
:0814CC0091130008AD010008B6
:0414D4008901000882
:1014D80000093D00010000001000000000000000AD
:1014E80000000000FC02002064030020CC03002060
:1014F80000000000000000000000000000000000E4
:1015080000000000000000000000000000000000D3
:1015180000000000000000000000000000000000C3
:1015280000000000000000000000000000000000B3
:1015380000000000000000000000000000000000A3
:101548000000000000000000000000000000000093
:101558000000000000000000000000000000000083
:101568000000000000000000000000000000000073
:101578000000000000000000000000000000000063
:101588000000000000000000010000000000000052
:101598000E33CDAB34126DE6ECDE05000B00000017
:1015A8000000000000000000000000000000000033
:1015B8000000000000000000000000000000000023
:1015C8000000000000000000000000000000000013
:1015D8000000000000000000000000000000000003
:0C1908000000000000000000C0040020EF
:040000050800047576
:00000001FF
