:020000040800F2
:1000000000800120D1270308B5270308B72703087C
:10001000B9270308BB270308BD2703080000000019
:10002000000000000000000000000000BF270308DF
:10003000C127030800000000C3270308C5270308E1
:100040002128030821280308212803082128030860
:100050002128030821280308212803082128030850
:100060002128030821280308212803082128030840
:100070002128030821280308212803082128030830
:100080002128030821280308212803082128030820
:100090002128030821280308212803082128030810
:1000A0002128030821280308212803082128030800
:1000B00021280308212803082128030821280308F0
:1000C00021280308212803082128030821280308E0
:1000D00021280308212803082128030821280308D0
:1000E00021280308212803082128030821280308C0
:1000F00021280308212803082128030821280308B0
:10010000212803082128030821280308212803089F
:10011000212803082128030821280308212803088F
:10012000212803082128030821280308212803087F
:10013000212803082128030821280308212803086F
:10014000212803082128030821280308212803085F
:10015000212803082128030821280308212803084F
:10016000212803082128030821280308212803083F
:100170002128030821280308212803080000000083
:080180002128030821280308CF
:1001880010B5054C237833B9044B13B10448AFF3C9
:1001980000800123237010BD8C04002000000000A3
:1001A800183F030808B5034B1BB103490348AFF3D5
:1001B800008008BD0000000090040020183F0308DC
:1001C8007BB972B90029BEBF00204FF0004106E09C
:1001D80008BF00281CBF6FF000414FF0FF3000F04F
:1001E800BFB9ADF1080C6DE904CE002909DB002B7D
:1001F8001ADB00F04DF8DDF804E0DDE9022304B075
:100208007047404261EB4101002B1BDB00F040F8D6
:10021800DDF804E0DDE9022304B0404261EB41016E
:10022800524263EB43037047524263EB430300F0CF
:100238002FF8DDF804E0DDE9022304B0404261EB69
:1002480041017047524263EB430300F021F8DDF8A7
:1002580004E0DDE9022304B0524263EB4303704734
:1002680053B94AB9002908BF00281CBF4FF0FF3115
:100278004FF0FF3000F074B9ADF1080C6DE904CE11
:1002880000F006F8DDF804E0DDE9022304B0704769
:100298002DE9F047089E0D4604468846002B4DD1AF
:1002A8008A42944668D9B2FA82F252B101FA02F34C
:1002B800C2F1200120FA01F10CFA02FC41EA03081C
:1002C80094404FEA1C45210CB8FBF5FE1FFA8CF749
:1002D80005FB1E8341EA03430EFB07F199420BD944
:1002E8001CEB03030EF1FF3080F01E81994240F2AF
:1002F8001B81AEF1020E63445B1AA4B2B3FBF5F0A6
:1003080005FB103344EA034400FB07F7A7420AD968
:100318001CEB040400F1FF3380F00881A74240F28F
:10032800058164440238E41B40EA0E4000211EB1F6
:10033800D4400023C6E90043BDE8F0878B4208D9C2
:10034800002E00F0EE800021C6E900050846BDE851
:10035800F087B3FA83F100294AD1AB4202D3824233
:1003680000F2F980841A65EB030301209846002EF9
:10037800E2D0C6E90048DFE702B9FFDEB2FA82F24E
:10038800002A40F09180A1EB0C054FEA1C471FFAA8
:100398008CFE0121B5FBF7F307FB1350250C45EA4A
:1003A80000450EFB03F0A84208D91CEB050503F134
:1003B800FF3802D2A84200F2CB8043462D1AA4B2DD
:1003C800B5FBF7F007FB105544EA05440EFB00FEA9
:1003D800A64508D91CEB040400F1FF3502D2A64556
:1003E80000F2BB802846A4EB0E0440EA03409EE7D7
:1003F800C1F120078B4022FA07FC4CEA030C20FAD3
:1004080007F405FA01F31C43FD404FEA1C4900FAC2
:1004180001F3B5FBF9F8200C1FFA8CFE09FB1855FF
:1004280040EA054508FB0EF0A84202FA01F20BD992
:100438001CEB050508F1FF3A80F08880A84240F2DD
:100448008580A8F1020865442D1AA4B2B5FBF9F01D
:1004580009FB105544EA054500FB0EFEAE4508D9D8
:100468001CEB050500F1FF346CD2AE456AD90238A1
:10047800654440EA0840A0FB0294A5EB0E05A5429E
:10048800C846A64656D353D05EB1B3EB080265EB17
:100498000E0505FA07F722FA01F3CD401F43C6E916
:1004A80000750021BDE8F087C2F1200320FA03F1AE
:1004B8000CFA02FC25FA03F395400D434FEA1C475A
:1004C8001FFA8CFEB3FBF7F107FB11302B0C43EA44
:1004D800004301FB0EF0984204FA02F408D91CEB21
:1004E800030301F1FF382FD298422DD90239634412
:1004F8001B1AADB2B3FBF7F007FB103345EA03450F
:1005080000FB0EF3AB4208D91CEB050500F1FF38E0
:1005180016D2AB4214D902386544ED1A40EA0141BB
:1005280038E73146304607E78646E5E61846FAE6F4
:100538004B45A9D2B9EB020864EB0C0E0138A3E7CE
:100548004046EAE7204694E74146D1E7D0467BE7B4
:10055800023B654432E7084609E76444023842E74B
:10056800704700BF844641EA000313F003036DD1CE
:10057800403A41D351F8043B40F8043B51F8043B5E
:1005880040F8043B51F8043B40F8043B51F8043B65
:1005980040F8043B51F8043B40F8043B51F8043B55
:1005A80040F8043B51F8043B40F8043B51F8043B45
:1005B80040F8043B51F8043B40F8043B51F8043B35
:1005C80040F8043B51F8043B40F8043B51F8043B25
:1005D80040F8043B51F8043B40F8043B51F8043B15
:1005E80040F8043B51F8043B40F8043B51F8043B05
:1005F80040F8043B403ABDD2303211D351F8043BA5
:1006080040F8043B51F8043B40F8043B51F8043BE4
:1006180040F8043B51F8043B40F8043B103AEDD253
:100628000C3205D351F8043B40F8043B043AF9D2A4
:10063800043208D0D2071CBF11F8013B00F8013B77
:1006480001D30B8803806046704700BF082A13D384
:100658008B078DD010F003038AD0C3F10403D21A9C
:10066800DB071CBF11F8013B00F8013B80D331F8D0
:10067800023B20F8023B7BE7043AD9D3013A11F850
:10068800013B00F8013BF9D20B7803704B784370BB
:100698008B7883706046704710B582B004468C46EC
:1006A80000928B890A898988BCF8000031F012FF12
:1006B800204607F000FC02B010BD08B531F03CFF41
:1006C80008BD000010B582B0FFF7F7FF4FF4F071D6
:1006D8004FF4A07007F040FC0446064907F070FB91
:1006E800002200924FF4C8530349204607F080FBCC
:1006F80002B010BDA1060008A804002070B5054688
:1007080000201AF0FDF80446002603E020461AF0FF
:10071800F7F8044664B120461AF006F9012806D015
:1007280020461AF00BF98542F0D12646EEE7264618
:10073800304670BD2DE9F047037F13F0010F6FD1EC
:1007480006468A469146C5684FF001080027E5B17C
:10075800012357B32BB129463046C847054687427F
:1007680069D0002DF3D0286800F020FD10F0800F2C
:10077800EDD12C68ECB10121204600F00AFDC0B98A
:10078800204605F097FF0446F4E7337F13F0080F7F
:1007980001D1002F49D1B8F1000F43D03046D047DE
:1007A80005464FF000084346D3E7002D40D02F46BA
:1007B800D0E72CB10121204600F0EBFC0028C6D17F
:1007C800F368AB423AD08BB11C683046FFF796FF0E
:1007D80002461121204601F0D5FD012802D04FF034
:1007E80000081FE0F368186802F0C6FCF5602C6882
:1007F8003046FFF783FF02461021204601F0C2FD74
:10080800012802D04FF000080CE0F368186802F0E5
:10081800B3FC3369ABB1304698474FF0010801E0AB
:100828004FF000084046BDE8F0874FF00008F9E7B0
:100838004FF00008F6E74FF00008F3E74FF0000824
:10084800F0E74FF00108EDE708B5202101481EF058
:10085800D7FB08BDDC1D0020014B186C704700BF9A
:10086800A81D002060B110B50446064A0649FFF7E6
:1008780061FF63691BB110B901212046984710BD7B
:10088800FEE700BFA5F0010895F0010860B110B5BA
:100898000446064A0649FFF74DFF63691BB110B9C4
:1008A80000212046984710BDFEE700BFADF00108C3
:1008B8009DF0010838B50446037FC3F3C00543F033
:1008C80008030377DBB213F0040F06D1FFF7CAFF62
:1008D800237F65F3C303237738BDFFF7D7FFF7E717
:1008E80070B5064600F06AFC002849D00546C36882
:1008F80013B11B68B34213D0EB6813B11B68B34242
:1009080030D028461EF0C2FB0446002C38D023689D
:10091800B3422AD0214628461EF0C0FB0446F4E71D
:10092800037F13F0010F03D0037F6FF300030377F6
:1009380028461EF0ABFBEB68834203D02846FFF73E
:10094800B9FFD9E728461EF0A5FBEB688342F5D12D
:100958001C682846FFF7D2FE02461121204601F006
:1009680011FDC9E70023EB60CBE7214628461EF0BE
:10097800CFFB204621F0AAFBB3680BB100225A60D6
:1009880070BDF0B170B50C4605460846FFF7A8FFE4
:10099800A3686BB1A3685D6028461EF058FB064645
:1009A80050B1046028461EF071FB864205D070BD28
:1009B800204600F078FEEDE7FEE72846FFF77AFFCD
:1009C800F5E7704718B1C06808B10068704770470C
:1009D800D8B170B50446037FC3F340038B4213D0EC
:1009E800037F61F341030377FFF7ECFF054658B136
:1009F800E3681E682046FFF781FE02461021304654
:100A080001F0C0FC012801D070BDFEE7284602F0C5
:100A1800B3FBF9E718B1007FC0F34000704700202E
:100A2800704730B589B005460C46084609F0FCFA0F
:100A38001D224FF48031284604F000FF0190C0B217
:100A480084F8200002283ED832224FF4803128460C
:100A580004F0F4FE0190C0B284F8480002284CD893
:100A68003E224FF48031284604F0E8FE0190C0B2DF
:100A780084F86C00022867D84FF48031284605F0C6
:100A8800D2F8FC280BD894F8203003FB00F0C0F310
:100A9800072084F8200084F8480084F86C0094F853
:100AA80020302BB994F8483013B994F86C0040B151
:100AB8000C224FF48031284604F0C0FE0190E0611A
:100AC800012009B030BD1C224FF48031284604F0C3
:100AD800B5FE0190ADF80C00030C8DF80E30039BA9
:100AE800ADF808301B0C8DF80A30BDF80820DBB2D1
:100AF800A4F8212084F82330A6E730224FF480316F
:100B0800284604F09BFE01906064002803DC002363
:100B180084F84830A4E731224FF48031284604F0A5
:100B28008DFE0190ADF81400030C8DF81630059B6E
:100B3800ADF810301B0C8DF81230BDF81020DBB268
:100B4800E28784F840308BE73C224FF48031284616
:100B580004F074FE0190E065002803DC002384F8AB
:100B68006C3089E742224FF48031284604F066FE53
:100B78000190A0663D224FF48031284604F05EFEC5
:100B88000190ADF81C00030C8DF81E30079BADF8E2
:100B980018301B0C8DF81A30BDF81820DBB2A4F8F9
:100BA800592084F85B3067E730B5A5B004460D4698
:100BB8001CAA20A903F0CCFF20A81CF033FF18B909
:100BC8001CA81CF02FFF28B169462046FFF729FF13
:100BD800012801D025B030BD20A81CF023FF60B942
:100BE8001CA81CF01FFF0028F4D0012302931CAAA4
:100BF8006946284609F0A3FAECE70023029320AAE5
:100C08006946284609F09BFAEAE7F0B5A1B006461E
:100C18001DF0D9FF054630461DF0D1FF0446172DBB
:100C280007D01A2D00F086801D2D00F0BC8021B061
:100C3800F0BD30461DF0CBFF05460378022BF6D0F9
:100C48002D220021204604F0F9FD049010B1022362
:100C58002B70ECE70C220021204604F0EFFD06463D
:100C6800049068220021204604F0E8FD074604901D
:100C780069220021204604F0E1FD024604906369E0
:100C88000493A3690593E3690693236A0793394696
:100C980004A81CF0D1FE324604A968681DF027FAA2
:100CA80010B901232B70C2E71D220021204604F051
:100CB800C5FD0090C0B2FC2802D801232B70B6E70E
:100CC8005F220021204604F0B9FD0090C0B2FC2844
:100CD80002D801232B70AAE720220021204604F025
:100CE800ADFD009010F0FF0F08D02522002120460E
:100CF80004F0A4FD0090C0B2FC2812D926220021DD
:100D0800204604F09BFD009088B10023827A9A4225
:100D18000DD903EB83020244D278FC2A04D90133AB
:100D2800F4E701232B7082E701232B707FE7002370
:100D38002B707CE7304601F07AFB064604A809F0E0
:100D480073F904AA0021204600F0BBFD35220021DA
:100D5800204604F073FD009028B19DF8593043F007
:100D680020038DF8593068220021204604F066FDE2
:100D78000546009069220021204604F05FFD0246E6
:100D8800009063690093A3690193E3690293236A5E
:100D98000393294668461CF04FFE6A4604A930466C
:100DA80009F0CDF943E7304601F041FB054601461D
:100DB8002046FFF7F9FE35220021204604F03EFDCB
:100DC800049000283FF433AF04A809F02DF9002659
:100DD8008DF830608DF84B608DF868608DF87C6018
:100DE80004AA3146204600F06CFD682231462046B0
:100DF80004F024FD0746009069223146204604F09D
:100E08001DFD0246009063690093A3690193E3699D
:100E18000293236A0393394668461CF00DFE6A461E
:100E280004A9284609F08BF901E72DE9F04182B0C1
:100E38000C464D6805B3284603F00EFA07462846C7
:100E480003F08BF98046AE6910220021284604F091
:100E5800F5FC01900644A6EB0803A361013B23625D
:100E68006E6912220021284604F0E8FC019006442D
:100E7800F01B60610138E0610223636241F2020302
:100E8800636215B143F2020363621DB1636A43F4FE
:100E980040736362636A43F00402626243F01402BF
:100EA800626243F03402626243F07403636243F4A3
:100EB8000063636215B143F40043636202B0BDE8A6
:100EC800F0812DE9F04F89B00C460391018D059111
:100ED800A14206D00646224604F06BFD049018B9DC
:100EE800348509B0BDE8F08F304602F045F9039B20
:100EF8003385304604F0D5FE4FF4207021F0D4F845
:100F080005464FF0000C644618E0D3F800E00023D3
:100F18000EEBC3081EF8332062B1662A01D00133F4
:100F2800F6E7D8F804300793012203E059F8233094
:100F380007930122012A30D00CF1010C738DC3F301
:100F48000513634574D91F2C6CD8F3684FEACC0E8F
:100F580003EBCC07796888B201F47F01039A30EA81
:100F68000202E9D1FA7912F00202E5D153F80E3003
:100F780093F80880B8F1FF0FC7D0D3F800904FEA74
:100F8800880A00239845D5D909EB0A0E1EF803E014
:100F9800BEF1660FCAD00133F4E7DDF81C804FF0CC
:100FA800000E17E0013294420FD902EB820305EBE1
:100FB800830359681FFA81F901F47F011B7A5345AD
:100FC800F0D15945EED18145ECD3594694420DD024
:100FD8000EF1010ED8F8003013F80EA0BAF1000F88
:100FE800AAD01F2CA8D800228B46DCE7D8F80C30F2
:100FF80004EB840905EB890225F82930D8F810306C
:101008005380D8F80830D360D8F8003013F80E3081
:101018001372D8F8043013617B68C3F31703536065
:101028000134D5E70027DDF81480DDF80C9004E0E2
:101038000027DDF81480DDF80C90BC420ED907EBD0
:10104800870305EB8303596800934B46424601F436
:101058007F01304605F0CAF80137EEE7284621F04F
:1010680035F8049B012B0DD0049B032B11D0049B56
:10107800022B7FF436AF304602F07EF8304601F09E
:1010880092F82EE7FF224FF47021304604F024FE38
:1010980027E7FF224FF47021304604F01DFE20E7B9
:1010A80010B50146044800F041FB20B1044600F0A9
:1010B800CDFB204610BDFEE7603F030870B588B041
:1010C80004460D4601F002FB064615F0100F15D137
:1010D800636A23EA0503636215F0010F1CD12046F9
:1010E80001F0F4FAB04202D115F0C07F04D02046D6
:1010F80005F0E0FA01F008FB08B070BD04AA6946E3
:10110800204603F025FD6946204602F007F804A9A9
:10111800204602F003F8DBE7204602F02DF82046CF
:1011280001F0D4FA0028DAD0204605F0C3FA01F01D
:10113800EBFA204601F0E8FAD1E738B5038D43EA27
:10114800010531EA030209D0044625EA030313F036
:10115800800F04D129462046FFF7B3FE38BD01466B
:10116800002019F0AFFCF5E708B5028DB0F928307A
:1011780023EA010189B28A4200D108BDFFF7A1FE26
:10118800FBE708B512B1FFF7D8FF08BDFFF7ECFF82
:10119800FBE7436A31EA03030CBF012000207047D4
:1011A800436A0B4214BF012000207047008D70472E
:1011B800038D0B4214BF012000207047806800B1E6
:1011C80040687047F0B589B00E4608461DF0FBFC34
:1011D800044630461DF0F3FC0546012C34D0082C9B
:1011E80037D0032C5AD02F2C5CD00E2C69D0102C61
:1011F80000F02B81092C00F059810B2C00F05A814A
:10120800112C00F06E812E2C00F06F81272C00F03D
:101218008E81292C00F0B381182C00F0B9811A2C8A
:1012280000F0BE811D2C00F0BB81172C00F0B881A6
:10123800142C00F0B981152C00F0BE81162C06D1B3
:101248001021FFF791FF02E02021FFF776FF09B098
:10125800F0BD2021FFF788FF30461DF0B8FC19F0DB
:1012680097FB0028F3D108212846FFF792FF0028B2
:10127800EDD02846FFF79AFF10F0010F09D10121A0
:101288002846FFF75AFF00222021284601F07AF865
:10129800DDE701212846FFF767FFF4E72021FFF784
:1012A80063FFD4E705F075FA0646002406E0AB684C
:1012B8001B6853F8240001F027FA0134B442F6D32E
:1012C800C5E70821FFF765FFD8BB4FF40161284641
:1012D800FFF75FFF0028BAD0284600F08DFA0028F3
:1012E800B5D1284602F0B8FF0746284603F042F871
:1012F8000446304601F0ADF8122840D0112850D0ED
:10130800132860D01428A2D1284602F0FEFE10F05F
:10131800030F00F08680002F02DC002C40F3818050
:10132800284602F00CFF0446284601F08DFA011EFB
:10133800C0F289800022A4EBA101284603F004FA38
:1013480085E7304601F085F8044613280AD01128AD
:1013580008D0142801D0122808D101212846FFF707
:1013680003FF03E001212846FFF7E7FE0A2C3FF4BC
:101378006EAF00222021284601F004F867E72846CE
:1013880002F0E4FE0446284601F063FA011E06DB7B
:10139800002204EBA101284603F0EAF957E70331DC
:1013A800F6E7284602F0D2FE0446284601F051FA34
:1013B800011E06DB0022A4EBA101284603F0D8F9A0
:1013C80045E70331F6E7284602F09FFE10F0030FC9
:1013D80013D0002F01DC002C0FDD284602F0AFFEF1
:1013E8000446284601F030FA011E18DB002204EBFF
:1013F800A101284603F0A8F929E7284602F0A6FE2D
:101408000446284601F025FA011E06DB002204EBFB
:10141800A101284603F0ACF919E70331F6E70331D7
:10142800E4E7284602F092FE0446284601F011FA45
:10143800011E06DB0022A4EBA101284603F098F95F
:1014480005E70331F6E7033174E74FF48061FFF7EE
:10145800A0FEB0B92846FFF7B1FEFFF7DBFA044655
:1014680019F05CFA90B119F05FFA022812D004283A
:1014780012D0022194B141F008012846FFF75DFE21
:10148800E5E60121284603F045FBE3E7304600F096
:10149800B1FFE8E70621EDE70621EBE72846FFF76D
:1014A8004CFE08212846FFF75FFED0E64021FFF7F3
:1014B80044FECCE64021FFF757FE284602F01CFE0A
:1014C80002287FF4C4AE04AA6946284603F040FB0C
:1014D8006946284601F022FE04A9284601F01EFEAE
:1014E800B5E60E21FFF740FEB1E60A22002104F01E
:1014F800A5F90490C4B216220021284604F09EF9EA
:10150800049080B200B914B1284601F0FDF82846CD
:1015180005F03FF90646002406E0AB681B6853F85F
:10152800240001F0F1F80134B442F6D38FE6012229
:10153800002104F083F90446049002220021284681
:1015480004F07CF9064604900A220021284604F09B
:1015580075F90490C7B216220021284604F06EF9E6
:10156800049083B23BB937B96FF040439C4202D034
:101578009E427FF46CAE284601F0C6F867E690F804
:101588002A3043F0020380F82A3001F0BDF85EE605
:10159800002100F092FD0146304600F074FF56E647
:1015A8003046FFF732FB52E62021FFF7DDFD4021F0
:1015B8002846FFF7D9FD4AE61021FFF7BEFD46E6AB
:1015C80010B50C4608461DF007FB002004F030F962
:1015D800204604F093FC012004F02AF9002120465B
:1015E8001CF02CF92046FFF7E9FD10B12046FFF763
:1015F80077F9A3687BB1186820B120F067FDA3686C
:1016080000221A60A06808301DF0C1FAA06820F016
:101618005DFD0023A36010BDF0B589B004460D46FA
:1016280001F054F8064615F001072AD1636A2B43E6
:1016380063628FB102212046FFF7BAFD60B12046F0
:10164800FFF7BCFD074638B1FFF70CF93846FFF73E
:10165800B9F908B101F090FD204601F037F8B04221
:1016680002D115F0C07F07D0204605F023F801F01D
:101678004BF8204601F048F815F0100F05D109B0D5
:10168800F0BD204601F078FDD0E704AA694620465F
:1016980003F05EFA6946204601F040FD04A92046A1
:1016A80001F03CFDEBE7836803B1704710B50446D1
:1016B8002C2020F0F9FCA06058B1438D43F47073DE
:1016C8004385A26892F82A3043F0030382F82A304F
:1016D80010BDFEE728B10068884214BF0020012031
:1016E80070470020704770B505460C460E68336891
:1016F8001BB10B60FFF7F7FF266023685B6813B127
:1017080021462846984770BD00E0006820B1026A6B
:10171800054B1340002BF8D018B1006AC0F30F1026
:1017280070470020704700BFF0FF0F0070B50646F5
:101738000C46FFF7E9FF20F0B7FC0546C0B106608C
:101748004460BCB1A368002B43D0A268138D013359
:101758001385A668318D8900306820F0C1FC30609F
:10176800A3681A681B8D03F18043013B42F823509C
:10177800284670BD06F0BEFA044600B3D0F8B4029D
:1017880010B3D4F8D0120131890020F0A9FCF8B1C7
:10179800D4F8D022511CC4F8D012C4F8B40240F8CE
:1017A800225000246C61AC61204606F0B7FA01387B
:1017B800E861204606F0C8FA01382862D8E72846CA
:1017C80020F084FC2546D3E70023C4F8D032D8E7BC
:1017D800FEE72046FFF767FFB7E710B50446006845
:1017E80083680BB12146984723681B681BB12360A7
:1017F8002046FFF7F2FF10BD036800E01B6823B125
:1018080093F8202012F0030FF8D043B193F820008A
:1018180000F00300012814BF0020012070470020B9
:101828007047036800E01B6823B193F8202012F08A
:101838000C0FF8D043B193F8200000F00C000428F6
:1018480014BF00200120704700207047C0B338B58E
:10185800044600F059FF002003F0EAFF204623F079
:1018680025FD21462068FFF73EFF012003F0E0FF39
:10187800FF224FF47021204604F02EFA204601F092
:10188800E9FAFEF7E9FF054618B12046FFF7C9FF58
:1018980088B9204604F00EFF054658B12246272194
:1018A80000F070FD22462821284600F06BFD2046F6
:1018B80001F062FC38BD21462846FFF762F8E8E7E8
:1018C8007047F0B59BB007460D461446106051604E
:1018D80004F0A9F906460DB1022845D90C2229467B
:1018E800384603F0ABFF0190E06194F82030002BFC
:1018F80046D194F84830002B40F0E98094F85830ED
:10190800002B40F0248194F83B30002B40F05B81A1
:1019180094F86C30002B40F0C581FC2E22D894F846
:10192800203006FB03F31B1284F8203094F83B3078
:1019380006FB03F31B1284F83B3094F8483006FB8F
:1019480003F31B1284F8483094F86C3006FB03F359
:101958001B1284F86C3094F8580000FB06F6361217
:1019680084F858601BB0F0BD002384F8203084F858
:101978003B3084F8483084F8583084F86C30F1E70C
:101988001D222946384603F059FF0190C0B284F859
:1019980020000228ADD91C222946384603F04EFF04
:1019A800024604902946384603F0D7FF0190ADF867
:1019B8000C00030C8DF80E30039BADF808301B0C9F
:1019C8008DF80A30BDF80820DBB2A4F8212084F88D
:1019D800233026222946384603F030FF019018B1FB
:1019E800C37A13F0070F6BD120222946384603F03B
:1019F80025FF019094F82F3060F3020384F82F300C
:101A0800DBB213F0070F3FF474AF1C2229463846A7
:101A180003F014FF02460A902946384603F09DFF5A
:101A28000190ADF82400030C8DF82630099BADF821
:101A380020301B0C8DF82230089BA3841B0C84F8E3
:101A4800263023222946384603F0F8FE024607903E
:101A58002946384603F081FF0190ADF81800030CC1
:101A68008DF81A30069BADF814301B0C8DF8163023
:101A7800BDF81420DBB2A4F8292084F82B302122E9
:101A88002946384603F0DAFE019084F8280022221D
:101A98002946384603F0D2FE019084F82D0024220E
:101AA8002946384603F0CAFE019084F8270025220B
:101AB8002946384603F0C2FE019084F82C0018E746
:101AC8000C22014604F124001FF040FE11E73022E9
:101AD8002946384603F0B2FE0190606400283FF4BE
:101AE8000DAF32222946384603F0A8FE0190C0B255
:101AF80084F8480002287FF601AF34222946384688
:101B080003F09CFE019094F8493060F3040384F8D4
:101B1800493031222946384603F090FE02460D909E
:101B28002946384603F019FF0190ADF83000030C40
:101B38008DF832300C9BADF82C301B0C8DF82E3004
:101B4800BDF82C20DBB2E28784F84030D6E6382294
:101B58002946384603F072FE0190206500283FF4BC
:101B6800D2AE3A222946384603F068FE0190C0B248
:101B780084F8580002287FF6C6AE3B22294638462C
:101B880003F05CFE0190606539222946384603F06F
:101B980055FE024610902946384603F0DEFE0190B5
:101BA800ADF83C00030C8DF83E300F9BADF8383093
:101BB8001B0C8DF83A30BDF83820DBB2A4F84A2067
:101BC80084F84C309FE628222946384603F036FE32
:101BD8000190206300283FF49BAE2922294638460D
:101BE80003F02CFE0190C0B284F83B0002287FF677
:101BF8008FAE206B07F01EFC02282FD02A22294620
:101C0800384603F01BFE024616902946384603F074
:101C1800A4FE0190ADF85400030C8DF85630159BC6
:101C2800ADF850301B0C8DF85230149B23871B0CD9
:101C380084F83A302B222946384603F0FFFD0190FC
:101C480084F83C002C222946384603F0F7FD019021
:101C5800003818BF012084F83D0059E65A22294669
:101C6800384603F0EBFD0190606358222946384658
:101C780003F0E4FD024613902946384603F06DFE52
:101C88000190ADF84800030C8DF84A30129BADF86E
:101C980044301B0C8DF84630119B23871B0C84F8AD
:101CA8003A3035E63C222946384603F0C7FD019014
:101CB800E06500283FF431AE94F86C30022B7FF6D3
:101CC8002CAE3E222946384603F0B8FD0190C3B237
:101CD80084F86C30022B7FF620AE40222946384625
:101CE80003F0ACFD0190206641222946384603F0F6
:101CF800A5FD0190606642222946384603F09EFD04
:101D08000190A0663D222946384603F097FD024619
:101D180019902946384603F020FE0190ADF860007E
:101D2800030C8DF86230189BADF85C301B0C8DF8F5
:101D38005E30BDF85C20DBB2A4F8592084F85B3033
:101D4800EBE570B584B006460D4614461060516048
:101D5800592203F073FD0090C3B284F84830022B77
:101D680001D804B070BD2946304603F05CFFFC285A
:101D780006D894F8483003FB00F0001284F84800B5
:101D880094F84830022BECD958222946304603F003
:101D980055FD024603902946304603F0DEFD0090CB
:101DA800ADF80800030C8DF80A30029BADF804303A
:101DB8001B0C8DF80630019BA3851B0C84F82E3074
:101DC8005B222946304603F039FD0090E0635C222F
:101DD8002946304603F032FD0090A0635D22294673
:101DE800304603F02BFD009094F84C3060F302036A
:101DF80084F84C307DB95A222946304603F01EFD3E
:101E0800009020625E222946304603F017FD0090BC
:101E180084F84A00A5E767222946304603F00EFDFC
:101E2800009094F84C3060F3C50384F84C30E2E736
:101E3800F0B585B005460E46144610605160442240
:101E480003F0FCFC0090C3B284F84C30022B01D89C
:101E580005B0F0BD3146284603F0E5FEFC2806D85B
:101E680094F84C3003FB00F0001284F84C0094F80E
:101E78004C30022BECD90023E3624FF480732363C8
:101E8800636305F1140738461BF03FFF00EBD07081
:101E98004010206438461BF03DFF00EBD070401026
:101EA800606446223146284603F0C8FC009084F856
:101EB8004B0045223146284603F0C0FC02460390F9
:101EC8003146284603F049FD0090ADF80800030CA0
:101ED8008DF80A30029BADF804301B0C8DF80630E3
:101EE800019BA4F848301B0C84F84A30002EAFD070
:101EF80067223146284603F0A1FC009094F84D3043
:101F080060F3030384F84D30A2E770B584B0064649
:101F18000D461446106051604D2203F08FFC00906E
:101F2800C3B284F83C30022B01D804B070BD2946F6
:101F3800304603F078FEFC2806D894F83C3003FBC2
:101F480000F0001284F83C0094F83C30022BECD9E5
:101F580048222946304603F071FC0090206300288F
:101F6800E3D04C222946304603F068FC0246039031
:101F78002946304603F0F1FC0090ADF80800030C48
:101F88008DF80A30029BADF804301B0C8DF8063032
:101F9800019BA3851B0C84F82E3049222946304624
:101FA80003F04CFC0090606310BB4B22294630467E
:101FB80003F044FC0090003818BF012094F83D302D
:101FC80060F3820384F83D30DBB260F3C30384F826
:101FD8003D30002DA9D067222946304603F02EFC5B
:101FE800009094F83D3060F3010384F83D309CE79D
:101FF8004A222946304603F021FC0090A063D4E72A
:1020080070B584B005460E461446106051605022E3
:1020180003F014FC0090206208B904B070BD53228C
:102028003146284603F00AFC0090C0B284F83C0010
:102038000228F2D93146284603F0F5FDFC2806D8D7
:1020480094F83C3003FB00F0001284F83C0094F84C
:102058003C30022BE1D952223146284603F0EEFBF0
:10206800024603903146284603F077FC0090ADF80D
:102078000800030C8DF80A30029BADF804301B0CE5
:102088008DF80630019BA3831B0CA377542231469D
:10209800284603F0D3FB0090A0635122314628461E
:1020A80003F0CCFB0090003818BF012094F83D30B5
:1020B80060F3000384F83D30AFE72DE9F04182B0CA
:1020C80006460F463C2203F0B9FB01908046F8B95A
:1020D80038223946304603F0B1FB05460190002806
:1020E80047D168223946304603F0A8FB04460190E0
:1020F80069223946304603F0A1FB0190A042B8BFDF
:102108002046002800DD8044404602B0BDE8F0814A
:102118003E223946304603F091FB0190C0B20228B6
:1021280002D84FF00008D3E708EBD87464100134E4
:1021380042223946304603F081FB01900444402294
:102148003946304603F07AFB05460190412239466C
:10215800304603F073FB01900028B8BF4042002DC1
:10216800B8BF6D42A842ACBF2418641924EAE478C9
:10217800AEE73A223946304603F060FB0190C0B220
:102188000228AED93B223946304603F057FB01906E
:102198000544A845B8BFA846A3E783680BB1586AA9
:1021A80070470020704730B583B00446FFF7F5FF4D
:1021B80005460023019301AA1821204600F0E2F801
:1021C800A36833B1019A5A62019BAB420BD103B0A9
:1021D80030BD019B002BF7D02046FFF764FAA368B7
:1021E800019A5A62F0E7204600F0C6FFEFE78368DD
:1021F80023B193F82B00C0F381007047002070478B
:10220800037E13F0040F55D110B504460389283B0B
:10221800012B01D8012010BD4FF480410068FEF762
:10222800B8FF0028F7D02389133B1E2BF3D801A24F
:1022380052F823F0B92200081F2200081F220008C4
:102248001F220008B9220008B9220008B922000894
:10225800B9220008B9220008B9220008B9220008EA
:10226800B9220008B92200081F2200081F2200080E
:10227800B92200081F2200081F2200081F22000898
:10228800B9220008B9220008B9220008B9220008BA
:102298001F2200081F2200081F2200081F22000812
:1022A800B9220008B92200081F220008B922000834
:1022B8000020B0E70020704710B50C4608B1006850
:1022C80003E00B68186800E0006810B1C368002BD1
:1022D800FAD060B1C36863B10023E360C3682146E4
:1022E8009847237E13F0010F05D1012010BD01206E
:1022F800FCE70120FAE70020F8E770B5044618F07B
:102308000DFB30B1237E13F0020538D113F0010F15
:1023180036D123689E6806B1083601222146304628
:102328001CF0DAFB054601282AD1237E13F0020FA0
:1023380026D121460020FFF7BFFF054601281FD1FF
:10234800237E13F0020F1BD10022214630461CF0D9
:10235800C3FB0546012813D1237E13F0020F0FD1CA
:10236800206804F0A7F9064650B12046FFF748FF59
:1023780030B126602046FFF7C0FF054600E0012582
:10238800284670BD10B588B018B301900290ADF81A
:102398000C100023049305929DF81C2063F300029F
:1023A8008DF81C20D2B263F382028DF81C20D2B2C1
:1023B80063F341028DF81C2001A81CF07FFB01A8E3
:1023C800FFF79BFF044601A81CF080FB204608B0DD
:1023D80010BD0124FAE7F8B507460C4615461E4617
:1023E800FFF761F9B86833462A46214608301CF0E1
:1023F800ADFBF8BD08B503895A1E92B2082A11D957
:102408000B2B0FD00C2B0DD00D2B0BD00E2B09D076
:10241800102B07D0112B05D0122B03D0152B01D070
:10242800162B02D11CF0D3FB08BD0020FCE708B531
:102438000289A2F119039BB2022B05D91D2A03D0E8
:102448001C2A01D01E2A02D11CF0C1FB08BD0020A5
:10245800FCE708B503890E2B01D0002008BD1CF04D
:10246800B6FB08B10068F9E70020F7E708B503896B
:102478000F2B01D0002008BD1CF0A9FB08B1006893
:10248800F9E70020F7E70389182B00D0704710B54B
:102498000C461CF09CFB0168A142B8BF21460160B4
:1024A80010BD00002DE9F04F8BB00446059192460F
:1024B8001F466E22002103F0C1F98046079083462B
:1024C8006C220021204603F0B9F90546079001283F
:1024D800B8BF01256D220021204603F0AFF906465A
:1024E80007900128B8BF0126B8F1000F02D1B5F551
:1024F800807F3BD06F220021204603F09FF9079090
:10250800089070220021204603F098F9079009905E
:10251800089B03F0C042B2F1005F2BD0099B03F087
:10252800C042B2F1005F42D06369089A134408932D
:10253800A369099A134409934FB1C8F1000B4FF6E8
:10254800FF73EA1892FBF5F5334493FBF6F687F030
:102558000107029708AB019300962B465A4651464D
:1025680005981BF0DFFA0BB0BDE8F08FB6F5807F59
:10257800C0D1F8E723F0C0496FF060439945CDDA40
:10258800B9F1805F05DBC9F17F6909F57F2909F693
:10259800FF7904F114001BF0B8FB09FB00F0124BA3
:1025A80083FB0023C017C0EB63100890B6E723F045
:1025B800C0496FF060439945B6DAB9F1805F05DB31
:1025C800C9F17F6909F57F2909F6FF7904F114003B
:1025D8001BF0A0FB09FB00F0034B83FB0023C01793
:1025E800C0EB631009909FE71F85EB5130B583B0AE
:1025F80005460C46002301AA082103F08DF901289D
:1026080007D020B900222146284603F0C0FF03B0B6
:1026180030BD019BA342F5D1F3E730B583B0054641
:102628000C46002301AA092103F076F9012807D0F6
:1026380020B900222146284603F0B4FF03B030BD7C
:10264800019BA342F5D1F3E738B504461546FFF7D9
:10265800CDFF29462046FFF7E0FF38BD30B583B0EF
:1026680005460C46002301AA012103F055F901286B
:1026780007D020B900222146284603F067FF03B09F
:1026880030BD019BA342F5D1F3E730B583B00546D1
:102698000C46002301AA022103F03EF9012807D0C5
:1026A80020B900222146284603F066FF03B030BD5A
:1026B800019BA342F5D1F3E738B504461546FFF769
:1026C800CDFF29462046FFF7E0FF38BD30B583B07F
:1026D80004460C49FEF764FD18B10025284603B0EE
:1026E80030BD0546204603F0E5FF0028F6D0162247
:1026F800002103F0A3F8019080B20028EED0012554
:10270800ECE700BF0100060008B590F82A2042F067
:10271800010280F82A2003F0D1FF90F82A2042F025
:10272800040280F82A2003F0D1FF0022352105F0A9
:10273800FBFC08BD10B50446002289B203F05EFF19
:102748002046FFF7E1FF10BD70B5044615461E464A
:10275800002203F032FF324629462046FFF774FF75
:1027680070BD43690B6083694B60C3698B60036A02
:10277800CB6070472DE9F04182B0044603F09AFF20
:1027880030B3054664694069241A284601F0D7FC2D
:10279800044412220021284603F050F8064601900E
:1027A800804630220021284603F048F80746019069
:1027B80034220021284603F041F8019010F0040F5C
:1027C80001D006EB0708A4EB080002B0BDE8F081D1
:1027D8006069FAE72DE9F04182B0044603F06AFF28
:1027E80030B30546A4698069241A284601F0AEFC76
:1027F800044410220021284603F020F806460190E0
:10280800804630220021284603F018F80746019038
:1028180034220021284603F011F8019010F0020F2D
:1028280001D006EB0708A4EB080002B0BDE8F08170
:10283800A069FAE700B583B00922002102F0FEFF83
:10284800019003B05DF804FB08B514301BF05DFA85
:1028580008BD08B514301BF05DFA08BD38B505464B
:10286800FFF7B8FF04462846FFF7F3FF204438BDBA
:102878002DE9F04182B004461222002102F0DEFF69
:1028880005460190064630220021204602F0D6FF78
:102898000746019034220021204602F0CFFF019024
:1028A80010F0040F00D0EE1913220021204602F088
:1028B800C5FF05460190804630220021204602F0DF
:1028C800BDFF0746019034220021204602F0B6FFE2
:1028D800019010F0080F01D005EB07082046FFF71C
:1028E800B3FF801BA0EB080002B0BDE8F0812DE922
:1028F800F04182B004461022002102F09FFF0546F5
:102908000190064630220021204602F097FF074634
:10291800019034220021204602F090FF019010F02F
:10292800020F00D0EE1911220021204602F086FF86
:1029380005460190804630220021204602F07EFFA5
:102948000746019034220021204602F077FF0190CB
:1029580010F0010F01D005EB07082046FFF779FFBB
:10296800801BA0EB080002B0BDE8F0812DE9F04122
:1029780082B004460D46FFF7F4FE122200212046DD
:1029880002F05CFF06460190804630220021204676
:1029980002F054FF0746019034220021204602F03D
:1029A8004DFF019010F0040F01D006EB07082B68CB
:1029B80043442B6013220021204602F03FFF0646C5
:1029C8000190804630220021204602F037FF07465A
:1029D800019034220021204602F030FF019010F0CF
:1029E800080F01D006EB0708AB68A3EB0803AB6040
:1029F80010220021204602F021FF06460190804661
:102A080030220021204602F019FF074601903422A7
:102A18000021204602F012FF019010F0020F01D0B1
:102A280006EB07086B6843446B60112200212046BF
:102A380002F004FF0646019080463022002120461D
:102A480002F0FCFE0746019034220021204602F0E5
:102A5800F5FE019010F0010F01D006EB0708EB68B6
:102A6800A3EB0803EB6002B0BDE8F08100B583B0CA
:102A780000230093044B01936A463121FFF782FC3F
:102A8800009803B05DF804FB010000E02DE9F04F69
:102A980085B0044601F053FB0190A3680BB10022F6
:102AA8009A6113220021204602F0C8FE05460390D1
:102AB800834630220021204602F0C0FE06460390DD
:102AC80034220021204602F0B9FE039010F0080FCE
:102AD80001D005EB060B12220021204602F0AEFEC3
:102AE80005460390009030220021204602F0A6FE01
:102AF8000646039034220021204602F09FFE0390F0
:102B080010F0040F01D0AB1900932046FFF7AEFF79
:102B1800009B00EB030ADA44204603F03AFE8146A4
:102B280027220021204602F089FE0390C0B2012826
:102B380059D00025654F7DE00A220021304602F079
:102B48007DFE0390C0B208280CD8DFE800F0050B22
:102B58000B050B0B050B0500E36972699B1A03F162
:102B680001082EE008220021304602F067FE03909B
:102B780010B1DFF8588124E006F114001BF0C5F805
:102B880000EB0B081A220021304602F057FE039092
:102B9800804416E001354D4528D2A3681B6853F8D8
:102BA80025604B493046FEF7FBFA0028F2D1304643
:102BB800FFF78CFD0028BFD0E36972699B1A03F107
:102BC80001081A220021304602F038FE03904044E2
:102BD800B842DFDB1A220021304602F02FFE0390B4
:102BE80008EB0007D6E70025384FD4E7374B9F425C
:102BF8005DD0009B1F445AE00A220021304602F0B3
:102C08001DFE0390C0B207282BD8012303FA00F059
:102C180010F0930F25D0F36962699B1A03F101083C
:102C28001B220021304602F009FE03904044B842BE
:102C380030DA01354D4536D2A3681B6853F8256054
:102C480023493046FEF7ACFA0028F2D13046FFF7A8
:102C58003DFD0028D0D0F36962699B1A03F1010891
:102C6800DEE708220021304602F0E8FD039010B1AB
:102C7800DFF85880D4E706F114001BF046F8009BF3
:102C880000EB03081B220021304602F0D7FD039019
:102C98008044C5E71B220021304602F0CFFD039097
:102CA80008EB0007C5E7094B9F4200D05F44A368C3
:102CB80013B1019A50429861044B9F4202D0BA4521
:102CC800B8BFBA46504605B0BDE8F08F010000E035
:102CD8000100040000B583B0054B00930023019365
:102CE8006A463121FFF74EFB019803B05DF804FBFB
:102CF800010000E02DE9F04F85B0064601F026FA04
:102D08000190B3680BB10022DA611022002130462D
:102D180002F094FD044603900090302200213046D2
:102D280002F08CFD0546039034220021304602F063
:102D380085FD039010F0020F01D063190093112252
:102D48000021304602F07AFD044603908346302283
:102D58000021304602F072FD05460390342200211E
:102D6800304602F06BFD039010F0010F01D004EB28
:102D7800050B3046FFF7AEFF009B00EB030ADA4471
:102D8800304603F006FD81460024DFF8C08016E0D7
:102D98000A220021284602F051FD0390C0B2032800
:102DA80023D82F6AB369FF1A013719220021284650
:102DB80002F044FD0390384440452DDA01344C4577
:102DC80033D2B3681B6853F8245021492846FEF7CC
:102DD800E7F90028F2D12846FFF778FC0028D7D079
:102DE8002F6AB369FF1A0137DFE709220021284655
:102DF80002F024FD039008B1144FD6E705F1140042
:102E08001AF088FF009BC71818220021284602F0F4
:102E180015FD03900744C8E719220021284602F04F
:102E28000DFD039007EB0008C8E7B36813B1019ADA
:102E38005042D861054B984503D0D844C245B8BF25
:102E4800C246504605B0BDE8F08F00BF010000E063
:102E58000100040030B583B005460122002102F0CC
:102E6800EDFC0446019002220021284602F0E6FC0F
:102E780001906FF040439C4201D0984205D128460A
:102E8800FFF742FC012003B030BD0020FBE72DE92D
:102E9800F04782460F461646994603F07AFC80466C
:102EA800002512E063693B446361A3693344A3616D
:102EB800E3693B44E361226A3244226200233246DA
:102EC80039462046FFF7E3FF013545450FD2DAF8CA
:102ED80008301B6853F82540B9F1000FE2D04FF4D1
:102EE80080212046FEF755F90028DBD0ECE7BDE845
:102EF800F08700283FD02DE9F0470F4616461C46BC
:102F08008046FFF774F9054604F0010904F002034E
:102F1800002B14BF4FF0010A4FF0000A16D0B9F188
:102F2800000F03D1022D0AD0BDE8F087404603F018
:102F3800C1FB234632463946FFF7DBFFF2E753462B
:102F4800324639464046FFF7ADFAEDE702280BD086
:102F5800B9F1000FE8D0404603F0ACFB23463246F7
:102F68003946FFF7C6FFDFE7534632463946404643
:102F7800FFF798FAECE7704708B513460122FFF708
:102F8800B8FF08BD70B588B00C46134609680091B3
:102F9800666801960291E16801310391A5680135DF
:102FA800049505960695079104226946FFF7A1FF47
:102FB800069B049D1946AB42A8BF2946029A009871
:102FC80016468242A8BF0646B142A8BF31462160D4
:102FD800AB42B8BF2B468242B8BF02469342B8BF45
:102FE8001346A360079B059D1946AB42A8BF294617
:102FF800039A019816468242A8BF0646B142A8BF66
:1030080031466160AB42B8BF2B468242B8BF024628
:103018009342B8BF1346E36008B070BD2DE9F04194
:1030280088B004460D460121FEF7B3F820B100260A
:10303800304608B0BDE8F0810746204603F03EFB65
:10304800064603F043FB804604F03DFF864215D058
:10305800404604F045FF864210D0404604F067FF22
:1030680086420BD0404604F048FF864206D04046D0
:1030780004F050FF864201D03E46D9E72046FFF7CC
:103088008CF8014663690493A3690593E369069381
:10309800236A0793024604A81AF0CEFC04AA29461C
:1030A80028461AF0E3FC06460028C1D0012229462A
:1030B8002046FFF767FF204603F0FCFA04460EE0BF
:1030C800012269462046FFF75DFF6A4629462846E1
:1030D8001AF0CCFC00B3204603F0ECFA0446002CAE
:1030E800A6D001212046FEF754F8A8B9EC4604F111
:1030F80014030FCB8CE80F004FF480112046FEF725
:1031080048F80028DCD02046FFF747F80146024679
:1031180068461AF091FCD3E73E4689E730B585B09A
:1031280005460C4603F0D2FA05F03CF808B905B09C
:1031380030BD2368009363680193A3680293E36832
:10314800039369462846FFF769FF0028EFD0AB686C
:103158002BB193F82B3003F00C03082B06D028462C
:1031680003F0B4FA694604F093FCE0E7052211463F
:1031780068461AF061FCF2E730B585B00446FFF7FF
:103188000CF861690091A2690192E3690293256ACA
:103198000395091A0091121A0192034402932844D4
:1031A800039069462046FFF7B9FF05B030BD2DE909
:1031B800F0478CB004460D4616464768002F40D0AD
:1031C8004FF48021FDF7E5FF00285AD079690D44B6
:1031D800BA6902EB060912220021384602F02EFBDA
:1031E80006460190824630220021384602F026FB2E
:1031F8008046019034220021384602F01FFB0190DE
:1032080010F0040F01D006EB080A554410220021E3
:10321800384602F013FB8046019006463022002112
:10322800384602F00BFB82460190342200213846D2
:1032380002F004FB019010F0020F01D008EB0A061F
:103248004E4461696D1A0A95A269B61A0B960DB9B2
:10325800002E52D02046FFF78FFF06A92046FFF721
:1032680080FAFFB102A93846FFF780FB002202A9C5
:1032780006A81AF03CFF8046B0B9384601F0F0FFC6
:1032880012E0D7F81480384600F059FFA8EB000880
:103298004544D7F81890384600F058FFA9EB0009C4
:1032A800B14498E74FF0000863692B446361A36950
:1032B8003344A361E3692B44E361236A3344236203
:1032C8000023324629462046FFF7E1FD27B1224672
:1032D80027213846FFF756F82046FFF74DFF67B11C
:1032E800002202A904F114001AF001FFB8F1000F3E
:1032F80000D110B1384601F0B3FF0CB0BDE8F0873B
:103308002DE9F04F87B00446FFF7E0F910B107B098
:10331800BDE8F08F204603F0CDF9074608220021CA
:10332800204602F08BFA06460590804609220021C5
:10333800204602F083FA054605908246002F47D0C2
:103348003846FFF795FA00903846FFF7D0FA029012
:1033580006F0C043B3F1005F40D005F0C043B3F1BD
:10336800005F54D06A220021204602F067FA064620
:10337800059083466B220021204602F05FFA05463D
:10338800059081462046FFF75FFA01902046FFF737
:1033980060FA039006F0C043B3F1005F50D005F027
:1033A800C043B3F1005F64D0D844D1440A2200215D
:1033B800204602F043FA059010F0FF0072D0023860
:1033C800072878D8DFE800F07D88989DAC8DB5C4D3
:1033D800024631462046FFF7EAFE98E726F0C04647
:1033E8006FF060439E42B8DAB6F1805F05DBC6F144
:1033F8007F6606F57F2606F6FF76009B03FB06F63A
:103408005E4B83FB0638F617C6EB6818A5E725F070
:10341800C0456FF060439D42A4DAB5F1805F05DBDB
:10342800C5F17F6505F57F2505F6FF75029B03FB52
:1034380005F5524B83FB053AED17C5EB6A1A91E780
:1034480026F0C0466FF060439E42A8DAB6F1805F6E
:1034580005DBC6F17F6606F57F2606F6FF76019B3B
:1034680003FB06F6454B83FB063BF617C6EB6B1BC7
:1034780095E725F0C0456FF060439D4294DAB5F1B9
:10348800805F05DBC5F17F6505F57F2505F6FF75CE
:10349800039B03FB05F5394B83FB0539ED17C5EB9A
:1034A800691981E727220021384602F0C7F90590FB
:1034B800C0B2012810D04A4641462046FFF777FEA1
:1034C80025E7009B03EBD370019B03EBD3735B10E1
:1034D800C3EB60039844EEE7009B019A981A804476
:1034E800E9E7029B03EBD370039B03EBD3735B10F9
:1034F800C3EB60039944DEE7029B039A981A814460
:10350800D9E7009B03EBD370019B03EBD3735B10EC
:10351800C3EB60039844029B039A981A8144CAE754
:10352800009B019A981A8044029B039A981A814436
:10353800C1E7009B019A981A8044029B03EBD37061
:10354800039B03EBD3735B10C3EB60039944B2E7AF
:10355800009B03EBD370019B03EBD3735B10C3EBAE
:1035680060039844029B03EBD370039B03EBD37374
:103578005B10C3EB600399449DE700BF1F85EB51C7
:1035880030B585B00446FEF708FE61690091A2696E
:103598000192E3690293256A0395091A0091121AA8
:1035A8000192034402932844039069462046FFF79A
:1035B80035FD05B030BD38B505460C46FEF773F845
:1035C800AB681C6238BD08B542690A6082694A6006
:1035D800C2698A60026ACA60836823B10846196AA8
:1035E8000A461AF029FA08BD00B501F0C04CBCF132
:1035F800005F0CD002F0C04CBCF1005F20D09042BC
:10360800A8BF10468842B8BF08465DF804FB21F001
:10361800C04C6FF0604EF445ECDABCF1805F05DB1E
:10362800CCF17F6C0CF57F2C0CF6FF7C03FB0CFCBB
:103638000F4981FB0CE14FEAEC7CCCEB6111D9E737
:1036480022F0C04C6FF0604EF445D8DABCF1805FD0
:1036580005DBCCF17F6C0CF57F2C0CF6FF7C03FBB3
:103668000CF3034A82FB03C2DB17C3EB6212C6E703
:103678001F85EB5100B501F0C04CBCF1005F0CD0C8
:1036880002F0C04CBCF1005F20D09042A8BF1046A9
:103698008842B8BF08465DF804FB21F0C04C6FF0C3
:1036A800604EF445ECDABCF1805F05DBCCF17F6C51
:1036B8000CF57F2C0CF6FF7C03FB0CFC0F4981FBFF
:1036C8000CE14FEAEC7CCCEB6111D9E722F0C04C5D
:1036D8006FF0604EF445D8DABCF1805F05DBCCF1C1
:1036E8007F6C0CF57F2C0CF6FF7C03FB0CF3034A74
:1036F80082FB03C2DB17C3EB6212C6E71F85EB51DF
:1037080090F82B3003F00C030C2B00F0CD812DE941
:10371800F04F8BB0044602F0CDFF0646002800F0BB
:10372800C58194F82B3013F0080F5ED02046FFF7C0
:103738008BF8074694F82B3013F0040F00F0FB8049
:103748002046FFF786F880462046FFF77DF8B84206
:1037580000F099812046FFF70FFD06A92046FFF7E4
:1037680000F802A93046FFF701F9002202A906A8CD
:103778001AF0BDFC0546002800F08D81A36943447A
:10378800013B236227220021204602F057F80190CE
:10379800C3B2012B00F08381606938440138E061CD
:1037A80006AA2E212046FEF7EDFD224627213046A7
:1037B800FEF7E8FD2046FFF7DFFC94F82A3043F0D7
:1037C800020384F82A30002202A904F114001AF036
:1037D8008EFC05B910B1304601F042FD2046FEF7D7
:1037E800E2FC01200BB0BDE8F08F01220021204649
:1037F80002F024F805460190804600F0C043B3F17A
:10380800005F49D0002399463046FFF731F8074654
:103818006FF040439D4249D0B9F1000F27D096F888
:103828002B3013F0080F46D025F0C045B5F1805F66
:1038380005DBC5F17F6505F57F2505F6FF7507FBF7
:1038480005F59B4880FB0530ED17C5EB60151A227E
:103858000021204601F0F2FF804601901B22002142
:10386800204601F0EBFF01904044A5EB000804223C
:103878000021204601F0E2FF0546019005220021C3
:10388800204601F0DBFF024601903B4629464046B0
:10389800FFF7AAFE07464DE720F0C0426FF06043ED
:1038A8009A4201DB0023AEE70123ACE72046FFF78D
:1038B800EDF88046DBE701220021304601F0BEFF2B
:1038C80001906FF040439842AED112220021204669
:1038D80001F0B4FF054601908046302200212046C1
:1038E80001F0ACFF8146019034220021204601F00E
:1038F800A5FF019010F0040F01D005EB0908132271
:103908000021204601F09AFF0546019082463022A8
:103918000021204601F092FF8146019034220021C7
:10392800204601F08BFF019010F0080F01D005EB45
:10393800090AD0449BE702220021204601F07EFFBD
:1039480005460190814600F0C043B3F1005F49D0BD
:103958004FF0000A3046FEF7CAFF80466FF040433A
:103968009D424BD0BAF1000F27D096F82B3013F0B8
:10397800040F48D025F0C045B5F1805F05DBC5F1DF
:103988007F6505F57F2505F6FF7508FB05F54848B1
:1039980080FB0530ED17C5EB601518220021204685
:1039A80001F04CFF8146019019220021204601F0C8
:1039B80045FF01904844A5EB000906220021204656
:1039C80001F03CFF0546019007220021204601F046
:1039D80035FF02460190434629464846FFF74AFE0E
:1039E8008046B1E620F0C0426FF060439A4202DBA5
:1039F8004FF0000AAEE74FF0010AABE72046FFF7A9
:103A080079F98146D9E702220021304601F016FFF4
:103A180001906FF040439842ACD11022002120461B
:103A280001F00CFF05460190814630220021204616
:103A380001F004FF8246019034220021204601F063
:103A4800FDFE019010F0020F01D005EB0A091122CA
:103A58000021204601F0F2FE0546019083463022FF
:103A68000021204601F0EAFE82460190342200211E
:103A7800204601F0E3FE019010F0010F01D005EBA4
:103A88000A0BD94499E72046FEF7E3FE40457FF448
:103A980061AE0020A6E6304601F0E2FB6EE6E3697F
:103AA800DB1B013363617BE600207047002099E649
:103AB8001F85EB5170B5054602F06BFE06460024E3
:103AC80006E0AB681B6853F82400FFF7F3FF0134E6
:103AD800B442F6D395F82A3013F0010F05D195F8C2
:103AE8002A3013F0020F12D170BD95F82A306FF307
:103AF800000385F82A302846FFF702FE2846FFF71C
:103B0800FFFB002EEBD0284618F0ECFBE7E795F812
:103B18002A306FF3410385F82A300021284601F046
:103B2800C2FBE1E7104B93F8603003B1704710B562
:103B38000D4B012283F8602002F0C0FD044608E026
:103B480094F82A306FF3820384F82A302046FFF76E
:103B5800B1FF94F82A3013F0040FF1D1024B002280
:103B680083F8602010BD00BFA81D00202DE9F04F8C
:103B780087B006460C4601921F46FFF7D3FF002C7C
:103B880000F08A80304602F095FD05461222002199
:103B980001F054FE8046059002903022002128460C
:103BA80001F04CFE8146059034220021284601F0A0
:103BB80045FE059010F0040F02D008EB09030293AC
:103BC80010220021284601F039FE804605908246E1
:103BD80030220021284601F031FE8146059034222A
:103BE8000021284601F02AFE059010F0020F01D0AE
:103BF80008EB090A12220021204601F01FFE804628
:103C08000590834630220021204601F017FE8146A8
:103C1800059034220021204601F010FE059010F096
:103C2800040F01D008EB090B10220021204601F0F7
:103C380005FE81460590804630220021204601F08D
:103C4800FDFD0390059034220021204601F0F6FD89
:103C5800059010F0020F02D0DDF80C80C844019BDB
:103C6800FBB1019B5A1E142A5FD8DFE812F023002B
:103C7800810091009C00A700C100D600E600620008
:103C8800000108011C012B013201450153015B01B0
:103C98006F017E0185019801304602F00BFD044654
:103CA80070E727220021204601F0C8FD0590C0B228
:103CB80001286DD007F0C043B3F1005F00F07D81AB
:103CC800109B03F0C043B3F1005F00F093812722FB
:103CD8000021284601F0B2FD0590C0B2012800F08D
:103CE800A88163691F446B69FF1A284600F0B4FA7B
:103CF8003844029BC01A8344A469109B1C44AB69D6
:103D0800E41A284600F029FA0444A4EB0A044444BF
:103D180000220121304602F050FC22465946304626
:103D2800FEF792FC07B0BDE8F08F4FF00008C346DD
:103D3800C0E72046FEF79CFD00EBD0704FEA600913
:103D48003046FEF781FD00EBD070A9EB600083449C
:103D58002046FEF7CCFD00EBD0704FEA60093046F4
:103D6800FEF777FD00EBD070A9EB60008044A1E777
:103D78002046FEF77DFD00EBD0704FEA6009304623
:103D8800FEF762FD00EBD070A9EB6000834491E779
:103D98002046FEF76DFD81463046FEF755FDA9EB3E
:103DA8000009CB4486E72046FEF7A1FD8146304650
:103DB800FEF74FFDA9EB0009C8447BE72046FEF754
:103DC80057FD00EBD0704FEA60093046FEF73CFD26
:103DD80000EBD070A9EB600083442046FEF787FD16
:103DE80081463046FEF735FDA9EB0009C84461E776
:103DF8002046FEF73DFD81463046FEF725FDA9EB3E
:103E08000009CB442046FEF772FD81463046FEF796
:103E180020FDA9EB0009C8444CE72046FEF767FDE2
:103E280000EBD0704FEA60093046FEF712FD00EB58
:103E3800D070A9EB600080443CE72046FEF718FDEF
:103E480081463046FEF700FDA9EB0009CB44204629
:103E5800FEF74DFD00EBD0704FEA60093046FEF7E3
:103E6800F8FC00EBD070A9EB6000804422E73046F4
:103E7800FEF7EFFCC0F100084FF0000B1AE72046F0
:103E8800FEF7E2FC00EBD07B4FEA6B0B3046FEF707
:103E9800DBFC00EBD070ABEB600B3046FEF7D9FCD7
:103EA800C0F1000806E72046FEF7CEFC8346304600
:103EB800FEF7CAFCABEB000B3046FEF7CAFCC0F1BC
:103EC8000008F7E62046FEF7C4FC80464FF0000BDA
:103ED800F0E62046FEF7B8FC00EBD07B4FEA6B0B10
:103EE8003046FEF7B1FC00EBD070ABEB600B204620
:103EF800FEF7AFFC8046DDE62046FEF7A5FC8346CC
:103F08003046FEF7A1FCABEB000B2046FEF7A1FC08
:103F18008046CFE63046FEF797FCC0F1000B4FF025
:103F28000008C7E63046FEF78FFCC0F1000B2046BC
:103F3800FEF78FFC00EBD0704FEA60083046FEF7C2
:103F480088FC00EBD070A8EB6008B3E63046FEF7BB
:103F58007BFCC0F1000B2046FEF77BFC8046304618
:103F6800FEF777FCA8EB0008A4E62046FEF76CFCF9
:103F780083464FF000089DE62046FEF765FC834621
:103F88002046FEF766FC00EBD0704FEA600830462A
:103F9800FEF75FFC00EBD070A8EB60088AE62046CD
:103FA800FEF752FC83462046FEF753FC8046304617
:103FB800FEF74FFCA8EB00087CE627F0C0496FF03D
:103FC80060439945BFF67CAE2046FEF73DFCB9F14B
:103FD800805F05DBC9F17F6909F57F2909F6FF795B
:103FE80009FB00F9194F87FB09374FEAE979C9EB53
:103FF800671765E6109B23F0C0496FF06043994549
:10400800BFF665AE2046FEF724FCB9F1805F05DBFC
:10401800C9F17F6909F57F2909F6FF7909FB00F9DC
:104028000A4B83FB09234FEAE979C9EB6313109321
:104038004DE663691F446B69FF1A284600F09AF938
:104048003844029BC01A834456E600BF1F85EB51D3
:1040580008B500231A460921FEF776FB08BD08B506
:1040680090F8543013F0040F00D108BD00220B2142
:104078000068FEF787F9F8E738B504460D46FDF7FE
:1040880012FBA26892F82A3003F00303AB4208D06F
:1040980092F82A3065F3010382F82A302046FFF7A8
:1040A8006BF838BD38B505460C46FDF7FCFAAA682A
:1040B800538DC3F38313A34203D0538D64F3891341
:1040C800538538BD38B505460C46FDF7ECFAAB68A4
:1040D80093F82A2064F3830283F82A2038BD38B580
:1040E80005460C46FDF7DFFAAB6893F82A2064F31F
:1040F800051283F82A2038BD836823B193F82A0073
:1041080000F0030070470320704783681BB1588D87
:10411800C0F3831070470F207047836823B193F86A
:104128002A00C0F38100704700207047836823B1DC
:1041380093F82A00C0F30110704700207047836885
:1041480013B198694042704700207047836813B1E3
:10415800D8694042704700207047836813B1D86916
:1041680040427047002070472DE9F04383B006466F
:1041780002F00FFB81460024DFF8D48000E0013410
:104188004C4515D2B3681B6853F82450314928466A
:10419800FDF706F80028F2D12F6A192200212846D7
:1041A80001F04CFB019038448045B8BF8046E6E7F3
:1041B80010220021304601F041FB0446019081465F
:1041C80030220021304601F039FB054601903422A7
:1041D8000021304601F032FB019010F0020F01D0AF
:1041E80004EB050911220021304601F027FB0546A2
:1041F8000190074630220021304601F01FFB04469B
:10420800019034220021304601F018FB019010F093
:10421800010F00D02F190E4B984503D0336ADB1BD2
:10422800A8EB03083046FEF755FD04463046FEF776
:1042380010FBA0EB0900C01B241A3046FFF786FFCD
:10424800201A4045B8BF404603B0BDE8F08300BF20
:10425800010000E0010004002DE9F04F83B004469E
:104268002722002101F0EAFA0190C0B2012807D004
:10427800A368002B78D09869404203B0BDE8F08F5E
:1042880013220021204601F0D9FA05460190834601
:1042980030220021204601F0D1FA0646019034224E
:1042A8000021204601F0CAFA019010F0080F01D051
:1042B80005EB060B12220021204601F0BFFA054645
:1042C8000190824630220021204601F0B7FA0646C6
:1042D800019034220021204601F0B0FA019010F03C
:1042E800040F01D005EB060A204602F052FA804678
:1042F8006FF06049002500E00135454515D2A368F7
:104308001B6853F8256019493046FCF749FF002817
:10431800F2D177691A220021304601F08FFA019014
:10432800381A8145A8BF8146E6E76FF06043994592
:1043380018D060695044A0EB09052046FEF796FBAB
:1043480006462046FEF780FAA0EB0B0BABEB0A0AF9
:10435800A6EB0A0A2046FFF7F2FE5044A842B8BF6F
:1043680028468AE7024DE8E7002086E701000400B6
:10437800010000E02DE9F04383B005462722002123
:1043880001F05CFA0190C0B2012804D1AB68002B9F
:1043980073D098696EE0284602F0FBF98146002444
:1043A800374F00E001344C4516D2AB681B6853F810
:1043B800246034493046FCF7F3FE0028F2D1D6F8E1
:1043C8001C801B220021304601F038FA019040443D
:1043D8008742B8BF0746E5E713220021284601F0C7
:1043E8002DFA04460190814630220021284601F02A
:1043F80025FA0646019034220021284601F01EFACB
:10440800019010F0080F01D004EB060912220021D8
:10441800284601F013FA0646019080463022002112
:10442800284601F00BFA0446019034220021284660
:1044380001F004FA019010F0040F01D006EB040813
:104448000F4B9F4203D0EB69A3EB0903FF1A2846E1
:10445800FEF70CFB04462846FEF7F6F9A0EB090028
:10446800A0EB0800241A2846FFF769FE201AB84274
:10447800B8BF384603B0BDE8F0830020FAE700BFB4
:10448800010000E00100040038B505460C460C495F
:1044980019F0FCF958B1C06A404220600949284621
:1044A80019F0F4F938B1C06A4042606038BD284656
:1044B800FFF745FEF1E72846FFF748FEF5E700BF9E
:1044C800354500081F45000870B5044615460E46D8
:1044D80001B9F2B12046FDF7E6F8A26893693344C2
:1044E8009361A268D3692B44D36101232A463146DC
:1044F8002046FEF7CCFC00220C212046FDF742FFA7
:104508000546012801D0284670BD2046FEF734FE36
:10451800F9E70125F7E738B504460D46FFF716FE1B
:10452800421900212046FFF7CFFF38BD38B50446B1
:104538000D46FFF704FE002241192046FFF7C4FF8D
:1045480038BD0000F0B597B0044615460E4601B9CF
:1045580082B1012B10D04049204619F06FF93F492C
:10456800204619F06BF9002209212046FDF70AFFC1
:10457800012863D017B0F0BD204602F0A7F807461F
:10458800684619F0F5F82146684619F0E9F9344902
:10459800684619F0FAF94EBB002DEBD0384603F007
:1045A800D3FB4FF4C872C821401019F089F90146AD
:1045B800684619F0D9F92046FFF7C8FD2A1A414282
:1045C800684619F0D6F92449684619F0CBF9254907
:1045D800684619F0D4F96A4609212046FDF7D2FE4B
:1045E8000128C7D1684619F0DDF8C3E7384603F05B
:1045F80095FB4FF4C872C821401019F061F90146C3
:10460800684619F0B1F92046FFF799FD321A414280
:10461800684619F0AEF91149684619F0A3F911492D
:10462800684619F0ACF96A4609212046FDF7AAFE4A
:1046380001289FD1684619F0B5F8ADE72A463146FA
:104648002046FFF741FF012894D100220B21204684
:10465800FDF798FE8EE700BF1F45000835450008A6
:10466800674000081DD901082DE9F04782B00546CA
:10467800144699460F4601B922B32846FFF752FA65
:104688002846FFF75CFD06463F1A272200212846E8
:1046980001F0D4F80190C0B201282AD0002F14DD0F
:1046A80000272846FFF752FD8046241A002C36DDE5
:1046B800002408EB0402F11900D11AB14B46284630
:1046C800FFF740FF02B0BDE8F087EADA2846FFF7B7
:1046D800C3FD80462846FFF74DFE18EB000805D4B9
:1046E800C8F10008B845DCDD4746DAE74FF00008B6
:1046F800F6E7002F11DBD4DD2846FFF7ADFD804635
:104708002846FFF737FE18EB000803D4B845C8DA87
:104718004746C6E74FF00008F8E70027C1E7C8DAC0
:104728002846FFF71AFD82462846FFF71DFD1AEBBB
:10473800000A05D4CAF1000A5445BADA5446B8E763
:104748004FF0000AF6E7000070B504460D4616461D
:10475800064919F073F82046FFF7F1FC33460022AA
:10476800411B2046FFF780FF70BD00BF354500089C
:1047780070B504460D461646064919F05FF82046FE
:10478800FFF7E4FC3346421B00212046FFF76CFF8D
:1047980070BD00BF1F45000870B5054616461C468B
:1047A8001A46FFF7D1FF224631462846FFF7E0FFB9
:1047B80070BD00002DE9F04F8BB003900D460491B9
:1047C80016460293084601F075FF04461021FCF7CF
:1047D800E0FC002800F00A812046FFF796FC0190D3
:1047E8002046FFF7A3FC804610B105F1140700E04E
:1047F800039F10220021204601F020F80546099069
:10480800824630220021204601F018F8814609909E
:1048180034220021204601F011F8099010F0020F0F
:1048280001D005EB090A11220021204601F006F803
:1048380005460990834630220021204600F0FEFFFD
:104848008146099034220021204600F0F7FF0990A4
:1048580010F0010F01D005EB090BA56955447B68E1
:10486800ED1AD6F80490A5EB0905236AA3EB0B0310
:10487800FA689B1A0793A9EB030305932046FDF7F3
:10488800E8FFA0EB0A00A0EB0B020692002DC0F295
:10489800B080059B002BC0F2AC800025B8F1020F58
:1048A80000F0CB80B8F1030F00F0D180B8F1010F10
:1048B80000F0BA802046FFF730FC824610B1049B16
:1048C8001433039312220021204600F0B7FF074655
:1048D8000990814630220021204600F0AFFF804633
:1048E800099034220021204600F0A8FF099010F01A
:1048F800040F01D007EB080913220021204600F01D
:104908009DFF07460990834630220021204600F08B
:1049180095FF8046099034220021204600F08EFF42
:10492800099010F0080F01D007EB080B67694F4496
:1049380003990B68FF1A3268E369A3EB0B038968D4
:104948005B1AD11ABF1A00F196800029C0F2938031
:1049580000272046FDF778FFA0EB0900A0EB0B002D
:10496800BAF1020F00F0A980BAF1030F00F0B0808D
:10497800BAF1010F00F097806449204618F05EFFF5
:104988006349204618F05AFF019B13F0010F02D12A
:10499800002FC0F2B380019B13F0020F02D1002F49
:1049A80000DD0027019B13F0040F02D1002DC0F297
:1049B800A780019B13F0080F02D1002D00DD002510
:1049C8003368029A002A00F09D803A461344336007
:1049D8007368029A002A00F097802A46134473608D
:1049E800029B2A4639462046FFF7ACFD0BB0BDE8CE
:1049F800F08F002D08DD2046FFF7AFFB401B002895
:104A0800BFF64CAF002549E7059B002B01DC0025CC
:104A180044E7079BA3EB09052046FFF7A5FBC54222
:104A28007FF53CAF002539E7A36953447A6802EB68
:104A3800050AA3EB0A031D443CE7236AA3EB0B0317
:104A4800FA6802EB050BA3EB0B031D4432E7A369DD
:104A58009A44069B03EBD3700AEB600A384619F0B8
:104A680059F900EBD0707B6803EB60032B44AAEB89
:104A7800030A55441EE7002F03DC00290ADC00273F
:104A880067E72046FFF7E8FBC01B0028BFF661AFC9
:104A980000275EE79F1A2046FFF76CFCC7427FF5A8
:104AA80058AF002755E763694B44039A126802EB35
:104AB8000709A3EB09031F445EE7E369A3EB0B03B4
:104AC800039A926802EB070BA3EB0B031F4453E70F
:104AD8006369994400EBD07009EB6009DDF80C803C
:104AE800404619F012F900EBD073D8F8000000EB3B
:104AF80063003844A9EB000007443DE700274AE774
:104B0800002556E7002261E7002267E71F450008F5
:104B18003545000870B582B005460E46FFF702F825
:104B2800002300930193284601F0C4FD044629465A
:104B38000AE033466A4605F11400FFF73BFE2046BB
:104B480001F0B8FD21460446002CF2D102B070BD38
:104B58002DE9F04F93B004460F4616464FF0FF3547
:104B680000952B4600221146384618F04BFF009559
:104B78002B4600221146304618F044FF10212046EB
:104B8800FCF707FB039020B12046FFF7B5FA8146F2
:104B980010B913B0BDE8F08F002015F0B1FE05463E
:104BA800B9F1020F0CD14DB1284615F0F1FE84423F
:104BB80004D0284615F0A4FE0546F4E7002DE8D0F9
:104BC8002046FFF7CAFA80462046FFF7CDFA049040
:104BD8002046FFF741FB05902046FFF7CBFB0690E8
:104BE8002046FFF792FA824610F00C0F21D0B9F157
:104BF800010F00F0F980B9F1030F05D0B9F1020FE8
:104C08000ED04FF0000B16E0B8F1000F02DDDDF812
:104C18000CB010E0049B002BF0DDDDF80CB00AE0CE
:104C2800284615F0A5FE0C2800F0E1804FF0000B97
:104C380001E04FF0000B1AF0030F0AD0B9F1010F91
:104C48000CD0B9F1030F00F0D580B9F1020F00F0D4
:104C5800DA80BBF1000F9CD00023039327224FF486
:104C68008031204600F0EAFD1190C3B20D93102266
:104C78004FF48031204600F0E1FD0A901190112296
:104C88004FF48031204600F0D9FD0990119012228E
:104C98004FF48031204600F0D1FD0E901190132280
:104CA8004FF48031204600F0C9FD0B90119001228D
:104CB8004FF48031204600F0C1FD05460890119060
:104CC8002046FDF7C6FD81462046FDF7BDFD07904D
:104CD800BBF1000F00F09E800F95039B002B00F0A6
:104CE8009C80089B0C931D224FF48031204600F0D5
:104CF800A5FD1190C0B2012840F29280C844049BDF
:104D080008EB0305BBF1000F00F0D180002D00F087
:104D1800CE80A3697360236AF3600D9B012B00F0BA
:104D28008B80E3690B9A9B1AB360089A9B1A01332C
:104D380033600A9BA9EB0308099BA8EB03080C9BAB
:104D4800A8EB030809FB08FA9AFBF5FA002003F020
:104D580011F800EB80004000EF2876DC0123534572
:104D680080F28180A8EB0A08A5EB0905002D40F325
:104D78009380049B08FB03F090FBF5F5A8EB05086E
:104D8800A26990440A9908EB0102726092440AF100
:104D9800FF33F360A5690D44AA42C0F2FE80F368B0
:104DA800256A0C9AAD1A099AAD1AAB427FDDF560F7
:104DB800002002F0DFFF00EB80004300EF2B00F340
:104DC80024810123ED1A73689D4270DAF56800208A
:104DD80002F0D0FF00EB80004300EF2B00F32381AB
:104DE8000123EB1A736062E0DDF80CB023E7DDF80D
:104DF8000CB020E7059B002B3FF730AF069B002B3C
:104E08003FF72CAF21E7284615F0B2FD03287FF4C1
:104E180020AF23E700230F935FE700230C9362E79B
:104E280032224FF48031204600F008FD1190C0B2C4
:104E380001283FF663AFACE663690E9A134433600A
:104E4800089A1344013BB36073E7002002F092FF15
:104E580000EB800043005033B44A82FB0312DB1797
:104E6800C3EBA2137BE7002002F084FF00EB800075
:104E78004300EF2B02DC4FF0010A73E7002002F039
:104E880079FF00EB800043005033A84A82FB032AD5
:104E9800DB17C3EBAA1A65E7A3690A9A1344736080
:104EA800236A099A9B1A0C9A9B1A013BF360059D89
:104EB800079B1D44069B1D44039B002B3FF469AED2
:104EC800002D3FF466AE206A099BC01AF860089B63
:104ED800C01A0130786063693B60E369BB60079B77
:104EE8000E9A9E1A0B9AB61A0F9AB61A03FB06F870
:104EF80098FBF5F8002002F03DFF00EB8000400031
:104F0800EF2800F39E800123434580F2A880A6EB9A
:104F18000806079BED1A002D40F3BA80069B06FB96
:104F280003F393FBF5F3F61A0D9B012B00F0CB80EE
:104F3800636933440E995A183A6002EB0803013B3F
:104F4800BB6065690D44AA42C0F23981BB68E46957
:104F58000F9AA41A0B9AA41AA3427FF71AAEBC6040
:104F6800002002F007FF00EB80004300EF2B00F366
:104F78005B810123E41A3B689C42BFF60AAEBC6819
:104F8800002002F0F7FE00EB80004300EF2B00F357
:104F980059810123E31A3B60FBE57560002002F0AC
:104FA800E9FE00EB80004300EF2B12DC01231D44D7
:104FB800F3689D427FF7F3AE7568002002F0DAFED1
:104FC80000EB80004300EF2B11DC01232B44F3603E
:104FD800E5E6002002F0CEFE00EB800043005033EF
:104FE800524A82FB0312DB17C3EBA213DFE7002050
:104FF80002F0C0FE00EB8000430050334B4A82FBB6
:105008000312DB17C3EBA213E0E7002002F0B2FEA5
:1050180000EB800043005033444A82FB0312DB1745
:10502800C3EBA213CEE6002002F0A4FE00EB800042
:10503800430050333D4A82FB0312DB17C3EBA21334
:10504800CFE6002002F096FE00EB800043005033CC
:10505800364A82FB0312DB17C3EBA21354E7002086
:1050680002F088FE00EB80004300EF2B02DC4FF0DB
:1050780001084CE7002002F07DFE00EB80004300B1
:1050880050332A4A82FB0328DB17C3EBA8183EE7F4
:105098000D9B012B0BD063690E9A13443B60E369A7
:1050A8000B9A9B1A0F9A9B1A013BBB6071E56369C7
:1050B8000E9A13440F9A1344013B3B60E3690B9A21
:1050C8009B1ABB6065E5636933440E9803440F99E6
:1050D8000B443B6003EB0802013ABA606269024480
:1050E8005518AB4224DBBB68E4690B9AA41AA342A7
:1050F8007FF74FADBC60002002F03CFE00EB800063
:105108004300EF2B45DC0123E41A3B689C42BFF6C1
:1051180040ADBC68002002F02DFE0A2300FB03F31B
:10512800EF2B41DC0123E31A3B6032E567666666D4
:105138003D60002002F01EFE00EB80004300EF2BD4
:1051480011DC01231D44BB689D42CCDD3D68002075
:1051580002F010FE0A2300FB03F3EF2B0EDC012301
:105168002B44BB60BFE7002002F004FE0A2202FBCA
:1051780000F35033A02293FBF2F3E3E7002002F0A0
:10518800F9FD0A2202FB00F35033A02293FBF2F34D
:10519800E6E7002002F0EEFD0A2202FB00F350339E
:1051A800A02293FBF2F3AFE7002002F0E3FD0A220E
:1051B80002FB00F35033A02293FBF2F3B3E73D6008
:1051C800002002F0D7FD00EB80004300EF2B12DC3B
:1051D80001231D44BB689D427FF7B8AE3D6800209F
:1051E80002F0C8FD00EB80004300EF2B11DC012327
:1051F8002B44BB60AAE6002002F0BCFD00EB800057
:1052080043005033154A82FB0312DB17C3EBA2138A
:10521800DFE7002002F0AEFD0A2202FB00F3503364
:10522800A02293FBF2F3E3E7002002F0A3FD00EBDA
:10523800800043005033094A82FB0312DB17C3EB9B
:10524800A21397E6002002F095FD0A2202FB00F364
:105258005033A02293FBF2F39CE600BF67666666B4
:1052680010B588B004466A4604A9FFF771FC04A883
:1052780018F0D8FB18B9684618F0D4FB38B104A860
:1052880018F0D0FB28B9684618F0CCFB30B908B044
:1052980010BD04A92046FDF741FFF4E76946204602
:1052A800FDF73CFFF3E7F0B583B004460D46FEF783
:1052B8003DFF28B12046FEF730FFB0B103B0F0BD86
:1052C8002046FEF74AFF06462046FEF74DFF021E1F
:1052D800F0DA002EEEDD52422B46B242A8BF32462B
:1052E80000212046FFF72EF9E4E72046FEF7B4FF39
:1052F80007462046FFF73EF80646272200212046AB
:1053080000F09CFA0190C2B2012A0DD0002ED5DA25
:10531800002FD3DD71422B460022B942A8BF39467F
:105328002046FFF70FF9C9E7002FC7DA002EC5DDC1
:105338002B46002239462046FFF704F9BEE7000055
:105348002DE9F0470646894692469846274819F0BF
:10535800A1FE0446002706E02379534531D0BAF16F
:10536800FF0F30D02C46002C3CD044453AD0214683
:105378001E4819F097FE05462068B042F2D1A3688E
:105388004B45E9D0B9F5702FECD1E5E721791058F4
:105398001AF0ABFB0137738DC3F30513BB4214D965
:1053A800F268F80002EBC703D97911F0020FF1D0C7
:1053B800B9F5702FEAD05B68C3F317034B45E9D101
:1053C800E4E70027E7E70027E5E70021204618F093
:1053D80035FA2146054819F09BFE20461CF076FE5A
:1053E8000127BFE73846BDE8F08700BFC01D002091
:1053F8002DE9F84306460F4690F80880B8F1FF0FEC
:1054080012D0D0F800904FEA88080024337AA342DB
:1054180016D908EB0403FDB219F803001AF0B6FC1C
:10542800054212D10134F1E70668002516F8350067
:1054380038B1FCB21AF0AAFC044204D10135F5E7F0
:105448000020BDE8F8830120FBE70120F9E7F8B563
:10545800074601F09EF90646002512E0BB681B6866
:1054680053F825402046FDF787FE00222F212046CD
:10547800FCF788FF2046FDF77FFE2046FFF7E7FF91
:105488000135B542EAD3F8BD2DE9F04104460D4691
:10549800002200E00132638DC3F3051393420ED955
:1054A800E36803EBC203D97911F0010FF2D0596810
:1054B800C1F31701A942EDD11868BDE8F0810133A5
:1054C80003F03F03628D63F30912628502F47C7274
:1054D80002B9FEE7D900E0681CF002FEE060B0B156
:1054E800668DC6F30516013E96B1E26806F10053D3
:1054F800013B02EBC303D97911F0030F08D102EB8A
:10550800C60293E8030082E80300013EECE7FEE7E9
:10551800E068F7000822002100EBC6001CF0AAF999
:10552800D4F80C800C201CF0B5FD48F83600E36870
:1055380053F836001AF0C4FAE3683B44DA7942F0CB
:105548000102DA71E3683B445A6865F317025A604E
:10555800E36853F83600B0E770B504460D460021FD
:1055680000E00131638DC3F305138B420BD9E26868
:1055780002EBC102D07910F0020FF2D05268C2F3E8
:105588001702AA42EDD18B4203D0E06800EBC100BC
:1055980070BD013303F03F03628D63F30912628526
:1055A80002F47C7202B9FEE7D900E0681CF098FDAD
:1055B800E060668DC6F30516013E0CE0E26806F170
:1055C8000053013B02EBC30302EBC60293E803005E
:1055D80082E80300013E002EF0D108220021E06895
:1055E8001CF048F9E6680C201CF054FD3060E368B4
:1055F80018681AF065FAE268D37943F00203D371A8
:10560800E3685A6865F317025A60E068C0E72DE955
:10561800F04F83B08446019393087B2A11D84FF04A
:10562800010E0EFA03FE01F47F041FFA81F96FEAF6
:1056380009081FFA88F89CF82A5005F00805002385
:105648001CE01F23EBE70668002100E0013106EBB0
:10565800C10716F8310068B18242F7D1796801981C
:105668000160012006E057F821100198016001202F
:1056780000E02846012800F081800133BCF82A1098
:10568800C1F30511994224D9DCF80C00DF0000EBC6
:10569800C301CE7916F0020F69D0002DEDD149680B
:1056A80001F47F01A142E8D1C059416811EA0E0F07
:1056B800E3D0067AFF2EC6D007684FEA860A002193
:1056C8008E42D6D907EB0A00405C8242CBD001312A
:1056D800F6E74FF0FF3A21E00668002106EBC10724
:1056E80016F83100B8B1824201D00131F6E7796885
:1056F8000198016001200EE001318E420AD907EBC2
:105708000B00405C8242F7D157F8211001980160E4
:10571800012000E00020012825D00133BCF82A1020
:10572800C1F30511994225D9DCF80C1001EBC3052A
:1057380051F83300416811EA0E0FEED06968C1F3E1
:10574800170601F47F018C42E7D1B5B216EA080FBB
:10575800E3D15545E1DD067AFF2EBDD007684FEA53
:10576800860B0021C9E7A94508D0AA46D5E74FF01E
:10577800FF3AD3E7BAF1000F03DB012003B0BDE81D
:10578800F08F0020FAE70000F8B5044615461F46DA
:1057980001F47F06FFF73BFF01283CD08C2D12D87F
:1057A8001D4B5B5D03F00103D3B1AEB96468ACB1C6
:1057B800218D3B462A4631432046FFF728FF012822
:1057C80029D06468F3E7154B1B6B4BB12B4413F8D6
:1057D8008D3C03F00103E7E70026E8E700201AE024
:1057E800C6B96B1EDBB2012B01D9002013E0236878
:1057F80002E09A694AB91B6853B1012DF9D0DA69F8
:10580800002AF8D03A60012005E03A60284602E014
:10581800002000E00020F8BD70780308A81D0020D3
:1058280008B51421014819F0EBFB08BDC01D002084
:10583800014B83F824007047A81D0020A0B110B5C3
:1058480082B014468446008D002300936B460143C2
:105858006046FFF799FF012807D020461AF016FA8C
:105868000190019802B010BDFEE7009B0193F8E794
:1058780010B582B004466E220021FFF7DFFF0190C9
:10588800002842D16C2200212046FFF7D7FF019063
:10589800B0F5807F01D0022038E06D22002120463B
:1058A800FFF7CCFF0190B0F5807F01D002202DE0FA
:1058B800712200212046FFF7C1FF019040BB7222F0
:1058C80000212046FFF7BAFF019018BB6022002193
:1058D8002046FFF7B3FF0190C0B2FF2801D0012096
:1058E80014E0732200212046FFF7A8FF019008B1B9
:1058F80001200BE0672200212046FFF79FFF01905F
:1059080010F0FF0002D0012000E0022002B010BD1C
:105918000220FBE70220F9E710B54FF0000E01E086
:105928000EF1010EB0F82AC0CCF3051CF44512D9CB
:10593800C46804EBCE0C9CF8074014F0010FEFD0BC
:10594800DCF80440C4F317049C42E9D1DCF80000F9
:105958001AF05BF900E0002010BD70B584B0019228
:1059680028B30D4606466122FFF768FF04460290F9
:10597800C0B10368B3B1622229463046FFF75EFF23
:10598800029010F0FF020DD0236801992046984735
:105998008DF80400C0F307238DF80530C0F30740E5
:1059A8008DF80600019B0393039804B070BD039221
:1059B800FAE72DE9F04383B00646884617460025E6
:1059C800A94610E04FF00309484603B0BDE8F0834C
:1059D80001AA692120461AF018F9002800F09C80D5
:1059E8004FF002090135738DC3F30513AB42EBD9B0
:1059F800F268E80002EBC503D97911F0020FF1D182
:105A08009B8833EA08010CBF01210021BB430CBF6E
:105A1800012300239942E5D0145801AA10212046F9
:105A28001AF0F3F80028CDD101AA112120461AF066
:105A3800ECF80028C6D101AA122120461AF0E5F890
:105A48000028BFD101AA132120461AF0DEF8002849
:105A5800B8D101AA152120461AF0D7F80028B1D1EB
:105A680001AA142120461AF0D0F80028AAD101AAC8
:105A7800162120461AF0C9F80028A3D101AA6A21E4
:105A880020461AF0C2F800289CD101AA6B212046B2
:105A98001AF0BBF8002895D101AA012120461AF076
:105AA800B4F800288ED101AA022120461AF0ADF8D8
:105AB800002887D101AA042120461AF0A6F8002858
:105AC80080D101AA052120461AF09FF800287FF40A
