:020000040800F2
:10000000008001205D5C0308995B03089B5B03088B
:100010009D5B03089F5B0308A15B030800000000D1
:10002000000000000000000000000000A35B0308C7
:10003000A55B030800000000A75B0308A95B030899
:10004000AD5C0308AD5C0308AD5C0308AD5C030860
:10005000AD5C0308AD5C0308AD5C0308AD5C030850
:10006000AD5C0308AD5C0308AD5C0308AD5C030840
:10007000AD5C0308AD5C0308AD5C0308AD5C030830
:10008000AD5C0308AD5C0308AD5C0308AD5C030820
:10009000AD5C0308AD5C0308AD5C0308AD5C030810
:1000A000AD5C0308AD5C0308AD5C0308AD5C030800
:1000B000AD5C0308AD5C0308AD5C0308AD5C0308F0
:1000C000AD5C0308AD5C0308AD5C0308AD5C0308E0
:1000D000AD5C0308AD5C0308AD5C0308AD5C0308D0
:1000E000AD5C0308AD5C0308AD5C0308AD5C0308C0
:1000F000AD5C0308AD5C0308AD5C0308AD5C0308B0
:10010000AD5C0308AD5C0308AD5C0308AD5C03089F
:10011000AD5C0308AD5C0308AD5C0308AD5C03088F
:10012000AD5C0308AD5C0308AD5C0308AD5C03087F
:10013000AD5C0308AD5C0308AD5C0308AD5C03086F
:10014000AD5C0308AD5C0308AD5C0308AD5C03085F
:10015000AD5C0308AD5C0308AD5C0308AD5C03084F
:10016000AD5C0308AD5C0308AD5C0308AD5C03083F
:10017000AD5C0308AD5C0308AD5C03080000000043
:08018000AD5C0308AD5C03084F
:1001C00010B5054C237833B9044B13B10448AFF391
:1001D00000800123237010BD080A002000000000E9
:1001E000F8E5030808B5034B1BB103490348AFF317
:1001F000008008BD000000000C0A0020F8E503089C
:100200007BB972B90029BEBF00204FF0004106E063
:1002100008BF00281CBF6FF000414FF0FF3000F016
:10022000BFB9ADF1080C6DE904CE002909DB002B44
:100230001ADB00F04DF8DDF804E0DDE9022304B03C
:100240007047404261EB4101002B1BDB00F040F89E
:10025000DDF804E0DDE9022304B0404261EB410136
:10026000524263EB43037047524263EB430300F097
:100270002FF8DDF804E0DDE9022304B0404261EB31
:1002800041017047524263EB430300F021F8DDF86F
:1002900004E0DDE9022304B0524263EB43037047FC
:1002A00053B94AB9002908BF00281CBF4FF0FF31DD
:1002B0004FF0FF3000F074B9ADF1080C6DE904CED9
:1002C00000F006F8DDF804E0DDE9022304B0704731
:1002D0002DE9F047089E0D4604468846002B4DD177
:1002E0008A42944668D9B2FA82F252B101FA02F314
:1002F000C2F1200120FA01F10CFA02FC41EA0308E4
:1003000094404FEA1C45210CB8FBF5FE1FFA8CF710
:1003100005FB1E8341EA03430EFB07F199420BD90B
:100320001CEB03030EF1FF3080F01E81994240F276
:100330001B81AEF1020E63445B1AA4B2B3FBF5F06D
:1003400005FB103344EA034400FB07F7A7420AD930
:100350001CEB040400F1FF3380F00881A74240F257
:10036000058164440238E41B40EA0E4000211EB1BE
:10037000D4400023C6E90043BDE8F0878B4208D98A
:10038000002E00F0EE800021C6E900050846BDE819
:10039000F087B3FA83F100294AD1AB4202D38242FB
:1003A00000F2F980841A65EB030301209846002EC1
:1003B000E2D0C6E90048DFE702B9FFDEB2FA82F216
:1003C000002A40F09180A1EB0C054FEA1C471FFA70
:1003D0008CFE0121B5FBF7F307FB1350250C45EA12
:1003E00000450EFB03F0A84208D91CEB050503F1FC
:1003F000FF3802D2A84200F2CB8043462D1AA4B2A5
:10040000B5FBF7F007FB105544EA05440EFB00FE70
:10041000A64508D91CEB040400F1FF3502D2A6451D
:1004200000F2BB802846A4EB0E0440EA03409EE79E
:10043000C1F120078B4022FA07FC4CEA030C20FA9A
:1004400007F405FA01F31C43FD404FEA1C4900FA8A
:1004500001F3B5FBF9F8200C1FFA8CFE09FB1855C7
:1004600040EA054508FB0EF0A84202FA01F20BD95A
:100470001CEB050508F1FF3A80F08880A84240F2A5
:100480008580A8F1020865442D1AA4B2B5FBF9F0E5
:1004900009FB105544EA054500FB0EFEAE4508D9A0
:1004A0001CEB050500F1FF346CD2AE456AD9023869
:1004B000654440EA0840A0FB0294A5EB0E05A54266
:1004C000C846A64656D353D05EB1B3EB080265EBDF
:1004D0000E0505FA07F722FA01F3CD401F43C6E9DE
:1004E00000750021BDE8F087C2F1200320FA03F176
:1004F0000CFA02FC25FA03F395400D434FEA1C4722
:100500001FFA8CFEB3FBF7F107FB11302B0C43EA0B
:10051000004301FB0EF0984204FA02F408D91CEBE8
:10052000030301F1FF382FD298422DD902396344D9
:100530001B1AADB2B3FBF7F007FB103345EA0345D6
:1005400000FB0EF3AB4208D91CEB050500F1FF38A8
:1005500016D2AB4214D902386544ED1A40EA014183
:1005600038E73146304607E78646E5E61846FAE6BC
:100570004B45A9D2B9EB020864EB0C0E0138A3E796
:100580004046EAE7204694E74146D1E7D0467BE77C
:10059000023B654432E7084609E76444023842E713
:1005A000704700BF844641EA000313F003036DD196
:1005B000403A41D351F8043B40F8043B51F8043B26
:1005C00040F8043B51F8043B40F8043B51F8043B2D
:1005D00040F8043B51F8043B40F8043B51F8043B1D
:1005E00040F8043B51F8043B40F8043B51F8043B0D
:1005F00040F8043B51F8043B40F8043B51F8043BFD
:1006000040F8043B51F8043B40F8043B51F8043BEC
:1006100040F8043B51F8043B40F8043B51F8043BDC
:1006200040F8043B51F8043B40F8043B51F8043BCC
:1006300040F8043B403ABDD2303211D351F8043B6C
:1006400040F8043B51F8043B40F8043B51F8043BAC
:1006500040F8043B51F8043B40F8043B103AEDD21B
:100660000C3205D351F8043B40F8043B043AF9D26C
:10067000043208D0D2071CBF11F8013B00F8013B3F
:1006800001D30B8803806046704700BF082A13D34C
:100690008B078DD010F003038AD0C3F10403D21A64
:1006A000DB071CBF11F8013B00F8013B80D331F898
:1006B000023B20F8023B7BE7043AD9D3013A11F818
:1006C000013B00F8013BF9D20B7803704B78437083
:1006D0008B788370604670470000000000000000C7
:1006E000000000000000000000000000000000000A
:1006F00000000000000000000000000000000000FA
:1007000090F800F06DE9024520F007016FF0000C51
:1007100010F0070491F820F040F049804FF00004F9
:100720006FF00700D1E9002391F840F000F10800D4
:1007300082FA4CF2A4FA8CF283FA4CF3A2FA8CF30C
:100740004BBBD1E9022382FA4CF200F10800A4FA73
:100750008CF283FA4CF3A2FA8CF3E3B9D1E90423C7
:1007600082FA4CF200F10800A4FA8CF283FA4CF3FE
:10077000A2FA8CF37BB9D1E9062301F1200182FAB8
:100780004CF200F10800A4FA8CF283FA4CF3A2FABE
:100790008CF3002BC6D0002A04BF04301A4612BACC
:1007A000B2FA82F2FDE8024500EBD2007047D1E9CF
:1007B000002304F00305C4F100004FEAC50514F05E
:1007C000040F91F840F00CFA05F562EA05021CBF2F
:1007D00063EA050362464FF00004A9E70000000049
:1007E00001F0FF01102A2BDB10F0070F08D010F8E2
:1007F000013B013A8B422DD010F0070F42B3F6D1E6
:10080000F0B441EA012141EA014122F007047FF0FE
:1008100000070023F0E80256083C85EA010586EA55
:10082000010685FA47F5A3FA87F586FA47F6A5FA91
:1008300087F68EB9EED1F0BC01F0FF0102F007029D
:1008400032B110F8013B013A83EA010313B1F8D148
:100850000020704701387047002D06BF3546033829
:10086000073815F0010F07D1013015F4807F02BF62
:10087000013015F4C03F0130F0BC0138704700BFB3
:1008800081F0004102E000BF83F0004330B54FEA41
:1008900041044FEA430594EA050F08BF90EA020FAE
:1008A0001FBF54EA000C55EA020C7FEA645C7FEA41
:1008B000655C00F0E2804FEA5454D4EB5555B8BF64
:1008C0006D420CDD2C4480EA020281EA030382EAD5
:1008D000000083EA010180EA020281EA0303362D67
:1008E00088BF30BD11F0004F4FEA01314FF4801C3A
:1008F0004CEA113102D0404261EB410113F0004F4C
:100900004FEA03334CEA133302D0524263EB430302
:1009100094EA050F00F0A780A4F10104D5F1200EA0
:100920000DDB02FA0EFC22FA05F2801841F10001FB
:1009300003FA0EF2801843FA05F359410EE0A5F1CF
:1009400020050EF1200E012A03FA0EFC28BF4CF000
:10095000020C43FA05F3C01851EBE37101F00045B6
:1009600007D54FF0000EDCF1000C7EEB00006EEBC3
:100970000101B1F5801F1BD3B1F5001F0CD349084D
:100980005FEA30004FEA3C0C04F101044FEA4452A4
:1009900012F5800F80F09A80BCF1004F08BF5FEA2B
:1009A000500C50F1000041EB045141EA050130BD0B
:1009B0005FEA4C0C404141EB0101013C28BFB1F51D
:1009C000801FE9D291F0000F04BF01460020B1FA68
:1009D00081F308BF2033A3F10B03B3F120020CDA3B
:1009E0000C3208DD02F1140CC2F10C0201FA0CF019
:1009F00021FA02F10CE002F11402D8BFC2F1200C7E
:100A000001FA02F120FA0CFCDCBF41EA0C01904033
:100A1000E41AA2BF01EB0451294330BD6FEA04047C
:100A20001F3C1CDA0C340EDC04F11404C4F1200267
:100A300020FA04F001FA02F340EA030021FA04F379
:100A400045EA030130BDC4F10C04C4F1200220FAD0
:100A500002F001FA04F340EA0300294630BD21FA0E
:100A600004F0294630BD94F0000F83F4801306BFD4
:100A700081F480110134013D4EE77FEA645C18BFC8
:100A80007FEA655C29D094EA050F08BF90EA020F5F
:100A900005D054EA000C04BF1946104630BD91EA57
:100AA000030F1EBF0021002030BD5FEA545C05D15A
:100AB0004000494128BF41F0004130BD14F5800499
:100AC0003CBF01F5801130BD01F0004545F0FE410D
:100AD00041F470014FF0000030BD7FEA645C1ABF42
:100AE000194610467FEA655C1CBF0B46024650EA79
:100AF000013406BF52EA033591EA030F41F40021A5
:100B000030BD00BF90F0000F04BF0021704730B52A
:100B10004FF4806404F132044FF000054FF00001FF
:100B200050E700BF90F0000F04BF0021704730B5C0
:100B30004FF4806404F1320410F0004548BF404295
:100B40004FF000013EE700BF42004FEAE2014FEAEA
:100B500031014FEA02701FBF12F07F4393F07F4FC5
:100B600081F06051704732F07F4208BF704793F0C8
:100B70007F4F04BF41F40021704730B54FF46074DB
:100B800001F0004521F000411CE700BF50EA0102DE
:100B900008BF704730B54FF000050AE050EA010287
:100BA00008BF704730B511F0004502D5404261EBF7
:100BB00041014FF4806404F132045FEA915C3FF438
:100BC000D8AE4FF003025FEADC0C18BF03325FEAD5
:100BD000DC0C18BF033202EBDC02C2F1200300FA86
:100BE00003FC20FA02F001FA03FE40EA0E0021FAAB
:100BF00002F11444BDE600BF70B54FF0FF0C4CF499
:100C0000E06C1CEA11541DBF1CEA135594EA0C0F4A
:100C100095EA0C0F00F0DEF82C4481EA030621EA85
:100C20004C5123EA4C5350EA013518BF52EA0335C0
:100C300041F4801143F4801338D0A0FB02CE4FF072
:100C40000005E1FB02E506F00042E0FB03E54FF0A2
:100C50000006E1FB03569CF0000F18BF4EF0010E9A
:100C6000A4F1FF04B6F5007F64F5407404D25FEA96
:100C70004E0E6D4146EB060642EAC62141EA555149
:100C80004FEAC52040EA5E504FEACE2EB4F1FD0C8B
:100C900088BFBCF5E06F1ED8BEF1004F08BF5FEA09
:100CA000500E50F1000041EB045170BD06F00046BB
:100CB00046EA010140EA020081EA0301B4EB5C0468
:100CC000C2BFD4EB0C0541EA045170BD41F4801160
:100CD0004FF0000E013C00F3AB8014F1360FDEBF85
:100CE000002001F0004170BDC4F10004203C35DA61
:100CF0000C341BDC04F11404C4F1200500FA05F3E4
:100D000020FA04F001FA05F240EA020001F0004284
:100D100021F0004110EBD37021FA04F642EB0601FA
:100D20005EEA430E08BF20EAD37070BDC4F10C0424
:100D3000C4F1200500FA04F320FA05F001FA04F2E8
:100D400040EA020001F0004110EBD37041F10001D4
:100D50005EEA430E08BF20EAD37070BDC4F12005DF
:100D600000FA05F24EEA020E20FA04F301FA05F247
:100D700043EA020321FA04F001F0004121FA04F2EF
:100D800020EA020000EBD3705EEA430E08BF20EABF
:100D9000D37070BD94F0000F0FD101F000464000F9
:100DA00041EB010111F4801F08BF013CF7D041EA7B
:100DB000060195F0000F18BF704703F0004652007F
:100DC00043EB030313F4801F08BF013DF7D043EA50
:100DD0000603704794EA0C0F0CEA135518BF95EA06
:100DE0000C0F0CD050EA410618BF52EA4306D1D18D
:100DF00081EA030101F000414FF0000070BD50EAAC
:100E0000410606BF1046194652EA430619D094EA35
:100E10000C0F02D150EA013613D195EA0C0F05D11F
:100E200052EA03361CBF104619460AD181EA030173
:100E300001F0004141F0FE4141F470014FF000002B
:100E400070BD41F0FE4141F4780170BD70B54FF0C6
:100E5000FF0C4CF4E06C1CEA11541DBF1CEA135546
:100E600094EA0C0F95EA0C0F00F0A7F8A4EB050428
:100E700081EA030E52EA03354FEA013100F088801F
:100E80004FEA03334FF0805545EA131343EA1263E8
:100E90004FEA022245EA111545EA10654FEA00269D
:100EA0000EF000419D4208BF964244F1FD0404F556
:100EB000407402D25B084FEA3202B61A65EB0305B2
:100EC0005B084FEA32024FF480104FF4002CB6EB6F
:100ED000020E75EB030E22BFB61A754640EA0C00EF
:100EE0005B084FEA3202B6EB020E75EB030E22BF2F
:100EF000B61A754640EA5C005B084FEA3202B6EB70
:100F0000020E75EB030E22BFB61A754640EA9C002E
:100F10005B084FEA3202B6EB020E75EB030E22BFFE
:100F2000B61A754640EADC0055EA060E18D04FEABC
:100F3000051545EA16754FEA06164FEAC30343EA5C
:100F400052734FEAC2025FEA1C1CC0D111F4801F29
:100F50000BD141EA00014FF000004FF0004CB6E722
:100F600011F4801F04BF01430020B4F1FD0C88BFC1
:100F7000BCF5E06F3FF6AFAEB5EB030C04BFB6EBCC
:100F8000020C5FEA500C50F1000041EB045170BDBF
:100F90000EF0004E4EEA113114EB5C04C2BFD4EBEC
:100FA0000C0541EA045170BD41F480114FF0000E70
:100FB000013C90E645EA060E8DE60CEA135594EAEC
:100FC0000C0F08BF95EA0C0F3FF43BAF94EA0C0FEF
:100FD0000AD150EA01347FF434AF95EA0C0F7FF464
:100FE00025AF104619462CE795EA0C0F06D152EAB8
:100FF00003353FF4FDAE1046194622E750EA41069C
:1010000018BF52EA43067FF4C5AE50EA41047FF4AC
:101010000DAF52EA43057FF4EBAE12E74FF0FF3C11
:1010200006E000BF4FF0010C02E000BF4FF0010CE2
:101030004DF804CD4FEA410C7FEA6C5C4FEA430C5B
:1010400018BF7FEA6C5C1BD001B050EA410C0CBFAA
:1010500052EA430C91EA030F02BF90EA020F00200C
:10106000704710F1000F91EA030F58BF994208BF73
:1010700090422CBFD8176FEAE37040F00100704730
:101080004FEA410C7FEA6C5C02D150EA013C07D187
:101090004FEA430C7FEA6C5CD6D152EA033CD3D0D2
:1010A0005DF8040B704700BF8446104662468C46CC
:1010B0001946634600E000BF01B5FFF7B7FF0028FF
:1010C00048BF10F1000F01BD4DF808EDFFF7F4FF28
:1010D0000CBF012000205DF808FB00BF4DF808EDB3
:1010E000FFF7EAFF34BF012000205DF808FB00BFD6
:1010F0004DF808EDFFF7E0FF94BF012000205DF8F8
:1011000008FB00BF4DF808EDFFF7CEFF94BF0120AC
:1011100000205DF808FB00BF4DF808EDFFF7C4FFA5
:1011200034BF012000205DF808FB00BF4FEA410CEE
:101130007FEA6C5C02D150EA013C0AD14FEA430CD1
:101140007FEA6C5C02D152EA033C02D14FF000000E
:1011500070474FF0010070474FEA410212F500124C
:1011600015D211D56FF47873B3EB625212D94FEAEE
:10117000C12343F0004343EA505311F0004F23FAD8
:1011800002F018BF404270474FF00000704750EA2D
:10119000013005D111F0004008BF6FF000407047EA
:1011A0004FF00000704700BF10B586B00446002322
:1011B0008DF8173064230293012301930DF1170278
:1011C0000092024670210748006835F02FF918B9DF
:1011D0009DF8170006B010BD2146034837F0BEFA4F
:1011E000F6E700BF240A00203CE6030808B5002209
:1011F00010214FF0904034F01DFF0A2034F0A2FD82
:10120000012210214FF0904034F014FF642034F09C
:1012100099FD08BD08B5054B1860FFF7E7FFA6204C
:10122000FFF7C2FFA820FFF7BFFF08BD240A002078
:1012300030B587B004460D460220FFF7B5FF431EC8
:10124000DBB2042B02D9002007B030BD6423029327
:101250000423019305AB009301230322702111485D
:10126000006835F0E3F820B10F4837F0D9FA0020D4
:10127000EAE79DF814301B0203F470639DF8152013
:10128000134323809DF81620120202F470629DF829
:1012900017301A432A802188044837F05FFA01206A
:1012A000D2E700BF240A002058E6030870E60308CE
:1012B00010B582B004468C4600928B890A898988D1
:1012C000BCF8000034F074FA204607F0DEFC02B0EF
:1012D00010BD08B534F09EFA08BD000010B582B00C
:1012E000FFF7F7FF4FF4F0714FF4A07007F01EFD09
:1012F0000446074907F04EFC002300934FF4C853FF
:10130000044A0549204607F05DFC02B010BD00BF4D
:10131000B112000828230020280A002010B582B04E
:101320000C4601A90DF10600FFF782FFC0B1BDF820
:101330000430C3F5F073ADF80430BDF80630C3F5E2
:10134000A0739BB2ADF806302360BDF80420626044
:101350000121A17407490B80074B1A8002B010BD10
:10136000044B1B882360044B1B8863600023A37419
:10137000F4E700BF2C3C00202E3C002008B50248BA
:10138000FFF748FF08BD00BF243E012010B5FFF75E
:10139000F5FF1AF0D7FA054C206001211AF022FB64
:1013A000034920681AF025FB10BD00BF283C00202F
:1013B0001D13000870B5054600201AF0FFFA044618
:1013C000002603E020461AF0F9FA044664B12046EC
:1013D0001AF012FB012806D020461AF017FB8542AE
:1013E000F0D12646EEE72646304670BD2DE9F0479F
:1013F000037F13F0010F6FD106468A469146C568F8
:101400004FF001080027E5B1012357B32BB129465E
:101410003046C8470546874269D0002DF3D028687A
:1014200000F088FD10F0800FEDD12C68ECB10121A7
:10143000204600F072FDC0B9204606F025F80446AB
:10144000F4E7337F13F0080F01D1002F49D1B8F131
:10145000000F43D03046D04705464FF000084346C2
:10146000D3E7002D40D02F46D0E72CB101212046F4
:1014700000F053FD0028C6D1F368AB423AD08BB1DF
:101480001C683046FFF796FF02461121204601F006
:101490003DFE012802D04FF000081FE0F3681868F5
:1014A00002F02EFDF5602C683046FFF783FF024600
:1014B0001021204601F02AFE012802D04FF000083A
:1014C0000CE0F368186802F01BFD3369ABB13046DD
:1014D00098474FF0010801E04FF000084046BDE892
:1014E000F0874FF00008F9E74FF00008F6E74FF0FB
:1014F0000008F3E74FF00008F0E74FF00108EDE7D0
:1015000008B52021014820F047FD08BD643C0020BB
:10151000014B186C704700BF303C002060B110B523
:101520000446064A0649FFF761FF63691BB110B91B
:1015300001212046984710BDFEE700BF3520020874
:101540002520020860B110B50446064A0649FFF797
:101550004DFF63691BB110B900212046984710BDAB
:10156000FEE700BF3D2002082D20020838B50446E2
:10157000037FC3F3C00543F008030377DBB213F026
:10158000040F06D1FFF7CAFF237F65F3C303237758
:1015900038BDFFF7D7FFF7E770B5064600F0D2FC7D
:1015A000002849D00546C36813B11B68B34213D065
:1015B000EB6813B11B68B34230D0284620F032FDEF
:1015C0000446002C38D02368B3422AD0214628464E
:1015D00020F030FD0446F4E7037F13F0010F03D041
:1015E000037F6FF300030377284620F01BFDEB68B1
:1015F000834203D02846FFF7B9FFD9E7284620F0F9
:1016000015FDEB688342F5D11C682846FFF7D2FE32
:1016100002461121204601F079FDC9E70023EB6065
:10162000CBE72146284620F03FFD204623F01EFD53
:10163000B3680BB100225A6070BDF0B170B50C46B2
:1016400005460846FFF7A8FFA3686BB1A3685D6075
:10165000284620F0C8FC064650B10460284620F019
:10166000E1FC864205D070BD204600F0E0FEEDE7CB
:10167000FEE72846FFF77AFFF5E7704718B1C06824
:1016800008B100687047704710B582B0019150B141
:10169000FFF7F4FF044668B1802100F04DFC18B15B
:1016A000012002B010BDFEE701AA0E21204601F084
:1016B0002DFDF6E70120F4E7D8B170B50446037FAD
:1016C000C3F340038B4213D0037F61F341030377DD
:1016D000FFF7D4FF054658B1E3681E682046FFF7C0
:1016E00069FE02461021304601F010FD012801D0AC
:1016F00070BDFEE7284602F003FCF9E7002845D05C
:10170000F8B5054600F01EFC064618B1037F13F03D
:10171000010F00D0F8BD0021FFF7CEFF304620F0CA
:1017200081FC0446002CF5D02368AB4205D021464D
:10173000304620F07FFC0446F4E7F36883B11F686D
:10174000AF420DD03046FFF735FE02461121384634
:1017500001F0DCFC0128DDD1F368186802F0D0FB51
:10176000F46033690BB130469847F3681C68304623
:10177000FFF720FE02461021204601F0C7FC012899
:10178000C8D1F368186802F0BBFBC3E7704718B113
:10179000007FC0F3400070470020704718B108B5C3
:1017A00020F0DFFC08BDFEE730B589B005460C46E9
:1017B000084609F023FB1D224FF48031284604F02F
:1017C00027FF0190C0B284F8200002283ED83222C0
:1017D0004FF48031284604F01BFF0190C0B284F81A
:1017E000480002284CD83E224FF48031284604F0AD
:1017F0000FFF0190C0B284F86C00022867D84FF444
:101800008031284605F0F9F8FC280BD894F82030F0
:1018100003FB00F0C0F3072084F8200084F84800A0
:1018200084F86C0094F820302BB994F8483013B940
:1018300094F86C0040B10C224FF48031284604F03B
:10184000E7FE0190E061012009B030BD1C224FF499
:101850008031284604F0DCFE0190ADF80C00030C4A
:101860008DF80E30039BADF808301B0C8DF80A3054
:10187000BDF80820DBB2A4F8212084F82330A6E7C5
:1018800030224FF48031284604F0C2FE019060649B
:10189000002803DC002384F84830A4E731224FF409
:1018A0008031284604F0B4FE0190ADF81400030C1A
:1018B0008DF81630059BADF810301B0C8DF81230EA
:1018C000BDF81020DBB2E28784F840308BE73C2281
:1018D0004FF48031284604F09BFE0190E06500281B
:1018E00003DC002384F86C3089E742224FF4803116
:1018F000284604F08DFE0190A0663D224FF4803111
:10190000284604F085FE0190ADF81C00030C8DF80C
:101910001E30079BADF818301B0C8DF81A30BDF83F
:101920001820DBB2A4F8592084F85B3067E730B5A3
:10193000A5B004460D461CAA20A903F0F3FF20A879
:101940001FF03CF818B91CA81FF038F828B16946F8
:101950002046FFF729FF012801D025B030BD20A87F
:101960001FF02CF860B91CA81FF028F80028F4D04C
:10197000012302931CAA6946284609F0CAFAECE73B
:101980000023029320AA6946284609F0C2FAEAE732
:10199000F0B5A1B0064620F0E2F80546304620F04A
:1019A000DAF80446172D07D01A2D00F086801D2D79
:1019B00000F0BC8021B0F0BD304620F0D4F80546E0
:1019C0000378022BF6D02D220021204604F020FEC1
:1019D000049010B102232B70ECE70C22002120466A
:1019E00004F016FE0646049068220021204604F00A
:1019F0000FFE0746049069220021204604F008FEED
:101A00000246049063690493A3690593E36906930E
:101A1000236A0793394604A81EF0DAFF324604A968
:101A200068681FF030FB10B901232B70C2E71D223C
:101A30000021204604F0ECFD0090C0B2FC2802D842
:101A400001232B70B6E75F220021204604F0E0FD61
:101A50000090C0B2FC2802D801232B70AAE72022F4
:101A60000021204604F0D4FD009010F0FF0F08D0B4
:101A700025220021204604F0CBFD0090C0B2FC28B6
:101A800012D926220021204604F0C2FD009088B120
:101A90000023827A9A420DD903EB83020244D27862
:101AA000FC2A04D90133F4E701232B7082E70123D8
:101AB0002B707FE700232B707CE7304601F07BFB27
:101AC000064604A809F09AF904AA0021204600F06D
:101AD000BCFD35220021204604F09AFD009028B17B
:101AE0009DF8593043F020038DF8593068220021C9
:101AF000204604F08DFD0546009069220021204615
:101B000004F086FD0246009063690093A369019387
:101B1000E3690293236A0393294668461EF058FF3F
:101B20006A4604A9304609F0F4F943E7304601F06B
:101B300042FB054601462046FFF7F9FE352200210B
:101B4000204604F065FD049000283FF433AF04A85C
:101B500009F054F900268DF830608DF84B608DF84F
:101B600068608DF87C6004AA3146204600F06DFD67
:101B700068223146204604F04BFD0746009069225A
:101B80003146204604F044FD02460090636900930C
:101B9000A3690193E3690293236A03933946684674
:101BA0001EF016FF6A4604A9284609F0B2F901E7BB
:101BB0002DE9F04182B00C464D6805B3284603F08C
:101BC00035FA0746284603F0B1F98046AE6910227F
:101BD0000021284604F01CFD01900644A6EB0803F2
:101BE000A361013B23626E6912220021284604F0A2
:101BF0000FFD01900644F01B60610138E061022393
:101C0000636241F20203636215B143F2020363624D
:101C10001DB1636A43F440736362636A43F0040274
:101C2000626243F01402626243F03402626243F083
:101C30007403636243F40063636215B143F40043C9
:101C4000636202B0BDE8F0812DE9F04F89B00C4627
:101C50000391018D0591A14206D00646224604F06B
:101C600092FD049018B9348509B0BDE8F08F304674
:101C700002F046F9039B3385304604F0FCFE4FF436
:101C8000207023F0E1F905464FF0000C644618E09F
:101C9000D3F800E000230EEBC3081EF8332062B136
:101CA000662A01D00133F6E7D8F804300793012201
:101CB00003E059F8233007930122012A30D00CF1B8
:101CC000010C738DC3F30513634574D91F2C6CD8B5
:101CD000F3684FEACC0E03EBCC07796888B201F4C5
:101CE0007F01039A30EA0202E9D1FA7912F0020286
:101CF000E5D153F80E3093F80880B8F1FF0FC7D044
:101D0000D3F800904FEA880A00239845D5D909EB0B
:101D10000A0E1EF803E0BEF1660FCAD00133F4E7E5
:101D2000DDF81C804FF0000E17E0013294420FD90D
:101D300002EB820305EB830359681FFA81F901F472
:101D40007F011B7A5345F0D15945EED18145ECD343
:101D5000594694420DD00EF1010ED8F8003013F818
:101D60000EA0BAF1000FAAD01F2CA8D800228B46D3
:101D7000DCE7D8F80C3004EB840905EB890225F880
:101D80002930D8F810305380D8F80830D360D8F80C
:101D9000003013F80E301372D8F8043013617B68EA
:101DA000C3F3170353600134D5E70027DDF814802F
:101DB000DDF80C9004E00027DDF81480DDF80C90CD
:101DC000BC420ED907EB870305EB830359680093E8
:101DD0004B46424601F47F01304605F0F1F80137E9
:101DE000EEE7284623F042F9049B012B0DD0049B1B
:101DF000032B11D0049B022B7FF436AF304602F048
:101E00007FF8304601F093F82EE7FF224FF470215F
:101E1000304604F04BFE27E7FF224FF47021304696
:101E200004F044FE20E7000010B50146044800F02D
:101E300041FB20B1044600F0CDFB204610BDFEE77B
:101E400088E6030870B588B004460D4601F002FB31
:101E5000064615F0100F15D1636A23EA0503636285
:101E600015F0010F1CD1204601F0F4FAB04202D166
:101E700015F0C07F04D0204605F006FB01F008FBFA
:101E800008B070BD04AA6946204603F04BFD6946C0
:101E9000204602F007F804A9204602F003F8DBE729
:101EA000204602F02DF8204601F0D4FA0028DAD0BE
:101EB000204605F0E9FA01F0EBFA204601F0E8FAD5
:101EC000D1E738B5038D43EA010531EA030209D0B1
:101ED000044625EA030313F0800F04D12946204667
:101EE000FFF7B2FE38BD014600201AF0B1FEF5E75B
:101EF00008B5028DB0F9283023EA010189B28A427F
:101F000000D108BDFFF7A0FEFBE708B512B1FFF74F
:101F1000D8FF08BDFFF7ECFFFBE7436A31EA030394
:101F20000CBF012000207047436A0B4214BF012000
:101F300000207047008D7047038D0B4214BF0120B5
:101F400000207047806800B140687047F0B589B0E4
:101F50000E4608461FF003FE044630461FF0FBFD08
:101F60000546012C34D0082C37D0032C5AD02F2C06
:101F70005CD00E2C69D0102C00F02B81092C00F0C5
:101F800059810B2C00F05A81112C00F06E812E2CFF
:101F900000F06F81272C00F08E81292C00F0B38196
:101FA000182C00F0B9811A2C00F0BE811D2C00F015
:101FB000BB81172C00F0B881142C00F0B981152CCE
:101FC00000F0BE81162C06D11021FFF791FF02E030
:101FD0002021FFF776FF09B0F0BD2021FFF788FF31
:101FE00030461FF0C0FD19F03BFD0028F3D1082159
:101FF0002846FFF792FF0028EDD02846FFF79AFF0A
:1020000010F0010F09D101212846FFF75AFF0022E5
:102010002021284601F07AF8DDE701212846FFF764
:1020200067FFF4E72021FFF763FFD4E705F09BFA91
:102030000646002406E0AB681B6853F8240001F054
:1020400027FA0134B442F6D3C5E70821FFF765FF4C
:10205000D8BB4FF401612846FFF75FFF0028BAD0D4
:10206000284600F08DFA0028B5D1284602F0DEFFA0
:102070000746284603F068F80446304601F0ADF8FC
:10208000122840D0112850D0132860D01428A2D193
:10209000284602F023FF10F0030F00F08680002F87
:1020A00002DC002C40F38180284602F031FF044618
:1020B000284601F08DFA011EC0F289800022A4EBAF
:1020C000A101284603F02AFA85E7304601F085F899
:1020D000044613280AD0112808D0142801D0122849
:1020E00008D101212846FFF703FF03E0012128461C
:1020F000FFF7E7FE0A2C3FF46EAF002220212846AE
:1021000001F004F867E7284602F009FF0446284674
:1021100001F063FA011E06DB002204EBA101284650
:1021200003F010FA57E70331F6E7284602F0F7FE0E
:102130000446284601F051FA011E06DB0022A4EBFA
:10214000A101284603F0FEF945E70331F6E72846EA
:1021500002F0C4FE10F0030F13D0002F01DC002C9E
:102160000FDD284602F0D4FE0446284601F030FA7E
:10217000011E18DB002204EBA101284603F0CEF972
:1021800029E7284602F0CBFE0446284601F025FA4E
:10219000011E06DB002204EBA101284603F0D2F960
:1021A00019E70331F6E70331E4E7284602F0B7FE0A
:1021B0000446284601F011FA011E06DB0022A4EBBA
:1021C000A101284603F0BEF905E70331F6E7033124
:1021D00074E74FF48061FFF7A0FEB0B92846FFF71F
:1021E000B1FEFFF7D4FA044619F0F6FB90B119F0EE
:1021F00003FC022812D0042812D0022194B141F02D
:1022000008012846FFF75DFEE5E60121284603F0B8
:102210006BFBE3E7304600F0B1FFE8E70621EDE7AE
:102220000621EBE72846FFF74CFE08212846FFF77A
:102230005FFED0E64021FFF744FECCE64021FFF7E9
:1022400057FE284602F041FE02287FF4C4AE04AADD
:102250006946284603F066FB6946284601F022FEDF
:1022600004A9284601F01EFEB5E60E21FFF740FE48
:10227000B1E60A22002104F0CBF90490C4B2162280
:102280000021284604F0C4F9049080B200B914B1CA
:10229000284601F0FDF8284605F065F906460024B9
:1022A00006E0AB681B6853F8240001F0F1F8013434
:1022B000B442F6D38FE60122002104F0A9F90446C6
:1022C000049002220021284604F0A2F90646049058
:1022D0000A220021284604F09BF90490C7B2162276
:1022E0000021284604F094F9049083B23BB937B931
:1022F0006FF040439C4202D09E427FF46CAE284671
:1023000001F0C6F867E690F82A3043F0020380F83F
:102310002A3001F0BDF85EE6002100F092FD014692
:10232000304600F074FF56E63046FFF731FB52E6C8
:102330002021FFF7DDFD40212846FFF7D9FD4AE6C1
:102340001021FFF7BEFD46E610B50C4608461FF00B
:102350000FFC002004F056F9204604F0B9FC0120DF
:1023600004F050F9002120461EF034FA2046FFF711
:10237000E9FD10B12046FFF70FF9A3687BB118689B
:1023800020B122F073FEA36800221A60A068083012
:102390001FF0C9FBA06822F069FE0023A36010BDF6
:1023A000F0B589B004460D4601F054F8064615F024
:1023B00001072AD1636A2B4363628FB10221204651
:1023C000FFF7BAFD60B12046FFF7BCFD074638B104
:1023D000FFF7A4F83846FFF751F908B101F090FD76
:1023E000204601F037F8B04202D115F0C07F07D087
:1023F000204605F049F801F04BF8204601F048F876
:1024000015F0100F05D109B0F0BD204601F078FDA0
:10241000D0E704AA6946204603F084FA69462046BC
:1024200001F040FD04A9204601F03CFDEBE7836884
:1024300003B1704710B504462C2022F005FEA060C1
:1024400058B1438D43F470734385A26892F82A30E3
:1024500043F0030382F82A3010BDFEE728B100687C
:10246000884214BF0020012070470020704770B5DB
:1024700005460C460E6833681BB10B60FFF7F7FF8B
:10248000266023685B6813B121462846984770BDD3
:1024900000E0006820B1026A054B1340002BF8D021
:1024A00018B1006AC0F30F1070470020704700BFDA
:1024B000F0FF0F0070B506460C46FFF7E9FF22F06B
:1024C000C3FD0546C0B106604460BCB1A368002BE3
:1024D00043D0A268138D01331385A668318D89001E
:1024E000306822F0CDFD3060A3681A681B8D03F1BF
:1024F0008043013B42F82350284670BD06F0E4FAC1
:10250000044600B3D0F8B40210B3D4F8D0120131AD
:10251000890022F0B5FDF8B1D4F8D022511CC4F8DE
:10252000D012C4F8B40240F8225000246C61AC61AF
:10253000204606F0DDFA0138E861204606F0EEFAA2
:1025400001382862D8E7284622F090FD2546D3E7D7
:102550000023C4F8D032D8E7FEE72046FFF767FF34
:10256000B7E710B50446006883680BB12146984769
:1025700023681B681BB123602046FFF7F2FF10BDE4
:10258000036800E01B6823B193F8202012F0030FCA
:10259000F8D043B193F8200000F00300012814BFE5
:1025A00000200120704700207047036800E01B688E
:1025B00023B193F8202012F00C0FF8D043B193F818
:1025C000200000F00C00042814BF002001207047F8
:1025D00000207047C0B338B5044600F059FF002012
:1025E00004F010F8204625F031FE21462068FFF760
:1025F0003EFF012004F006F8FF224FF47021204630
:1026000004F054FA204601F0E9FAFEF781FF05468E
:1026100018B12046FFF7C9FF88B9204604F034FFFF
:10262000054658B12246272100F070FD2246282198
:10263000284600F06BFD204601F062FC38BD2146C3
:102640002846FEF7FAFFE8E77047F0B59BB007466B
:102650000D4614461060516004F0CFF906460DB1E6
:10266000022845D90C222946384603F0D1FF0190B3
:10267000E06194F82030002B46D194F84830002BCC
:1026800040F0E98094F85830002B40F0248194F811
:102690003B30002B40F05B8194F86C30002B40F015
:1026A000C581FC2E22D894F8203006FB03F31B12C0
:1026B00084F8203094F83B3006FB03F31B1284F8B7
:1026C0003B3094F8483006FB03F31B1284F8483083
:1026D00094F86C3006FB03F31B1284F86C3094F80A
:1026E000580000FB06F6361284F858601BB0F0BDA7
:1026F000002384F8203084F83B3084F8483084F894
:10270000583084F86C30F1E71D222946384603F032
:102710007FFF0190C0B284F820000228ADD91C22AE
:102720002946384603F074FF02460490294638468D
:1027300003F0FDFF0190ADF80C00030C8DF80E3096
:10274000039BADF808301B0C8DF80A30BDF808204B
:10275000DBB2A4F8212084F823302622294638460B
:1027600003F056FF019018B1C37A13F0070F6BD135
:1027700020222946384603F04BFF019094F82F3071
:1027800060F3020384F82F30DBB213F0070F3FF43D
:1027900074AF1C222946384603F03AFF02460A90DD
:1027A0002946384603F0C3FF0190ADF82400030C1E
:1027B0008DF82630099BADF820301B0C8DF82230A7
:1027C000089BA3841B0C84F8263023222946384614
:1027D00003F01EFF024607902946384603F0A7FF84
:1027E0000190ADF81800030C8DF81A30069BADF877
:1027F00014301B0C8DF81630BDF81420DBB2A4F891
:10280000292084F82B3021222946384603F000FF86
:10281000019084F8280022222946384603F0F8FE69
:10282000019084F82D0024222946384603F0F0FE5A
:10283000019084F8270025222946384603F0E8FE57
:10284000019084F82C0018E70C22014604F12400C2
:1028500021F04CFF11E730222946384603F0D8FE1C
:102860000190606400283FF40DAF322229463846BB
:1028700003F0CEFE0190C0B284F8480002287FF633
:1028800001AF34222946384603F0C2FE019094F885
:10289000493060F3040384F8493031222946384630
:1028A00003F0B6FE02460D902946384603F03FFF7E
:1028B0000190ADF83000030C8DF832300C9BADF870
:1028C0002C301B0C8DF82E30BDF82C20DBB2E287AB
:1028D00084F84030D6E638222946384603F098FE80
:1028E0000190206500283FF4D2AE3A2229463846AE
:1028F00003F08EFE0190C0B284F8580002287FF6E3
:10290000C6AE3B222946384603F082FE0190606540
:1029100039222946384603F07BFE024610902946AC
:10292000384603F004FF0190ADF83C00030C8DF82D
:102930003E300F9BADF838301B0C8DF83A30BDF8A7
:102940003820DBB2A4F84A2084F84C309FE62822D5
:102950002946384603F05CFE0190206300283FF4CE
:102960009BAE29222946384603F052FE0190C0B2A0
:1029700084F83B0002287FF68FAE206B07F044FC02
:1029800002282FD02A222946384603F041FE02466B
:1029900016902946384603F0CAFE0190ADF854005F
:1029A000030C8DF85630159BADF850301B0C8DF88C
:1029B0005230149B23871B0C84F83A302B22294673
:1029C000384603F025FE019084F83C002C2229466D
:1029D000384603F01DFE0190003818BF012084F82E
:1029E0003D0059E65A222946384603F011FE01906F
:1029F000606358222946384603F00AFE02461390C7
:102A00002946384603F093FE0190ADF84800030CC8
:102A10008DF84A30129BADF844301B0C8DF84630CF
:102A2000119B23871B0C84F83A3035E63C2229465B
:102A3000384603F0EDFD0190E06500283FF431AE2B
:102A400094F86C30022B7FF62CAE3E222946384695
:102A500003F0DEFD0190C3B284F86C30022B7FF6E8
:102A600020AE40222946384603F0D2FD0190206670
:102A700041222946384603F0CBFD01906066422290
:102A80002946384603F0C4FD0190A0663D22294640
:102A9000384603F0BDFD024619902946384603F03A
:102AA00046FE0190ADF86000030C8DF86230189B73
:102AB000ADF85C301B0C8DF85E30BDF85C20DBB2ED
:102AC000A4F8592084F85B30EBE570B584B0064675
:102AD0000D46144610605160592203F099FD009094
:102AE000C3B284F84830022B01D804B070BD294627
:102AF000304603F082FFFC2806D894F8483003FBE8
:102B000000F0001284F8480094F84830022BECD909
:102B100058222946304603F07BFD024603902946A1
:102B2000304603F004FE0090ADF80800030C8DF869
:102B30000A30029BADF804301B0C8DF80630019B67
:102B4000A3851B0C84F82E305B222946304603F007
:102B50005FFD0090E0635C222946304603F058FD9B
:102B60000090A0635D222946304603F051FD00909D
:102B700094F84C3060F3020384F84C307DB95A224B
:102B80002946304603F044FD009020625E2229462B
:102B9000304603F03DFD009084F84A00A5E7672227
:102BA0002946304603F034FD009094F84C3060F331
:102BB000C50384F84C30E2E7F0B585B005460E4613
:102BC000144610605160442203F022FD0090C3B20D
:102BD00084F84C30022B01D805B0F0BD31462846B0
:102BE00003F00BFFFC2806D894F84C3003FB00F0F0
:102BF000001284F84C0094F84C30022BECD90023DE
:102C0000E3624FF480732363636305F1140738466E
:102C10001EF047F800EBD0704010206438461EF0DC
:102C200045F800EBD07040106064462231462846DB
:102C300003F0EEFC009084F84B0045223146284614
:102C400003F0E6FC024603903146284603F06FFD90
:102C50000090ADF80800030C8DF80A30029BADF827
:102C600004301B0C8DF80630019BA4F848301B0C77
:102C700084F84A30002EAFD067223146284603F050
:102C8000C7FC009094F84D3060F3030384F84D3096
:102C9000A2E770B584B006460D4614461060516038
:102CA0004D2203F0B5FC0090C3B284F83C30022BF7
:102CB00001D804B070BD2946304603F09EFEFC28C2
:102CC00006D894F83C3003FB00F0001284F83C0076
:102CD00094F83C30022BECD948222946304603F0C8
:102CE00097FC009020630028E3D04C222946304610
:102CF00003F08EFC024603902946304603F017FD90
:102D00000090ADF80800030C8DF80A30029BADF876
:102D100004301B0C8DF80630019BA3851B0C84F836
:102D20002E3049222946304603F072FC0090606341
:102D300010BB4B222946304603F06AFC0090003855
:102D400018BF012094F83D3060F3820384F83D30D1
:102D5000DBB260F3C30384F83D30002DA9D06722B5
:102D60002946304603F054FC009094F83D3060F35F
:102D7000010384F83D309CE74A222946304603F09F
:102D800047FC0090A063D4E770B584B005460E46BA
:102D9000144610605160502203F03AFC009020620B
:102DA00008B904B070BD53223146284603F030FC08
:102DB0000090C0B284F83C000228F2D9314628467F
:102DC00003F01BFEFC2806D894F83C3003FB00F00F
:102DD000001284F83C0094F83C30022BE1D95222D6
:102DE0003146284603F014FC02460390314628463B
:102DF00003F09DFC0090ADF80800030C8DF80A303C
:102E0000029BADF804301B0C8DF80630019BA383A8
:102E10001B0CA37754223146284603F0F9FB00909F
:102E2000A06351223146284603F0F2FB009000389F
:102E300018BF012094F83D3060F3000384F83D3062
:102E4000AFE72DE9F04182B006460F463C2203F081
:102E5000DFFB01908046F8B938223946304603F04E
:102E6000D7FB05460190002847D1682239463046F5
:102E700003F0CEFB0446019069223946304603F048
:102E8000C7FB0190A042B8BF2046002800DD804467
:102E9000404602B0BDE8F0813E223946304603F09C
:102EA000B7FB0190C0B2022802D84FF00008D3E768
:102EB00008EBD8746410013442223946304603F0DE
:102EC000A7FB0190044440223946304603F0A0FBA2
:102ED0000546019041223946304603F099FB0190A6
:102EE0000028B8BF4042002DB8BF6D42A842ACBF19
:102EF0002418641924EAE478AEE73A2239463046C9
:102F000003F086FB0190C0B20228AED93B223946BD
:102F1000304603F07DFB01900544A845B8BFA846A4
:102F2000A3E783680BB1586A70470020704730B53B
:102F300083B00446FFF7F5FF05460023019301AA7D
:102F40001821204600F0E2F8A36833B1019A5A62D2
:102F5000019BAB420BD103B030BD019B002BF7D0DE
:102F60002046FFF764FAA368019A5A62F0E7204608
:102F700000F0C6FFEFE7836823B193F82B00C0F39E
:102F80008100704700207047037E13F0040F55D175
:102F900010B504460389283B012B01D8012010BD40
:102FA0004FF480410068FEF7B8FF0028F7D023896E
:102FB000133B1E2BF3D801A252F823F0393000083E
:102FC0009F2F00089F2F00089F2F0008393000080E
:102FD000393000083930000839300008393000082D
:102FE000393000083930000839300008393000081D
:102FF0009F2F00089F2F0008393000089F2F0008DE
:103000009F2F00089F2F0008393000083930000832
:1030100039300008393000089F2F00089F2F000822
:103020009F2F00089F2F0008393000083930000812
:103030009F2F0008393000080020B0E700207047BB
:1030400010B50C4608B1006803E00B68186800E092
:10305000006810B1C368002BFAD060B1C36863B1D7
:103060000023E360C36821469847237E13F0010FD5
:1030700005D1012010BD0120FCE70120FAE7002066
:10308000F8E770B5044618F0A7FC30B1237E13F0C2
:10309000020538D113F0010F36D123689E6806B1BE
:1030A00008360122214630461EF0E2FC0546012882
:1030B0002AD1237E13F0020F26D121460020FFF7EC
:1030C000BFFF054601281FD1237E13F0020F1BD13D
:1030D0000022214630461EF0CBFC0546012813D1C4
:1030E000237E13F0020F0FD1206804F0CDF90646BD
:1030F00050B12046FFF748FF30B126602046FFF769
:10310000C0FF054600E00125284670BD10B588B017
:1031100018B301900290ADF80C10002304930592AF
:103120009DF81C2063F300028DF81C20D2B263F3DB
:1031300082028DF81C20D2B263F341028DF81C206C
:1031400001A81EF087FC01A8FFF79BFF044601A819
:103150001EF088FC204608B010BD0124FAE7F8B53F
:1031600007460C4615461E46FFF761F9B868334618
:103170002A46214608301EF0B5FCF8BD08B5038983
:103180005A1E92B2082A11D90B2B0FD00C2B0DD03E
:103190000D2B0BD00E2B09D0102B07D0112B05D0E7
:1031A000122B03D0152B01D0162B02D11EF0DBFC05
:1031B00008BD0020FCE708B50289A2F119039BB203
:1031C000022B05D91D2A03D01C2A01D01E2A02D1A8
:1031D0001EF0C9FC08BD0020FCE708B503890E2BD2
:1031E00001D0002008BD1EF0BEFC08B10068F9E760
:1031F0000020F7E708B503890F2B01D0002008BD98
:103200001EF0B1FC08B10068F9E70020F7E7038978
:10321000182B00D0704710B50C461EF0A4FC0168B6
:10322000A142B8BF2146016010BD00002DE9F04F5A
:103230008BB00446059192461F466E22002103F092
:10324000E7F98046079083466C220021204603F070
:10325000DFF9054607900128B8BF01256D2200213E
:10326000204603F0D5F9064607900128B8BF01268D
:10327000B8F1000F02D1B5F5807F3BD06F2200215D
:10328000204603F0C5F907900890702200212046DF
:1032900003F0BEF907900990089B03F0C042B2F119
:1032A000005F2BD0099B03F0C042B2F1005F42D017
:1032B0006369089A13440893A369099A134409930C
:1032C0004FB1C8F1000B4FF6FF73EA1892FBF5F50A
:1032D000334493FBF6F687F00107029708AB01939E
:1032E00000962B465A46514605981DF0E7FB0BB059
:1032F000BDE8F08FB6F5807FC0D1F8E723F0C04974
:103300006FF060439945CDDAB9F1805F05DBC9F113
:103310007F6909F57F2909F6FF7904F114001DF092
:10332000C0FC09FB00F0124B83FB0023C017C0EB6D
:1033300063100890B6E723F0C0496FF060439945E9
:10334000B6DAB9F1805F05DBC9F17F6909F57F293C
:1033500009F6FF7904F114001DF0A8FC09FB00F048
:10336000034B83FB0023C017C0EB631009909FE75A
:103370001F85EB5130B583B005460C46002301AAEA
:10338000082103F0B3F9012807D020B90022214613
:10339000284603F0E6FF03B030BD019BA342F5D100
:1033A000F3E730B583B005460C46002301AA092196
:1033B00003F09CF9012807D020B9002221462846B5
:1033C00003F0DAFF03B030BD019BA342F5D1F3E770
:1033D00038B504461546FFF7CDFF29462046FFF7CE
:1033E000E0FF38BD30B583B005460C46002301AA86
:1033F000012103F07BF9012807D020B900222146E2
:10340000284603F08DFF03B030BD019BA342F5D1E8
:10341000F3E730B583B005460C46002301AA02212C
:1034200003F064F9012807D020B90022214628467C
:1034300003F08CFF03B030BD019BA342F5D1F3E74D
:1034400038B504461546FFF7CDFF29462046FFF75D
:10345000E0FF38BD30B583B004460C49FEF764FD8B
:1034600018B10025284603B030BD0546204604F0BB
:103470000BF80028F6D01622002103F0C9F80190BD
:1034800080B20028EED00125ECE700BF0100060065
:1034900008B590F82A2042F0010280F82A2003F0B3
:1034A000F7FF90F82A2042F0040280F82A2003F067
:1034B000F7FF0022352105F021FD08BD10B50446B7
:1034C000002289B203F084FF2046FFF7E1FF10BD20
:1034D00070B5044615461E46002203F058FF3246DA
:1034E00029462046FFF774FF70BD43690B6083696E
:1034F0004B60C3698B60036ACB6070472DE9F04174
:1035000082B0044603F0C0FF30B3054664694069E9
:10351000241A284601F0FCFC04441222002128460B
:1035200003F076F8064601908046302200212846B6
:1035300003F06EF80746019034220021284603F07C
:1035400067F8019010F0040F01D006EB0708A4EB18
:10355000080002B0BDE8F0816069FAE72DE9F041AA
:1035600082B0044603F090FF30B30546A469806939
:10357000241A284601F0D3FC0444102200212846D6
:1035800003F046F806460190804630220021284686
:1035900003F03EF80746019034220021284603F04C
:1035A00037F8019010F0020F01D006EB0708A4EBEA
:1035B000080002B0BDE8F081A069FAE700B583B069
:1035C0000922002103F024F8019003B05DF804FB08
:1035D00008B514301DF065FB08BD08B514301DF0AA
:1035E00065FB08BD38B50546FFF7B8FF0446284619
:1035F000FFF7F3FF204438BD2DE9F04182B00446C7
:103600001222002103F004F80546019006463022FC
:103610000021204602F0FCFF0746019034220021E1
:10362000204602F0F5FF019010F0040F00D0EE19D3
:1036300013220021204602F0EBFF05460190804650
:1036400030220021204602F0E3FF07460190342299
:103650000021204602F0DCFF019010F0080F01D09D
:1036600005EB07082046FFF7B3FF801BA0EB08001F
:1036700002B0BDE8F0812DE9F04182B0044610228D
:10368000002102F0C5FF05460190064630220021C8
:10369000204602F0BDFF074601903422002120465B
:1036A00002F0B6FF019010F0020F00D0EE191122C7
:1036B0000021204602F0ACFF0546019080463022F2
:1036C0000021204602F0A4FF074601903422002189
:1036D000204602F09DFF019010F0010F01D005EB94
:1036E00007082046FFF779FF801BA0EB080002B017
:1036F000BDE8F0812DE9F04182B004460D46FFF7A8
:10370000F4FE12220021204602F082FF06460190BC
:10371000804630220021204602F07AFF07460190C1
:1037200034220021204602F073FF019010F0040FB4
:1037300001D006EB07082B6843442B6013220021BD
:10374000204602F065FF06460190804630220021A7
:10375000204602F05DFF07460190342200212046FA
:1037600002F056FF019010F0080F01D006EB070899
:10377000AB68A3EB0803AB6010220021204602F0E7
:1037800047FF06460190804630220021204602F085
:103790003FFF0746019034220021204602F038FF07
:1037A000019010F0020F01D006EB07086B6843444C
:1037B0006B6011220021204602F02AFF064601908C
:1037C000804630220021204602F022FF0746019069
:1037D00034220021204602F01BFF019010F0010F5F
:1037E00001D006EB0708EB68A3EB0803EB6002B01F
:1037F000BDE8F08100B583B000230093044B019332
:103800006A463121FFF782FC009803B05DF804FBA3
:10381000010000E02DE9F04F85B0044601F078FB8F
:103820000190A3680BB100229A6113220021204667
:1038300002F0EEFE0546039083463022002120462A
:1038400002F0E6FE0646039034220021204602F0F4
:10385000DFFE039010F0080F01D005EB060B1222DB
:103860000021204602F0D4FE05460390009030224D
:103870000021204602F0CCFE0646039034220021AF
:10388000204602F0C5FE039010F0040F01D0AB19E2
:1038900000932046FFF7AEFF009B00EB030ADA44DB
:1038A000204603F060FE814627220021204602F0D8
:1038B000AFFE0390C0B2012859D00025654F7DE0CE
:1038C0000A220021304602F0A3FE0390C0B208286D
:1038D0000CD8DFE800F0050B0B050B0B050B050002
:1038E000E36972699B1A03F101082EE008220021A6
:1038F000304602F08DFE039010B1DFF8588124E0CD
:1039000006F114001DF0CDF900EB0B081A2200217E
:10391000304602F07DFE0390804416E001354D45AF
:1039200028D2A3681B6853F825604B493046FEF740
:10393000FBFA0028F2D13046FFF78CFD0028BFD0FB
:10394000E36972699B1A03F101081A2200213046CB
:1039500002F05EFE03904044B842DFDB1A220021F1
:10396000304602F055FE039008EB0007D6E700252D
:10397000384FD4E7374B9F425DD0009B1F445AE03D
:103980000A220021304602F043FE0390C0B207280D
:103990002BD8012303FA00F010F0930F25D0F36920
:1039A00062699B1A03F101081B220021304602F0D4
:1039B0002FFE03904044B84230DA01354D4536D2EF
:1039C000A3681B6853F8256023493046FEF7ACFA1C
:1039D0000028F2D13046FFF73DFD0028D0D0F36932
:1039E00062699B1A03F10108DEE7082200213046D4
:1039F00002F00EFE039010B1DFF85880D4E706F114
:103A000014001DF04EF9009B00EB03081B2200215F
:103A1000304602F0FDFD03908044C5E71B220021E3
:103A2000304602F0F5FD039008EB0007C5E7094BAF
:103A30009F4200D05F44A36813B1019A504298613D
:103A4000044B9F4202D0BA45B8BFBA46504605B0B3
:103A5000BDE8F08F010000E00100040000B583B074
:103A6000054B0093002301936A463121FFF74EFB7B
:103A7000019803B05DF804FB010000E02DE9F04F70
:103A800085B0064601F04BFA0190B3680BB10022F5
:103A9000DA6110220021304602F0BAFD044603909C
:103AA000009030220021304602F0B2FD054603901E
:103AB00034220021304602F0ABFD039010F0020FDB
:103AC00001D06319009311220021304602F0A0FDBD
:103AD00004460390834630220021304602F098FDD0
:103AE0000546039034220021304602F091FD0390F8
:103AF00010F0010F01D004EB050B3046FFF7AEFFCD
:103B0000009B00EB030ADA44304603F02CFD8146AB
:103B10000024DFF8C08016E00A220021284602F0C7
:103B200077FD0390C0B2032823D82F6AB369FF1A28
:103B3000013719220021284602F06AFD039038441B
:103B400040452DDA01344C4533D2B3681B6853F835
:103B5000245021492846FEF7E7F90028F2D12846EB
:103B6000FFF778FC0028D7D02F6AB369FF1A013716
:103B7000DFE709220021284602F04AFD039008B140
:103B8000144FD6E705F114001DF090F8009BC718FC
:103B900018220021284602F03BFD03900744C8E7A5
:103BA00019220021284602F033FD039007EB00089C
:103BB000C8E7B36813B1019A5042D861054B9845E4
:103BC00003D0D844C245B8BFC246504605B0BDE890
:103BD000F08F00BF010000E00100040030B583B0A9
:103BE00005460122002102F013FD04460190022245
:103BF0000021284602F00CFD01906FF040439C42EA
:103C000001D0984205D12846FFF742FC012003B0BD
:103C100030BD0020FBE72DE9F04782460F461646EF
:103C2000994603F0A0FC8046002512E063693B44FE
:103C30006361A3693344A361E3693B44E361226A9E
:103C4000324422620023324639462046FFF7E3FF22
:103C5000013545450FD2DAF808301B6853F8254086
:103C6000B9F1000FE2D04FF480212046FEF755F95C
:103C70000028DBD0ECE7BDE8F08700283FD02DE935
:103C8000F0470F4616461C468046FFF774F9054676
:103C900004F0010904F00203002B14BF4FF0010AE5
:103CA0004FF0000A16D0B9F1000F03D1022D0AD04F
:103CB000BDE8F087404603F0E7FB2346324639462D
:103CC000FFF7DBFFF2E75346324639464046FFF73F
:103CD000ADFAEDE702280BD0B9F1000FE8D040466D
:103CE00003F0D2FB234632463946FFF7C6FFDFE733
:103CF0005346324639464046FFF798FAECE770479C
:103D000008B513460122FFF7B8FF08BD70B588B0AB
:103D10000C46134609680091666801960291E168B5
:103D200001310391A5680135049505960695079123
:103D300004226946FFF7A1FF069B049D1946AB428A
:103D4000A8BF2946029A009816468242A8BF064696
:103D5000B142A8BF31462160AB42B8BF2B46824278
:103D6000B8BF02469342B8BF1346A360079B059DA8
:103D70001946AB42A8BF2946039A019816468242CB
:103D8000A8BF0646B142A8BF31466160AB42B8BF8A
:103D90002B468242B8BF02469342B8BF1346E36047
:103DA00008B070BD2DE9F04188B004460D460121F0
:103DB000FEF7B3F820B10026304608B0BDE8F08128
:103DC0000746204603F064FB064603F069FB804685
:103DD00004F063FF864215D0404604F06BFF864234
:103DE00010D0404604F08DFF86420BD0404604F0D0
:103DF0006EFF864206D0404604F076FF864201D030
:103E00003E46D9E72046FFF78CF8014663690493E4
:103E1000A3690593E3690693236A0793024604A8FE
:103E20001CF0D6FD04AA294628461CF0EBFD0646E8
:103E30000028C1D0012229462046FFF767FF20460F
:103E400003F022FB04460EE0012269462046FFF7FC
:103E50005DFF6A46294628461CF0D4FD00B3204683
:103E600003F012FB0446002CA6D001212046FEF7E9
:103E700054F8A8B9EC4604F114030FCB8CE80F00FA
:103E80004FF480112046FEF748F80028DCD0204689
:103E9000FFF747F80146024668461CF099FDD3E754
:103EA0003E4689E730B585B005460C4603F0F8FA82
:103EB00005F062F808B905B030BD23680093636867
:103EC0000193A3680293E368039369462846FFF7CA
:103ED00069FF0028EFD0AB682BB193F82B3003F0CB
:103EE0000C03082B06D0284603F0DAFA694604F0E2
:103EF000B9FCE0E70522114668461CF069FDF2E7CF
:103F000030B585B00446FFF70CF861690091A269ED
:103F10000192E3690293256A0395091A0091121A26
:103F20000192034402932844039069462046FFF718
:103F3000B9FF05B030BD2DE9F0478CB004460D4601
:103F400016464768002F40D04FF48021FDF7E5FF6B
:103F500000285AD079690D44BA6902EB0609122289
:103F60000021384602F054FB06460190824630227A
:103F70000021384602F04CFB80460190342200219B
:103F8000384602F045FB019010F0040F01D006EB1B
:103F9000080A554410220021384602F039FB8046B9
:103FA0000190064630220021384602F031FB82465D
:103FB000019034220021384602F02AFB019010F0D3
:103FC000020F01D008EB0A064E4461696D1A0A958A
:103FD000A269B61A0B960DB9002E52D02046FFF7F3
:103FE0008FFF06A92046FFF780FAFFB102A93846E5
:103FF000FFF780FB002202A906A81DF044F88046C6
:10400000B0B9384602F016F812E0D7F814803846F6
:1040100000F07EFFA8EB00084544D7F8189038461A
:1040200000F07DFFA9EB0009B14498E74FF00008CC
:1040300063692B446361A3693344A361E3692B443F
:10404000E361236A33442362002332462946204633
:10405000FFF7E1FD27B1224627213846FFF756F842
:104060002046FFF74DFF67B1002202A904F11400BA
:104070001DF009F8B8F1000F00D110B1384601F079
:10408000D9FF0CB0BDE8F0872DE9F04F87B00446AA
:10409000FFF7E0F910B107B0BDE8F08F204603F05C
:1040A000F3F9074608220021204602F0B1FA06463D
:1040B0000590804609220021204602F0A9FA054613
:1040C00005908246002F47D03846FFF795FA0090BA
:1040D0003846FFF7D0FA029006F0C043B3F1005F14
:1040E00040D005F0C043B3F1005F54D06A220021F4
:1040F000204602F08DFA0646059083466B22002189
:10410000204602F085FA0546059081462046FFF7D5
:104110005FFA01902046FFF760FA039006F0C04373
:10412000B3F1005F50D005F0C043B3F1005F64D03D
:10413000D844D1440A220021204602F069FA0590B1
:1041400010F0FF0072D00238072878D8DFE800F0BE
:104150007D88989DAC8DB5C4024631462046FFF758
:10416000EAFE98E726F0C0466FF060439E42B8DA58
:10417000B6F1805F05DBC6F17F6606F57F2606F6A1
:10418000FF76009B03FB06F65E4B83FB0638F617B3
:10419000C6EB6818A5E725F0C0456FF060439D4267
:1041A000A4DAB5F1805F05DBC5F17F6505F57F25F4
:1041B00005F6FF75029B03FB05F5524B83FB053AA1
:1041C000ED17C5EB6A1A91E726F0C0466FF0604321
:1041D0009E42A8DAB6F1805F05DBC6F17F6606F580
:1041E0007F2606F6FF76019B03FB06F6454B83FB15
:1041F000063BF617C6EB6B1B95E725F0C0456FF045
:1042000060439D4294DAB5F1805F05DBC5F17F65BF
:1042100005F57F2505F6FF75039B03FB05F5394B77
:1042200083FB0539ED17C5EB691981E727220021CA
:10423000384602F0EDF90590C0B2012810D04A4688
:1042400041462046FFF777FE25E7009B03EBD3703E
:10425000019B03EBD3735B10C3EB60039844EEE761
:10426000009B019A981A8044E9E7029B03EBD37004
:10427000039B03EBD3735B10C3EB60039944DEE74E
:10428000029B039A981A8144D9E7009B03EBD370F1
:10429000019B03EBD3735B10C3EB60039844029B59
:1042A000039A981A8144CAE7009B019A981A80449D
:1042B000029B039A981A8144C1E7009B019A981ABD
:1042C0008044029B03EBD370039B03EBD3735B101F
:1042D000C3EB60039944B2E7009B03EBD370019BEF
:1042E00003EBD3735B10C3EB60039844029B03EBB7
:1042F000D370039B03EBD3735B10C3EB6003994450
:104300009DE700BF1F85EB5130B585B00446FEF731
:1043100008FE61690091A2690192E3690293256A2E
:104320000395091A0091121A01920344029328443A
:10433000039069462046FFF735FD05B030BD38B51E
:1043400005460C46FEF773F8AB681C6238BD08B52D
:1043500042690A6082694A60C2698A60026ACA6008
:10436000836823B10846196A0A461CF031FB08BD70
:1043700070B586B004460D460221FDF7CEFD064617
:1043800010B9304606B070BD02A92046FFF7DFFF26
:104390000022294602A81CF08EFC06460028F0D018
:1043A0004FF480312046FDF7B8FD0028E9D0009594
:1043B00001238DF804306A4613212046FEF7A6FE3D
:1043C0009DF80460DDE7000000B501F0C04CBCF1D1
:1043D000005F0CD002F0C04CBCF1005F20D09042D6
:1043E000A8BF10468842B8BF08465DF804FB21F01C
:1043F000C04C6FF0604EF445ECDABCF1805F05DB39
:10440000CCF17F6C0CF57F2C0CF6FF7C03FB0CFCD5
:104410000F4981FB0CE14FEAEC7CCCEB6111D9E751
:1044200022F0C04C6FF0604EF445D8DABCF1805FEA
:1044300005DBCCF17F6C0CF57F2C0CF6FF7C03FBCD
:104440000CF3034A82FB03C2DB17C3EB6212C6E71D
:104450001F85EB5100B501F0C04CBCF1005F0CD0E2
:1044600002F0C04CBCF1005F20D09042A8BF1046C3
:104470008842B8BF08465DF804FB21F0C04C6FF0DD
:10448000604EF445ECDABCF1805F05DBCCF17F6C6B
:104490000CF57F2C0CF6FF7C03FB0CFC0F4981FB19
:1044A0000CE14FEAEC7CCCEB6111D9E722F0C04C77
:1044B0006FF0604EF445D8DABCF1805F05DBCCF1DB
:1044C0007F6C0CF57F2C0CF6FF7C03FB0CF3034A8E
:1044D00082FB03C2DB17C3EB6212C6E71F85EB51F9
:1044E00090F82B3003F00C030C2B00F0CD812DE95C
:1044F000F04F8BB0044602F0C7FF0646002800F0DC
:10450000C58194F82B3013F0080F5ED02046FFF7DA
:104510005FF8074694F82B3013F0040F00F0FB808F
:104520002046FFF75AF880462046FFF751F8B84278
:1045300000F099812046FFF7E3FC06A92046FEF72C
:10454000D4FF02A93046FFF7D5F8002202A906A839
:104550001CF099FD0546002800F08D81A3694344B5
:10456000013B236227220021204602F051F80190EE
:10457000C3B2012B00F08381606938440138E061E7
:1045800006AA2E212046FEF7C1FD224627213046ED
:10459000FEF7BCFD2046FFF7B3FC94F82A3043F049
:1045A000020384F82A30002202A904F114001CF04E
:1045B0006AFD05B910B1304601F03CFD2046FEF71A
:1045C000B6FC01200BB0BDE8F08F0122002120468F
:1045D00002F01EF805460190804600F0C043B3F19A
:1045E000005F49D0002399463046FFF705F807469B
:1045F0006FF040439D4249D0B9F1000F27D096F8A3
:104600002B3013F0080F46D025F0C045B5F1805F80
:1046100005DBC5F17F6505F57F2505F6FF7507FB11
:1046200005F59B4880FB0530ED17C5EB60151A2298
:104630000021204601F0ECFF804601901B22002162
:10464000204601F0E5FF01904044A5EB000804225C
:104650000021204601F0DCFF0546019005220021E3
:10466000204601F0D5FF024601903B4629464046D0
:10467000FFF7AAFE07464DE720F0C0426FF0604307
:104680009A4201DB0023AEE70123ACE72046FFF7A7
:10469000C1F88046DBE701220021304601F0B8FF77
:1046A00001906FF040439842AED112220021204683
:1046B00001F0AEFF054601908046302200212046E1
:1046C00001F0A6FF8146019034220021204601F02E
:1046D0009FFF019010F0040F01D005EB0908132291
:1046E0000021204601F094FF0546019082463022C9
:1046F0000021204601F08CFF8146019034220021E8
:10470000204601F085FF019010F0080F01D005EB65
:10471000090AD0449BE702220021204601F078FFDD
:1047200005460190814600F0C043B3F1005F49D0D7
:104730004FF0000A3046FEF79EFF80466FF0404380
:104740009D424BD0BAF1000F27D096F82B3013F0D2
:10475000040F48D025F0C045B5F1805F05DBC5F1F9
:104760007F6505F57F2505F6FF7508FB05F54848CB
:1047700080FB0530ED17C5EB60151822002120469F
:1047800001F046FF8146019019220021204601F0E8
:104790003FFF01904844A5EB000906220021204676
:1047A00001F036FF0546019007220021204601F066
:1047B0002FFF02460190434629464846FFF74AFE2E
:1047C0008046B1E620F0C0426FF060439A4202DBBF
:1047D0004FF0000AAEE74FF0010AABE72046FFF7C3
:1047E0004DF98146D9E702220021304601F010FF41
:1047F00001906FF040439842ACD110220021204636
:1048000001F006FF05460190814630220021204636
:1048100001F0FEFE8246019034220021204601F084
:10482000F7FE019010F0020F01D005EB0A091122EA
:104830000021204601F0ECFE05460190834630221F
:104840000021204601F0E4FE82460190342200213E
:10485000204601F0DDFE019010F0010F01D005EBC4
:104860000A0BD94499E72046FEF7B7FE40457FF48E
:1048700061AE0020A6E6304601F0DCFB6EE6E3699F
:10488000DB1B013363617BE600207047002099E663
:104890001F85EB5170B5054602F065FE0646002403
:1048A00006E0AB681B6853F82400FFF7F3FF013400
:1048B000B442F6D395F82A3013F0010F05D195F8DC
:1048C0002A3013F0020F12D170BD95F82A306FF321
:1048D000000385F82A302846FFF702FE2846FFF736
:1048E000D3FB002EEBD028461AF0C8FCE7E795F87A
:1048F0002A306FF3410385F82A300021284601F061
:10490000BCFBE1E7104B93F8603003B1704710B582
:104910000D4B012283F8602002F0BAFD044608E046
:1049200094F82A306FF3820384F82A302046FFF788
:10493000B1FF94F82A3013F0040FF1D1024B00229A
:1049400083F8602010BD00BF303C00202DE9F04FFF
:1049500087B006460C4601921F46FFF7D3FF002C96
:1049600000F08A80304602F08FFD054612220021B9
:1049700001F04EFE8046059002903022002128462C
:1049800001F046FE8146059034220021284601F0C0
:104990003FFE059010F0040F02D008EB09030293CC
:1049A00010220021284601F033FE80460590824601
:1049B00030220021284601F02BFE8146059034224A
:1049C0000021284601F024FE059010F0020F01D0CE
:1049D00008EB090A12220021204601F019FE804648
:1049E0000590834630220021204601F011FE8146C9
:1049F000059034220021204601F00AFE059010F0B7
:104A0000040F01D008EB090B10220021204601F011
:104A1000FFFD81460590804630220021204601F0AE
:104A2000F7FD0390059034220021204601F0F0FDAF
:104A3000059010F0020F02D0DDF80C80C844019BF5
:104A4000FBB1019B5A1E142A5FD8DFE812F0230045
:104A5000810091009C00A700C100D600E600620022
:104A6000000108011C012B013201450153015B01CA
:104A70006F017E0185019801304602F005FD044674
:104A800070E727220021204601F0C2FD0590C0B248
:104A900001286DD007F0C043B3F1005F00F07D81C5
:104AA000109B03F0C043B3F1005F00F09381272215
:104AB0000021284601F0ACFD0590C0B2012800F0AD
:104AC000A88163691F446B69FF1A284600F0AEFA9B
:104AD0003844029BC01A8344A469109B1C44AB69F0
:104AE000E41A284600F022FA0444A4EB0A044444E1
:104AF00000220121304602F04AFC22465946304647
:104B0000FEF766FC07B0BDE8F08F4FF00008C34623
:104B1000C0E72046FEF770FD00EBD0704FEA600959
:104B20003046FEF755FD00EBD070A9EB60008344E2
:104B30002046FEF7A0FD00EBD0704FEA600930463A
:104B4000FEF74BFD00EBD070A9EB60008044A1E7BD
:104B50002046FEF751FD00EBD0704FEA6009304669
:104B6000FEF736FD00EBD070A9EB6000834491E7BF
:104B70002046FEF741FD81463046FEF729FDA9EBB0
:104B80000009CB4486E72046FEF775FD8146304696
:104B9000FEF723FDA9EB0009C8447BE72046FEF79A
:104BA0002BFD00EBD0704FEA60093046FEF710FD98
:104BB00000EBD070A9EB600083442046FEF75BFD5C
:104BC00081463046FEF709FDA9EB0009C84461E7BC
:104BD0002046FEF711FD81463046FEF7F9FCA9EBB1
:104BE0000009CB442046FEF746FD81463046FEF7DD
:104BF000F4FCA9EB0009C8444CE72046FEF73BFD56
:104C000000EBD0704FEA60093046FEF7E6FC00EB9F
:104C1000D070A9EB600080443CE72046FEF7ECFC36
:104C200081463046FEF7D4FCA9EB0009CB44204670
:104C3000FEF721FD00EBD0704FEA60093046FEF729
:104C4000CCFC00EBD070A9EB6000804422E730463A
:104C5000FEF7C3FCC0F100084FF0000B1AE7204636
:104C6000FEF7B6FC00EBD07B4FEA6B0B3046FEF74D
:104C7000AFFC00EBD070ABEB600B3046FEF7ADFC49
:104C8000C0F1000806E72046FEF7A2FC8346304646
:104C9000FEF79EFCABEB000B3046FEF79EFCC0F12E
:104CA0000008F7E62046FEF798FC80464FF0000B20
:104CB000F0E62046FEF78CFC00EBD07B4FEA6B0B56
:104CC0003046FEF785FC00EBD070ABEB600B204666
:104CD000FEF783FC8046DDE62046FEF779FC83463E
:104CE0003046FEF775FCABEB000B2046FEF775FC7B
:104CF0008046CFE63046FEF76BFCC0F1000B4FF06C
:104D00000008C7E63046FEF763FCC0F1000B204602
:104D1000FEF763FC00EBD0704FEA60083046FEF708
:104D20005CFC00EBD070A8EB6008B3E63046FEF701
:104D30004FFCC0F1000B2046FEF74FFC804630468A
:104D4000FEF74BFCA8EB0008A4E62046FEF740FC6B
:104D500083464FF000089DE62046FEF739FC834667
:104D60002046FEF73AFC00EBD0704FEA6008304670
:104D7000FEF733FC00EBD070A8EB60088AE6204613
:104D8000FEF726FC83462046FEF727FC8046304689
:104D9000FEF723FCA8EB00087CE627F0C0496FF083
:104DA00060439945BFF67CAE2046FEF711FCB9F191
:104DB000805F05DBC9F17F6909F57F2909F6FF7975
:104DC00009FB00F9194F87FB09374FEAE979C9EB6D
:104DD000671765E6109B23F0C0496FF06043994563
:104DE000BFF665AE2046FEF7F8FBB9F1805F05DB44
:104DF000C9F17F6909F57F2909F6FF7909FB00F9F7
:104E00000A4B83FB09234FEAE979C9EB631310933B
:104E10004DE663691F446B69FF1A284600F094F958
:104E20003844029BC01A834456E600BF1F85EB51ED
:104E300008B590F8543013F0040F00D108BD0022DB
:104E40000B210068FEF762F9F8E738B504460D4615
:104E5000FDF7EDFAA26892F82A3003F00303AB42A3
:104E600008D092F82A3065F3010382F82A302046F0
:104E7000FFF746F838BD38B505460C46FDF7D7FABA
:104E8000AA68538DC3F38313A34203D0538D64F3F5
:104E90008913538538BD38B505460C46FDF7C7FA6A
:104EA000AB6893F82A2064F3830283F82A2038BD84
:104EB00038B505460C46FDF7BAFAAB6893F82A20D8
:104EC00064F3051283F82A2038BD836823B193F870
:104ED0002A0000F0030070470320704783681BB16D
:104EE000588DC0F3831070470F207047836823B13B
:104EF00093F82A00C0F38100704700207047836850
:104F000023B193F82A00C0F30110704700207047C6
:104F1000836813B1986940427047002070478368E6
:104F200013B1D8694042704700207047836813B1BD
:104F3000D869404270470020704700002DE9F043D7
:104F400083B0064602F00FFB81460024DFF8D480D0
:104F500000E001344C4515D2B3681B6853F8245067
:104F600031492846FCF7E0FF0028F2D12F6A1922C8
:104F70000021284601F04CFB019038448045B8BF21
:104F80008046E6E710220021304601F041FB04464E
:104F90000190814630220021304601F039FB054660
:104FA000019034220021304601F032FB019010F0D4
:104FB000020F01D004EB050911220021304601F057
:104FC00027FB05460190074630220021304601F0BC
:104FD0001FFB0446019034220021304601F018FBEB
:104FE000019010F0010F00D02F190E4B984503D0FF
:104FF000336ADB1BA8EB03083046FEF72FFD04469F
:105000003046FEF7EAFAA0EB0900C01B241A30462E
:10501000FFF785FF201A4045B8BF404603B0BDE802
:10502000F08300BF010000E0010004002DE9F04F13
:1050300083B004462722002101F0EAFA0190C0B2B1
:10504000012807D0A368002B78D09869404203B0AC
:10505000BDE8F08F13220021204601F0D9FA054661
:105060000190834630220021204601F0D1FA064605
:10507000019034220021204601F0CAFA019010F07C
:10508000080F01D005EB060B12220021204601F08B
:10509000BFFA05460190824630220021204601F0E9
:1050A000B7FA0646019034220021204601F0B0FAFA
:1050B000019010F0040F01D005EB060A204602F023
:1050C00052FA80466FF06049002500E00135454501
:1050D00015D2A3681B6853F8256019493046FCF7C0
:1050E00023FF0028F2D177691A220021304601F00F
:1050F0008FFA0190381A8145A8BF8146E6E76FF024
:105100006043994518D060695044A0EB09052046DA
:10511000FEF770FB06462046FEF75AFAA0EB0B0B93
:10512000ABEB0A0AA6EB0A0A2046FFF7F1FE504451
:10513000A842B8BF28468AE7024DE8E7002086E784
:1051400001000400010000E02DE9F04383B00546B2
:105150002722002101F05CFA0190C0B2012804D19D
:10516000AB68002B73D098696EE0284602F0FBF91B
:1051700081460024374F00E001344C4516D2AB681D
:105180001B6853F8246034493046FCF7CDFE0028F4
:10519000F2D1D6F81C801B220021304601F038FAEB
:1051A000019040448742B8BF0746E5E7132200213B
:1051B000284601F02DFA0446019081463022002154
:1051C000284601F025FA064601903422002128469F
:1051D00001F01EFA019010F0080F01D004EB06094F
:1051E00012220021284601F013FA0646019080465B
:1051F00030220021284601F00BFA044601903422A7
:105200000021284601F004FA019010F0040F01D0AB
:1052100006EB04080F4B9F4203D0EB69A3EB090395
:10522000FF1A2846FEF7E6FA04462846FEF7D0F9AC
:10523000A0EB0900A0EB0800241A2846FFF768FE3F
:10524000201AB842B8BF384603B0BDE8F08300204A
:10525000FAE700BF010000E00100040038B5054690
:105260000C460C491BF0DEFA58B1C06A404220607F
:10527000094928461BF0D6FA38B1C06A404260603E
:1052800038BD2846FFF744FEF1E72846FFF747FE02
:10529000F5E700BF01530008EB52000870B5044663
:1052A00015460E4601B9F2B12046FDF7C0F8A268D6
:1052B000936933449361A268D3692B44D36101237A
:1052C0002A4631462046FEF7A6FC00220C21204645
:1052D000FDF71CFF0546012801D0284670BD204679
:1052E000FEF70EFEF9E70125F7E738B504460D464F
:1052F000FFF715FE421900212046FFF7CFFF38BD0A
:1053000038B504460D46FFF703FE0022411920463A
:10531000FFF7C4FF38BD0000F0B597B0044615464E
:105320000E4601B982B1012B10D0404920461BF036
:1053300051FA3F4920461BF04DFA00220921204630
:10534000FDF7E4FE012863D017B0F0BD204602F05F
:10535000A7F8074668461BF0D7F9214668461BF0B8
:10536000CBFA344968461BF0DCFA4EBB002DEBD07B
:10537000384603F0D3FB4FF4C872C82140101BF02D
:105380006BFA014668461BF0BBFA2046FFF7C7FDE3
:105390002A1A414268461BF0B8FA244968461BF0B5
:1053A000ADFA254968461BF0B6FA6A46092120463F
:1053B000FDF7ACFE0128C7D168461BF0BFF9C3E773
:1053C000384603F095FB4FF4C872C82140101BF01B
:1053D00043FA014668461BF093FA2046FFF798FD12
:1053E000321A414268461BF090FA114968461BF098
:1053F00085FA114968461BF08EFA6A460921204653
:10540000FDF784FE01289FD168461BF097F9ADE7B0
:105410002A4631462046FFF741FF012894D1002259
:105420000B212046FDF772FE8EE700BFEB5200080D
:1054300001530008314E0008AD0802082DE9F0477D
:1054400082B00546144699460F4601B922B3284654
:10545000FFF758FA2846FFF75BFD06463F1A27225A
:105460000021284601F0D4F80190C0B201282AD0CA
:10547000002F14DD00272846FFF751FD8046241A2F
:10548000002C36DD002408EB0402F11900D11AB11A
:105490004B462846FFF740FF02B0BDE8F087EADA46
:1054A0002846FFF7C3FD80462846FFF74DFE18EB60
:1054B000000805D4C8F10008B845DCDD4746DAE746
:1054C0004FF00008F6E7002F11DBD4DD2846FFF788
:1054D000ADFD80462846FFF737FE18EB000803D4E1
:1054E000B845C8DA4746C6E74FF00008F8E7002796
:1054F000C1E7C8DA2846FFF719FD82462846FFF7BC
:105500001DFD1AEB000A05D4CAF1000A5445BADAA7
:105510005446B8E74FF0000AF6E7000070B50446BD
:105520000D46164606491BF055F92046FFF7F0FCDC
:1055300033460022411B2046FFF780FF70BD00BFAD
:105540000153000870B504460D46164606491BF087
:1055500041F92046FFF7E3FC3346421B0021204679
:10556000FFF76CFF70BD00BFEB52000870B5054639
:1055700016461C461A46FFF7D1FF224631462846FA
:10558000FFF7E0FF70BD00002DE9F04F8BB00390F6
:105590000D46049116460293084601F075FF044635
:1055A0001021FCF7BAFC002800F00A812046FFF722
:1055B00095FC01902046FFF7A2FC804610B105F152
:1055C000140700E0039F10220021204601F020F87C
:1055D00005460990824630220021204601F018F845
:1055E0008146099034220021204601F011F80990EB
:1055F00010F0020F01D005EB090A1122002120460C
:1056000001F006F805460990834630220021204625
:1056100000F0FEFF8146099034220021204600F070
:10562000F7FF099010F0010F01D005EB090BA569F8
:1056300055447B68ED1AD6F80490A5EB0905236A5A
:10564000A3EB0B03FA689B1A0793A9EB03030593DB
:105650002046FDF7C2FFA0EB0A00A0EB0B0206926A
:10566000002DC0F2B080059B002BC0F2AC8000255D
:10567000B8F1020F00F0CB80B8F1030F00F0D18039
:10568000B8F1010F00F0BA802046FFF72FFC8246E8
:1056900010B1049B1433039312220021204600F022
:1056A000B7FF07460990814630220021204600F0CE
:1056B000AFFF8046099034220021204600F0A8FF69
:1056C000099010F0040F01D007EB08091322002104
:1056D000204600F09DFF07460990834630220021B6
:1056E000204600F095FF8046099034220021204694
:1056F00000F08EFF099010F0080F01D007EB080BA7
:1057000067694F4403990B68FF1A3268E369A3EB9A
:105710000B0389685B1AD11ABF1A00F19680002921
:10572000C0F2938000272046FDF752FFA0EB09004E
:10573000A0EB0B00BAF1020F00F0A980BAF1030F41
:1057400000F0B080BAF1010F00F097806449204664
:105750001BF040F8634920461BF03CF8019B13F016
:10576000010F02D1002FC0F2B380019B13F0020F92
:1057700002D1002F00DD0027019B13F0040F02D19E
:10578000002DC0F2A780019B13F0080F02D1002D5D
:1057900000DD00253368029A002A00F09D803A4619
:1057A000134433607368029A002A00F097802A46F7
:1057B00013447360029B2A4639462046FFF7ACFD2E
:1057C0000BB0BDE8F08F002D08DD2046FFF7AEFBE3
:1057D000401B0028BFF64CAF002549E7059B002B76
:1057E00001DC002544E7079BA3EB09052046FFF7F2
:1057F000A5FBC5427FF53CAF002539E7A3695344BB
:105800007A6802EB050AA3EB0A031D443CE7236A0E
:10581000A3EB0B03FA6802EB050BA3EB0B031D4490
:1058200032E7A3699A44069B03EBD3700AEB600A44
:1058300038461BF03BFA00EBD0707B6803EB60034B
:105840002B44AAEB030A55441EE7002F03DC002972
:105850000ADC002767E72046FFF7E8FBC01B0028AB
:10586000BFF661AF00275EE79F1A2046FFF76CFC8A
:10587000C7427FF558AF002755E763694B44039A49
:10588000126802EB0709A3EB09031F445EE7E36913
:10589000A3EB0B03039A926802EB070BA3EB0B033A
:1058A0001F4453E76369994400EBD07009EB60092A
:1058B000DDF80C8040461BF0F4F900EBD073D8F80B
:1058C000000000EB63003844A9EB000007443DE70B
:1058D00000274AE7002556E7002261E7002267E734
:1058E000EB5200080153000870B582B005460E4621
:1058F000FFF708F8002300930193284601F0C4FD48
:10590000044629460AE033466A4605F11400FFF7CB
:105910003BFE204601F0B8FD21460446002CF2D1A2
:1059200002B070BD2DE9F04F93B004460F46164605
:105930004FF0FF3500952B460022114638461BF0EC
:105940002DF800952B460022114630461BF026F814
:1059500010212046FCF7E1FA039020B12046FFF722
:10596000B4FA814610B913B0BDE8F08F002016F0EC
:1059700025F80546B9F1020F0CD14DB1284616F0B5
:105980006FF8844204D0284616F018F80546F4E76C
:10599000002DE8D02046FFF7C9FA80462046FFF7E1
:1059A000CDFA04902046FFF741FB05902046FFF713
:1059B000CBFB06902046FFF791FA824610F00C0FC1
:1059C00021D0B9F1010F00F0F980B9F1030F05D032
:1059D000B9F1020F0ED04FF0000B16E0B8F1000F36
:1059E00002DDDDF80CB010E0049B002BF0DDDDF8EB
:1059F0000CB00AE0284616F023F80C2800F0E180ED
:105A00004FF0000B01E04FF0000B1AF0030F0AD02B
:105A1000B9F1010F0CD0B9F1030F00F0D580B9F145
:105A2000020F00F0DA80BBF1000F9CD0002303933B
:105A300027224FF48031204600F0EAFD1190C3B2D6
:105A40000D9310224FF48031204600F0E1FD0A90C2
:105A5000119011224FF48031204600F0D9FD0990B9
:105A6000119012224FF48031204600F0D1FD0E90AB
:105A7000119013224FF48031204600F0C9FD0B90A5
:105A8000119001224FF48031204600F0C1FD0546FF
:105A9000089011902046FDF7A0FD81462046FDF7B5
:105AA00097FD0790BBF1000F00F09E800F95039BC0
:105AB000002B00F09C80089B0C931D224FF480313A
:105AC000204600F0A5FD1190C0B2012840F292805E
:105AD000C844049B08EB0305BBF1000F00F0D18024
:105AE000002D00F0CE80A3697360236AF3600D9BE4
:105AF000012B00F08B80E3690B9A9B1AB360089A24
:105B00009B1A013333600A9BA9EB0308099BA8EB9E
