:020000040800F2
:10000000008001206109000845090008470900082F
:10001000490900084B0900084D09000800000000CC
:100020000000000000000000000000004F09000870
:100030005109000800000000530900085509000894
:10004000B1090008B1090008B1090008B1090008A8
:10005000B1090008B1090008B1090008B109000898
:10006000B1090008B1090008B1090008B109000888
:10007000B1090008B1090008B1090008B109000878
:10008000B1090008B1090008B1090008B109000868
:10009000B1090008B1090008B1090008B109000858
:1000A000B1090008B1090008B1090008B109000848
:1000B000B1090008B1090008B1090008B109000838
:1000C000B1090008B1090008B1090008B109000828
:1000D000B1090008B1090008B1090008B109000818
:1000E000B1090008B1090008B1090008B109000808
:1000F000B1090008B1090008B1090008B1090008F8
:10010000B1090008B1090008B1090008B1090008E7
:10011000B1090008B1090008B1090008B1090008D7
:10012000B1090008B1090008B1090008B1090008C7
:10013000B1090008B1090008B1090008B1090008B7
:10014000B1090008B1090008B1090008B1090008A7
:10015000B1090008B1090008B1090008B109000897
:10016000B1090008B1090008B1090008B109000887
:10017000B1090008B1090008B10900080000000039
:08018000B1090008B1090008F3
:1001880010B5054C237833B9044B13B10448AFF3C9
:1001980000800123237010BD3C04002000000000F3
:1001A800A820000808B5034B1BB103490348AFF367
:1001B800008008BD0000000040040020A8200008BE
:1001C80070B58AB00024059406940794089409949D
:1001D800334BDA6C42F00402DA64DA6C02F004029F
:1001E8000192019ADA6C42F08002DA64DA6C02F069
:1001F80080020292029ADA6C42F00102DA64DA6C46
:1002080002F001020392039ADA6C42F00202DA6405
:10021800DB6C03F002030493049B224620214FF079
:10022800904000F085FD01224FF4A0614FF090400E
:1002380000F07EFD1B4D01222021284600F078FDAC
:100248004FF4005305934FF404130693079405A93C
:10025800154800F067FC0C230593022306930794C6
:10026800032308930723099305A94FF0904000F052
:1002780059FC4FF4A4630593012606960794089445
:1002880005A94FF0904000F04DFC202305930696F9
:100298000794089405A9284600F044FC0AB070BDEC
:1002A80000100240000400480008004872B6FEE74B
:1002B80008B50F480F4B03604FF482734360002367
:1002C80083604FF4E062C260036143614FF40072DF
:1002D80082610822C2610362436283620721C162AC
:1002E8000363426301F003FB00B908BDFFF7DEFFBB
:1002F800580400200038004000B597B0442200217F
:1003080005A801F00BFE00230093019302930393C9
:1003180004934FF4007000F019FD20BB02230593ED
:100328004FF480720892102209920F9310930122C1
:1003380011920A221292072213921493159305A878
:1003480000F0EEFD88B90F230093032301930023E7
:100358000293039304930421684601F0EFF830B93F
:1003680017B05DF804FBFFF7A1FFFFF79FFFFFF74A
:100378009DFF000008B500F041FBFFF7BDFFFFF748
:100388001FFFFFF795FF0F4800F08CF800F098F971
:100398000022F021A02000F08BF94FF47842FA21D6
:1003A800A02000F085F91F224FF48271A02000F0F0
:1003B8007FF94FF4FC624FF48771A02000F078F9C0
:1003C800FEE700BF5804002000B583B08DF8070091
:1003D80000224FF480614FF0904000F0A9FC002209
:1003E80020210B4800F0A4FC4FF0FF3301220DF14F
:1003F80007010848006801F0E9FA01224FF480611A
:100408004FF0904000F094FC03B05DF804FB00BF8F
:1004180000040048CC04002038B504460D460022EC
:100428004FF480614FF0904000F082FC01222021BF
:10043800094800F07DFC4FF0FF332A462146074863
:10044800006801F0C3FA01224FF480614FF0904038
:1004580000F06EFC38BD00BF00040048CC0400204A
:1004680000B583B08DF8070001210DF10700FFF7F3
:10047800D3FF03B05DF804FB08B500224FF4807188
:100488004FF0904000F054FC642000F0D9FA0122AB
:100498004FF480714FF0904000F04AFC322000F099
:1004A800CFFA08BD014B1860704700BFCC0400208C
:1004B80010B50C46FFF788FFE0B2FFF7D1FF10BD7B
:1004C80000B587B08DF80F1000238DF817304FF066
:1004D800FF33009301230DF117020DF10F0101F015
:1004E8007AFB20B99DF8170007B05DF804FBFF20E0
:1004F800FAE7000008B5214B2A229A812B22DA81DB
:100508002C221A812E225A8100F0030098710328A8
:100518000ED8DFE800F0020E1A26184B4FF4A0722E
:100528001A804FF4F0725A8048213620FFF7C0FF36
:1005380008BD124B4FF4F0721A804FF4A0725A8023
:1005480028213620FFF7B4FFF2E70C4B4FF4A072D6
:100558001A804FF4F0725A8088213620FFF7A8FFDE
:10056800E6E7064B4FF4F0721A804FF4A0725A80F7
:10057800E8213620FFF79CFFDAE700BFBC04002023
:100588002DE9F04107460D4616461C46DFF84C801B
:1005980098F80C00FFF718FF380AFFF761FFF8B268
:1005A800FFF75EFF300AFFF75BFFF0B2FFF758FF77
:1005B80098F80E00FFF708FF280AFFF751FFE8B286
:1005C800FFF74EFF200AFFF74BFFE0B2FFF748FFA7
:1005D80098F80800FFF7F8FEBDE8F081BC04002099
:1005E800F8B506461A4B1A885B88013B013A9BB25C
:1005F80092B200210846FFF7C3FF00224FF4806142
:100608004FF0904000F094FB01222021114800F0A7
:100618008FFB00270EE0104D310A2868FFF750FFC6
:10062800F1B22868FFF74CFF0134094B1B88A3423D
:10063800F1D80137064B5B88BB4201D90024F4E7A7
:1006480001224FF480614FF0904000F071FBF8BD3B
:10065800BC04002000040048CC04002038B504463F
:1006680000224FF480614FF0904000F061FB0122BE
:1006780020210A4800F05CFB094D210A2868FFF791
:100688001FFFE1B22868FFF71BFF01224FF48061CA
:100698004FF0904000F04CFB38BD00BF000400480C
:1006A800CC04002008B502460B46FFF769FF08BDD9
:1006B80010B51446FFF7F6FF2046FFF7CFFF10BD31
:1006C80008B5FFF7D9FE1120FFF77EFE782000F06D
:1006D800B7F93620FFF778FE4820FFF7C1FE3A2029
:1006E800FFF772FE5520FFF7BBFEF020FFF76CFE08
:1006F800C320FFF7B5FEF020FFF766FE9620FFF750
:10070800AFFEB420FFF760FE0220FFF7A9FEB72076
:10071800FFF75AFEC620FFF7A3FEC020FFF754FEDE
:10072800C020FFF79DFE0020FFF79AFEC120FFF7CB
:100738004BFE1320FFF794FEC220FFF745FEA720CB
:10074800FFF78EFEC520FFF73FFE2120FFF788FE4A
:10075800E820FFF739FE4020FFF782FE8A20FFF7E6
:100768007FFE1B20FFF77CFE1B20FFF779FE23206E
:10077800FFF776FE0A20FFF773FEAC20FFF770FE46
:100788003320FFF76DFEE020FFF71EFED220FFF7B3
:1007980067FE0520FFF764FE0820FFF761FE0620CC
:1007A800FFF75EFE0520FFF75BFE0220FFF758FE0D
:1007B8002A20FFF755FE4420FFF752FE4620FFF798
:1007C8004FFE3920FFF74CFE1520FFF749FE152094
:1007D800FFF746FE2D20FFF743FE3220FFF740FECD
:1007E800E120FFF7F1FD9620FFF73AFE0820FFF71A
:1007F80037FE0C20FFF734FE0920FFF731FE0920F1
:10080800FFF72EFE2520FFF72BFE2E20FFF728FEF0
:100818004320FFF725FE4220FFF722FE3520FFF791
:100828001FFE1120FFF71CFE1120FFF719FE2820DC
:10083800FFF716FE2E20FFF713FEF020FFF7C4FD8A
:100848003C20FFF70DFEF020FFF7BEFD6920FFF703
:1008580007FE782000F0F4F82120FFF7B5FD2920E5
:10086800FFF7B2FD0020FFF745FE4FF6FF70FFF7D8
:10087800B7FE08BD82B00A4B1A6E42F001021A6632
:100888001A6E02F001020092009A9A6D42F08052AC
:100898009A659B6D03F080530193019B02B07047EA
:1008A8000010024070B588B00023039304930593A9
:1008B8000693079302681E4B9A4201D008B070BD98
:1008C80003F5EC339A6D42F480429A659A6D02F40E
:1008D80080420092009ADA6C42F00402DA64DA6C20
:1008E80002F004020192019ADA6C42F00202DA6420
:1008F800DB6C03F002030293029B0C230393022692
:10090800049603250695052407940DEB0301094871
:1009180000F008F94FF480630393049600230593CD
:100928000695079403A9044800F0FCF8C6E700BF41
:10093800003800400008004800040048FEE7FEE7D1
:10094800FEE7FEE7FEE770477047704708B500F01E
:1009580065F808BD70470000DFF834D0FFF7FAFFEC
:100968000C480D490D4A002302E0D458C450043302
:10097800C4188C42F9D30A4A0A4C002301E01360D8
:100988000432A242FBD301F0A5FAFFF7F3FCFEE71D
:1009980000800120000000203C04002010210008F5
:1009A8003C040020D8040020FEE70000104B1B7810
:1009B8000BB90120704710B504464FF47A70B0FBAC
:1009C800F3F30C4A1068B0FBF3F000F097F868B93D
:1009D8000F2C01D901200AE0002221464FF0FF30F8
:1009E80000F054F8044B1C60002000E0012010BD0A
:1009F80004000020000000200800002010B503209B
:100A080000F032F80020FFF7D1FF10B10124204692
:100A180010BD0446FFF72EFFF9E70000034B1B78D3
:100A2800034A11680B441360704700BF040000209C
:100A3800D0040020014B1868704700BFD004002084
:100A480038B50446FFF7F6FF0546B4F1FF3F02D07C
:100A5800044B1B781C44FFF7EDFF401BA042FAD360
:100A680038BD00BF04000020074AD36823F4E063C0
:100A78001B041B0C000200F4E060034343F0BF6357
:100A880043F40033D360704700ED00E000B5194B24
:100A9800DB68C3F30223C3F1070CBCF1040F28BFC2
:100AA8004FF0040C03F1040EBEF1060F18D9033BF6
:100AB8004FF0FF3E0EFA0CFC21EA0C0199400EFAA9
:100AC80003F322EA0303194300280BDB0901C9B227
:100AD80000F1604000F5614080F800135DF804FB08
:100AE8000023E5E700F00F000901C9B2024B1954D1
:100AF800F4E700BF00ED00E014ED00E00138B0F1CC
:100B0800807F0BD24FF0E0235861054AF02182F82C
:100B180023100020986107221A617047012070474E
:100B280000ED00E070B582B000236EE085685E00DD
:100B38000324B44025EA0405CC68B4402C438460FF
:100B4800456825EA0C054C68C4F300149C402C4306
:100B580044606DE0C56A25EA0C0CC4F3C0049C40EF
:100B680044EA0C04C46269E0DD08083550F82560E1
:100B780003F007044FEA840C0F2404FA0CF426EA65
:100B8800040E0C6904FA0CF444EA0E0440F82540FB
:100B98006CE0062400E0002404FA0EF42C430CF167
:100BA800020C5F4D45F82C405E4CA568D44325EAFD
:100BB8000206D1F804C01CF4801F01D042EA0506E1
:100BC800584DAE60ED6804EA0506D1F804C01CF47F
:100BD800001F01D042EA0506524DEE606D6804EA36
:100BE8000506D1F804C01CF4003F01D042EA05060E
:100BF8004C4D6E602D682C404E6816F4803F01D035
:100C080042EA0504474A146001330A6832FA03F4D9
:100C180000F083804FF0010C0CFA03FC1CEA02027E
:100C2800F2D04C6804F00304013C012C7FF67EAF3F
:100C38004C6804F0030EBEF1030F8BD04C6804F02F
:100C48000304032C0CD0C4685D004FF0030C0CFAAD
:100C580005FC24EA0C0C8C68AC4044EA0C04C46023
:100C68004C6804F00304022C3FF47EAF04684FEA9A
:100C7800430E4FF0030C0CFA0EFC24EA0C0C4C68E3
:100C880004F0030404FA0EF444EA0C0404604C680B
:100C980014F4403FB8D0244C256E45F00105256674
:100CA800246E04F001040194019C4FEA930C0CF1AA
:100CB80002051B4C54F8255003F003044FEA840E38
:100CC8000F2404FA0EF425EA0405B0F1904F3FF41E
:100CD80062AF164CA04216D004F58064A04214D02E
:100CE80004F58064A04212D004F58064A04210D0BC
:100CF80004F58064A0420ED004F58064A0423FF45D
:100D080048AF072448E7012446E7022444E70324C0
:100D180042E7042440E705243EE702B070BD00BF67
:100D28000000014000040140001002400004004897
:100D38000AB181617047816270470000024B1868F0
:100D480000F4C060704700BF00700040B0F5007F3D
:100D58000FD01F4B1B6803F4C063B3F5806F34D00A
:100D68001B4A136823F4C06343F4806313600020B4
:100D78007047174B1B6803F4C063B3F5007F20D09E
:100D8800134A136823F4C06343F400731360114BD0
:100D98001B68322202FB03F30F4AA2FB03239B0CBE
:100DA800013300E0013B0A4A526912F4806F01D016
:100DB800002BF7D1064B5B6913F4806F03D1002039
:100DC800704700207047032070470020704700BF1D
:100DD800007000400000002083DE1B4330B583B064
:100DE8000446204B9B6D13F0805F0BD0FFF7A6FFE6
:100DF800B0F5007F17D0802C1FD82DD0702C2DD0A7
:100E080000211BE0174DAB6D43F08053AB65AB6D14
:100E180003F080530193019BFFF790FFAB6D23F024
:100E28008053AB65E4E7802C03D9A02C03D90221B9
:100E380004E0002102E0012100E003210A4A1368CE
:100E480023F007030B431360136803F007038B4277
:100E580006D1002003B030BD0221EFE70121EDE704
:100E68000120F7E70010024000200240284A93685A
:100E7800D26802F0030213F00C030AD00C2B06D040
:100E8800042B1FD0082B20D00020024610E0012A96
:100E9800F6D11F4A126812F0080F0CD11C4AD2F87A
:100EA8009420C2F303221B4951F8222043B10020A9
:100EB8000C2B0DD07047164A1268C2F30312F2E7E2
:100EC8001046F5E714480022F2E714480022EFE73D
:100ED8000F4BDB6803F00303022B16D0032B00D162
:100EE8000E4A0B49C868C0F30210431CC868C0F317
:100EF800062002FB00F0B0FBF3F0CB68C3F34163BC
:100F080001335B00B0FBF3F0D4E7034AE9E700BF25
:100F180000100240D02000080024F40000127A00DB
:100F2800002800F0F182F0B583B00446964B9D6826
:100F380005F00C05DE6806F00306036813F0100FD1
:100F48005AD0E5B10C2D18D0A369002B00F0BB8056
:100F58008D4A136843F001031360FFF76BFD0746E2
:100F6800894B1B6813F0020F40F09A80FFF762FD6F
:100F7800C01B0228F4D90320D1E2012EE4D1824B10
:100F88001B6813F0020F03D0A369002B00F0BE8288
:100F9800206A7D4B1B6813F0080F5BD07A4B1B68E7
:100FA80003F0F00398425CD8774B1A6842F00802C5
:100FB8001A601A6822F0F002216A0A431A605A6815
:100FC80022F47F42E16942EA01225A60002D60D092
:100FD800FFF74CFF6C4B9B68C3F303136B4AD35C5E
:100FE80003F01F03D8406A4B18606A4B1868FFF774
:100FF800DDFC002840F09382236813F0010F00F015
:101008008180082D75D00C2D71D06368B3F5803FB1
:1010180000F09780B3F5A02F00F099805A4B1A681A
:1010280022F480321A601A6822F480221A606368F7
:10103800002B00F09980FFF7FDFC0746524B1B6818
:1010480013F4003F5ED1FFF7F5FCC01B6428F5D907
:10105800032064E24C4BD3F894301B0903F0F003EF
:10106800A0E7FFF7BBFE002840F05282464B1A6803
:1010780042F008021A601A6822F0F002216A0A4354
:101088001A605A6822F47F42E16942EA01225A60F2
:101098009EE7206AFFF7A2FE002899D001203EE2D1
:1010A800394B1A6842F008021A601A6822F0F002F6
:1010B800216A0A431A605A6822F47F42E16942EAC7
:1010C80001225A6098E7304A136823F0010313603D
:1010D800FFF7B0FC07462C4B1B6813F0020F8BD0B0
:1010E800FFF7A8FCC01B0228F5D9032017E2032E3E
:1010F8008BD1254B1B6813F4003F03D06368002B8A
:1011080000F00882236813F0020F58D0042D45D050
:101118000C2D41D0E368002B77D01B4A136843F4A9
:1011280080731360FFF786FC0646174B1B6813F4A1
:10113800806F61D1FFF77EFC801B0228F5D9032060
:10114800EDE1114A136843F4803313606FE703F14C
:101158008043A3F53C331A6842F480221A601A6867
:1011680042F480321A6062E7FFF764FC0746064BD8
:101178001B6813F4003FC5D0FFF75CFCC01B642854
:10118800F5D90320CBE100BF00100240C0200008C1
:101198000000002008000020022EBBD1A34B1B68D2
:1011A80013F4806F03D0E368002B00F0B5819F4AE9
:1011B800536823F0F853216943EA016353602368B5
:1011C80013F0080F4CD063699BB3984AD2F8943057
:1011D80043F00103C2F89430FFF72CFC0646934B0A
:1011E800D3F8943013F0020F3AD1FFF723FC801B99
:1011F8000228F4D9032092E18C4A536823F0F8536B
:10120800216943EA01635360D9E7884A136823F4E4
:1012180080731360FFF70EFC0646844B1B6813F4BB
:10122800806FCCD0FFF706FC801B0228F5D903207D
:1012380075E17E4AD2F8943023F00103C2F8943065
:10124800FFF7F8FB0646794BD3F8943013F0020FFA
:1012580006D0FFF7EFFB801B0228F4D903205EE1DC
:10126800236813F0040F7AD0704B9B6D13F0805FE6
:1012780036D16E4B9A6D42F080529A659B6D03F0A1
:1012880080530193019B0126694B1B6813F4807FEF
:1012980028D0A368012B39D0052B3FD0634BD3F856
:1012A800902022F00102C3F89020D3F8902022F079
:1012B8000402C3F89020A368002B3DD0FFF7BAFBC7
:1012C80007465A4BD3F8903013F0020F46D1FFF778
:1012D800B1FBC01B41F288339842F2D903201EE1CA
:1012E8000026D1E7524A136843F480731360FFF76E
:1012F800A1FB07464E4B1B6813F4807FC9D1FFF74B
:1013080099FBC01B0228F5D9032008E1474AD2F807
:10131800903043F00103C2F89030CCE7434BD3F848
:10132800902042F00402C3F89020D3F8902042F0B5
:101338000102C3F89020BEE7FFF77CFB07463B4B52
:10134800D3F8903013F0020F08D0FFF773FBC01BDF
:1013580041F288339842F2D90320E0E0EEB9A36A5B
:10136800002B00F0DB80022B1DD00C2D00F0DD805F
:101378002E4A136823F080731360FFF75BFB044663
:101388002A4B1B6813F0007F00F0B780FFF752FB71
:10139800001B0228F4D90320C1E0244A936D23F0EE
:1013A80080539365DBE7214BDB6803F00301E26AB6
:1013B80091420FD00C2D00F0B4801C4B1B6813F029
:1013C800806F40F0B080194B1B6813F0805F31D0FC
:1013D8000120A4E003F07002216B0139B2EB011F78
:1013E800E8D103F4FE42616BB2EB012FE2D103F4C2
:1013F8000031A26B073A18BF01229142DAD103F4F7
:10140800C001E26B5208013AB1EB425FD2D103F05E
:10141800C063226C5208013AB3EB426FCAD1034B46
:101428001B6813F0007F4ED0002078E000100240C7
:10143800007000403E4A136823F080731360FFF782
:10144800F9FA05463A4B1B6813F0007F06D0FFF700
:10145800F1FA401B0228F5D9032060E0344AD3682A
:1014680034491940E36A206B013843EA0013606B82
:1014780043EA0023E06B4008013843EA4053206CFC
:101488004008013843EA4063A06B000943EA40433F
:101498000B43D360136843F080731360D36843F041
:1014A8008073D360FFF7C6FA0446214B1B6813F01C
:1014B800007F06D1FFF7BEFA001B0228F5D90320EA
:1014C8002DE000202BE01A4B1A6842F080721A6057
:1014D800DA6842F08072DA60FFF7ACFA0446144B1F
:1014E8001B6813F0007F06D1FFF7A4FA031B022B39
:1014F800F5D9032013E0002011E00D4AD1680E4B06
:101508000B40D36000200AE001207047012006E06C
:10151800012004E0012002E0012000E0002003B0E7
:10152800F0BD0120FBE70120F9E70120F7E700BF44
:10153800001002408C809DF9FCFFEEFE002800F0B0
:10154800AF8070B50D460446594B1B6803F007037E
:101558008B420BD2564A136823F007030B431360E0
:10156800136803F007038B4240F09C80236813F054
:10157800020F0CD0A2684F4B9B6803F0F0039A420D
:1015880005D94C498B6823F0F0031A438A60236815
:1015980013F0010F39D06368032B09D0022B26D032
:1015A80063BB444A126812F0020F06D1012076E0AC
:1015B800404A126812F0007F76D03E498A6822F0CD
:1015C800030213438B60FFF735FA0646394B9B68D5
:1015D80003F00C036268B3EB820F16D0FFF72AFA08
:1015E800801B41F288339842F0D9032057E0314AF2
:1015F800126812F4003FE0D1012050E02D4A126831
:1016080012F4806FD9D1012049E0236813F0020F4A
:101618000CD0A268274B9B6803F0F0039A4205D2CE
:1016280024498B6823F0F0031A438A60204B1B6817
:1016380003F00703AB420AD91D4A136823F00703D6
:101648002B431360136803F00703AB422ED12368C2
:1016580013F0040F06D0174A936823F4E063E16897
:101668000B439360236813F0080F07D0114A93685F
:1016780023F46053216943EAC1039360FFF7F6FB43
:101688000C4B9B68C3F303130B4AD35C03F01F0393
:10169800D8400A4B18600A4B1868FFF787F970BDE5
:1016A800012070470120FAE70120F8E70120F6E75A
:1016B8000020024000100240C02000080000002066
:1016C800080000202DE9F04782B0054688461746F5
:1016D8001E46FFF7AFF90A9B1B1A03EB0609FFF733
:1016E800A9F982462B4B1B68C3F3CB3309FB03F3E1
:1016F80001932B689C6838EA04030CBF4FF0010C77
:101708004FF0000CBC4540D0B6F1FF3FF1D0FFF7D9
:1017180091F9A0EB0A0048450AD2B9F1000F07D0A9
:10172800019A02B14A46019B013B01939146E0E7C9
:101738002A68536823F0E00353606B68B3F5827F2F
:101748000BD0AB6AB3F5005F14D0012385F85D3088
:10175800002385F85C30032018E0AB68B3F5004F30
:1017680002D0B3F5806FECD12A68136823F04003E8
:101778001360E6E72A68136823F4005313602A68A5
:10178800136843F400531360DFE7002002B0BDE89C
:10179800F08700BF000000202DE9F04782B0064620
:1017A8000C4615461F4600238DF80330FFF742F913
:1017B8000A9B1B1A03EB0708FFF73CF98146D6F88A
:1017C80000A0314B1B6803EB8303C3EBC3031B0D62
:1017D80008FB03F3019302E0B7F1FF3F12D133682E
:1017E8009B6803EA040CAC454AD0B4F5C06FF3D14A
:1017F800002DF1D19AF80C30DBB28DF803309DF84A
:101808000330E9E7FFF716F9A0EB090040450AD2D3
:10181800B8F1000F07D0019A02B14246019B013B83
:1018280001939046DBE73268536823F0E003536086
:101838007368B3F5827F0BD0B36AB3F5005F14D039
:10184800012386F85D30002386F85C30032018E019
:10185800B368B3F5004F02D0B3F5806FECD13268AE
:10186800136823F040031360E6E73268136823F433
:10187800005313603268136843F400531360DFE7C2
:10188800002002B0BDE8F0870000002070B582B0EB
:1018980004460D46164600920B4600224FF4C051EE
:1018A800FFF77AFFB0B900962B4600228021204628
:1018B800FFF708FFA8B900962B4600224FF4C06135
:1018C8002046FFF769FF50B1236E43F020032366DB
:1018D800032004E0236E43F020032366032002B0B4
:1018E80070BD236E43F0200323660320F7E700282A
:1018F8006AD010B50446436A33B94368B3F5827FAA
:1019080005D00023C36102E0002303614361002383
:10191800A36294F85D30002B4DD0022384F85D302B
:101928002268136823F040031360E368B3F5E06F9F
:1019380047D90022B3F5706F04D0B3F5E06F01D03A
:101948000023A362636803F48273A16801F404416D
:101958000B43216901F002010B43616901F00101A8
:101968000B43A16901F400710B43E16901F03801EF
:101978000B43216A01F080010B43A16A01F4005175
:1019880020680B430360638B03F00403616A01F072
:1019980010010B43616B01F008010B43E16801F48E
:1019A80070610B43216813434B60002020660123BC
:1019B80084F85D3010BD84F85C302046FEF772FF75
:1019C800ABE74FF48052B5E7012070472DE9F043AB
:1019D80083B00446894690461D46FFF72BF894F8D5
:1019E8005D60F6B2012E40F0EF800746B9F1000FB6
:1019F80000F0EB80B8F1000F00F0E78094F85C305D
:101A0800012B00F0E680012384F85C30032384F87E
:101A18005D3000232366C4F83890A4F83C80A4F80D
:101A28003E802364A4F84430A4F846302365E36478
:101A3800A368B3F5004F1ED023681A6812F0400F50
:101A480003D11A6842F040021A60E368B3F5E06F08
:101A580047D9636813B1B8F1010F20D1A26B23688D
:101A68001288DA60A36B0233A363E38F9BB2013B56
:101A78009BB2E38713E02268136823F040031360E6
:101A88002268136843F480431360D5E7FEF7D2FF5A
:101A9800C01BA84202D3B5F1FF3F1AD1CDB1E38FE5
:101AA8009BB2002B75D023689A6812F0020FEDD014
:101AB800A26B1288DA60A36B0233A363B4F83EC04A
:101AC8001FFA8CFC0CF1FF3C1FFA8CFCA4F83EC0FA
:101AD800E5E7012384F85D30002384F85C300326B1
:101AE80073E0636813B1B8F1010F32D1E38F9BB291
:101AF800012B0CD9A26B23681288DA60A36B02331E
:101B0800A363E38F9BB2023B9BB2E38721E0A26B06
:101B1800236812781A73A36B0133A363E38F9BB214
:101B2800013B9BB2E38714E0A36B1B781373A36B91
:101B38000133A363E38F9BB2013B9BB2E38708E0C9
:101B4800FEF778FFC01BA84202D3B5F1FF3F18D1BA
:101B5800BDB1E38F9BB2E3B12268936813F0020F23
:101B6800EED0E38F9BB2012BDED9A36B1B88D36029
:101B7800A36B0233A363E38F9BB2023B9BB2E38761
:101B8800E7E7012384F85D30002384F85C300326FE
:101B98001BE03A4629462046FFF778FE08B1202385
:101BA8002366A36833B901932368DA6801929B68B6
:101BB8000193019B012384F85D30002384F85C3095
:101BC800236E13B9002600E00226304603B0BDE8B4
:101BD800F0830226F9E72DE9F84304468846914642
:101BE8001F46089DFEF726FF064694F85D30DBB2D7
:101BF8006268012B0AD0B2F5827F40F05C81A2684E
:101C0800002A40F05B81042B40F05A81B8F1000FA4
:101C180000F05881B9F1000F00F05681002F00F054
:101C2800558194F85C30012B00F05281012384F82F
:101C38005C3094F85D30DBB2042B02D0052384F8C5
:101C48005D3000232366C4F84090A4F84670A4F8D9
:101C58004470C4F83880E787A787E3642365E3689E
:101C6800B3F5E06F01D8012F23D92268536823F414
:101C78008053536023681A6812F0400F03D11A6822
:101C880042F040021A60E368B3F5E06F5FD9636819
:101C98000BB1012F0BD1A26B23681288DA60A36BFA
:101CA8000233A363E38F9BB2013B9BB2E387012717
:101CB80030E02268536843F480535360DAE7A26B3C
:101CC8001288DA60A36B0233A363E38F9BB2013BF4
:101CD8009BB2E387002723689A6812F0010F11D09E
:101CE800B4F8462092B26AB1DA68236C1A80236C81
:101CF80002332364B4F846309BB2013B9BB2A4F88C
:101D080046300127FEF796FE831BAB4202D3B5F19E
:101D1800FF3F14D1E38F9BB22BB9B4F846309BB286
:101D2800002B00F0B18023689A6812F0020FD2D01D
:101D3800E28F92B2002ACED0002FCCD0BFE7012389
:101D480084F85D30002384F85C300320B4E06368D5
:101D58000BB1012F0FD1E38F9BB2012B0DD9A26BD1
:101D680023681288DA60A36B0233A363E38F9BB204
:101D7800023B9BB2E387012749E0A26B23681278F4
:101D88001A73A36B0133A363E38F9BB2013B9BB22E
:101D9800E387F0E7E28F92B2012A0CD9A26B12888E
:101DA800DA60A36B0233A363E38F9BB2023B9BB25F
:101DB800E38700273DE0A26B12781A73A36B013307
:101DC800A363E38F9BB2013B9BB2E387002730E01C
:101DD8002268536843F48053536001270DE0226C56
:101DE8001B7B1370236C01332364B4F846309BB219
:101DF800013B9BB2A4F846300127FEF71BFE801B6F
:101E0800A84202D3B5F1FF3F36D1002D34D0E38F7D
:101E18009BB223B9B4F846309BB2002B34D0236868
:101E28009A6812F0020F04D0E28F92B20AB1002F22
:101E3800B0D123689A6812F0010FDED0B4F84620BA
:101E480092B2002AD9D0B4F8462092B2012AC6D953
:101E5800DA68236C1A80236C02332364B4F84630A2
:101E68009BB2023B9BB2A4F84630B4F846309BB212
:101E7800012BADD90127C0E7012384F85D30002389
:101E880084F85C30032017E0324629462046FFF7E5
:101E9800FDFC48B9012384F85D30002384F85C30E8
:101EA800236E4BB1012007E020232366002384F82A
:101EB8005C30012000E00220BDE8F8830220FBE747
:101EC8000220F9E70120F7E70120F5E70120F3E711
:101ED8000220F1E770B50D4E0D4D761BB61006D0F9
:101EE800002455F8043B01349847A642F9D1094E1D
:101EF800094D761B00F0D4F8B61006D0002455F82A
:101F0800043B01349847A642F9D170BD042100086A
:101F1800042100080C21000804210008830730B5BB
:101F280048D0541E002A3FD0CAB2034601E0013C03
:101F38003AD303F8012B9D07F9D1032C2DD9CDB243
:101F480045EA05250F2C45EA054536D9A4F11002C6
:101F580022F00F0C03F1200EE6444FEA121C03F1A5
:101F6800100242E9045542E9025510327245F8D18F
:101F78000CF1010214F00C0F03EB021204F00F0C29
:101F880013D0ACF1040323F003030433134442F8E1
:101F9800045B9342FBD10CF003042CB1CAB21C447D
:101FA80003F8012B9C42FBD130BD64461346002C3C
:101FB800F4D1F9E703461446BFE71A46A446E0E71A
:101FC800024B13B1024800F005B87047000000004A
:101FD800E91F0008002301461A46184600F01AB8FF
:101FE80038B5084B084D5B1B9C1007D0043B1D44BB
:101FF800013C55F804399847002CF9D1BDE8384020
:1020080000F054B8102100080C210008704700BFE8
:10201800704700BF2DE9F047DFF87CA00646DAF8E4
:10202800000098460F469146FFF7F0FF1B4B1B68D0
:10203800D3F8484124B365681F2D26DC5EB96B1CB4
:102048000235DAF80000636044F82570FFF7E0FF16
:102058000020BDE8F08704EB85010123C1F88890D2
:10206800D4F88821AB401A43022EC4F88821C1F85D
:102078000881E4D1D4F88C211343C4F88C31DEE70D
:1020880003F5A674C3F84841D5E7DAF80000FFF76E
:10209800BFFF4FF0FF30DCE73804002000210008C4
:1020A800F8B500BFF8BC08BC9E467047F8B500BF3D
:0820B800F8BC08BC9E4670470D
:1020C00000000000000000000102030406070809E8
:1020D000A0860100400D0300801A060000350C00A8
:1020E00040420F0080841E0000093D0000127A006B
:1020F0000024F40000366E010048E801006CDC02A8
:0421000010000020AB
:08210400C91F0008AD0100082D
:04210C00890100083D
:1021100000093D0001000000100000000000000068
:1021200000000000FC02002064030020CC0300201B
:10213000000000000000000000000000000000009F
:10214000000000000000000000000000000000008F
:10215000000000000000000000000000000000007F
:10216000000000000000000000000000000000006F
:10217000000000000000000000000000000000005F
:10218000000000000000000000000000000000004F
:10219000000000000000000000000000000000003F
:1021A000000000000000000000000000000000002F
:1021B000000000000000000000000000000000001F
:1021C000000000000000000001000000000000000E
:1021D0000E33CDAB34126DE6ECDE05000B000000D3
:1021E00000000000000000000000000000000000EF
:1021F00000000000000000000000000000000000DF
:1022000000000000000000000000000000000000CE
:1022100000000000000000000000000000000000BE
:0C2540000000000000000000D404002097
:040000050800096185
:00000001FF
